:020000040800F2
:100000000000052099160008411600084316000854
:1000100045160008471600084916000800000000B1
:100020000000000000000000000000004B16000867
:100030004D160008000000004F1600085116000879
:10004000E9160008E9160008E9160008E916000894
:10005000E9160008E9160008E9160008E916000884
:10006000E9160008E9160008E9160008E916000874
:10007000E9160008E9160008E9160008E916000864
:10008000E9160008E9160008E9160008E916000854
:10009000E9160008E9160008E9160008E916000844
:1000A000E9160008E9160008E9160008E916000834
:1000B000E9160008E9160008E9160008E916000824
:1000C000E9160008E9160008E9160008E916000814
:1000D000E9160008E9160008E9160008E916000804
:1000E000E9160008E9160008E9160008E9160008F4
:1000F000E9160008E9160008E9160008E9160008E4
:10010000E9160008E9160008E9160008E9160008D3
:10011000E9160008E916000855160008E916000857
:10012000E9160008E9160008E9160008E9160008B3
:10013000E9160008E9160008E9160008E9160008A3
:10014000E9160008E9160008E9160008E916000893
:10015000E9160008E9160008E9160008E916000883
:10016000E9160008E9160008E9160008E916000873
:10017000E9160008E9160008E9160008000000006A
:10018000E9160008E9160008E9160008E916000853
:10019000E9160008E9160008E9160008E916000843
:1001A00065160008E916000875160008E91600082B
:1001B000E9160008E9160008E9160008E916000823
:0801C000E9160008E916000829
:1001C80010B5054C237833B9044B13B10448AFF389
:1001D80000800123237010BD0C00002000000000E7
:1001E8001846000808B5034B1BB103490348AFF391
:1001F800008008BD0000000010000020184600081C
:1002080053B94AB9002908BF00281CBF4FF0FF3175
:100218004FF0FF3000F06EB9ADF1080C6DE904CE77
:1002280000F006F8DDF804E0DDE9022304B07047C9
:100238002DE9F047089D04468C46002B40F083804A
:100248008A42174647D9B2FA82F242B1C2F1200077
:1002580024FA00F09140974040EA010C94404FEA9C
:100268001748230CBCFBF8F61FFA87FE08FB16C1DB
:1002780043EA014306FB0EF1994209D9FB1806F13E
:10028800FF3080F01981994240F21681023E3B44CA
:100298005B1AA4B2B3FBF8F008FB103344EA03443A
:1002A80000FB0EFEA64509D93C1900F1FF3380F08A
:1002B8000581A64540F2028102383C4440EA0640E6
:1002C800A4EB0E0400261DB1D4400023C5E9004369
:1002D8003146BDE8F08702B9FFDEB2FA82F2002AA1
:1002E80050D1CB1B4FEA174E1FFA87F80126B3FBF4
:1002F800FEFC210C0EFB1C3341EA034108FB0CF306
:100308008B4207D979180CF1FF3002D28B4200F2E8
:10031800E9808446C91AA3B2B1FBFEF00EFB1011A6
:1003280043EA014408FB00F8A04507D93C1900F14D
:10033800FF3302D2A04500F2D9801846A4EB080486
:1003480040EA0C40BFE78B4209D9002D00F0B1808C
:100358000026C5E9000130463146BDE8F087B3FA0A
:1003680083F6002E4AD18B4202D3824200F2B88033
:10037800841A61EB030101208C46002DA8D0C5E941
:10038800004CA5E7C2F1200320FA03F6974001FAD2
:1003980002F04FEA174ED9403043030CB1FBFEF68A
:1003A8001FFA87F80EFB161143EA014306FB08F112
:1003B800994204FA02F409D9FB1806F1FF3C80F0CF
:1003C8008D80994240F28A80023E3B445B1A81B29A
:1003D800B3FBFEF00EFB103341EA034100FB08F3C8
:1003E8008B4207D9791800F1FF3C73D28B4271D93F
:1003F80002383944CB1A40EA064678E7C6F1200CA1
:1004080003FA06F422FA0CF31C4320FA0CF701FA5B
:1004180006F34FEA144E21FA0CF11F433B0CB1FBD3
:10042800FEF91FFA84F80EFB191143EA014109FB92
:1004380008FA8A4502FA06F200FA06F308D96118A2
:1004480009F1FF3048D28A4546D9A9F10209214469
:10045800A1EB0A01BFB2B1FBFEF00EFB101147EA97
:10046800014700FB08F8B84507D9E71900F1FF3143
:100478002ED2B8452CD90238274440EA0940A7EBC8
:100488000807A0FB02894F45C64649461AD317D02C
:100498005DB1B3EB0E0267EB010707FA0CFCF24003
:1004A8004CEA0202F740C5E9002700263146BDE8BC
:1004B800F0872E4628460BE70646E9E61846FDE68D
:1004C8004345E5D2B8EB020E69EB04010138DFE7DA
:1004D8000846D2E760468DE78146B9E7664675E784
:1004E80030464AE7ACF1020C394413E702383C4481
:1004F80024E700BF704700BF084B1860084B19601D
:10050800084B1A6001FB00F102EB4102064B1A602E
:1005180002EB4102054B1A60704700BF280000201B
:10052800380000202C00002030000020340000207B
:100538000023B3F5FF3F06DA034A126881B222F8B6
:1005480013100133F5E770472C000020F0B4DDF8F4
:1005580010C04F1E5E1E0CE00949096801FB0631F8
:10056800084C246885B224F8115001339A42F3D814
:100578000136B44501D93B46F8E7F0BC704700BFE7
:10058800380000202C00002010B4C0F30743C3EB50
:100598004313134C84FB03211944DB17C3EBE1110C
:1005A800C0F30723C3EB831384FB03C21A44DB178E
:1005B800C3EBE213C2B2C2EB421284FB0240104406
:1005C800D217C2EBE010C2B2580100F4FF5010433A
:1005D800C90201F4FF21084380B25DF8044B70475B
:1005E8008180808010B582B002464068074B186051
:1005F8009168074B1960137B064C23700093537B5B
:100608001268FFF779FF02B010BD00BF400000205C
:10061800440000203C00002010B504460C4B1B7819
:1006280043B10B4B1B78012B09D0094B1B78022BCC
:100638000AD010BDFFF7A8FFFFF77AFFF1E744F0F3
:100648007F40FFF775FFF0E72046FFF771FFF0E7FF
:100658003C000020F0B583B0074615461E460C1E28
:1006680003DD284B1B689C4205D9002D2BDD254B4B
:100678001B689D4227D8002E03DD234B1B689E4232
:1006880007D9089B002B1EDD1F4B1B68089A9A424E
:1006980019D8002C19DD1B4B1B689D4200D91C463C
:1006A800002E14DD184B1B68089A9A4200D91E4682
:1006B800164B1B786BB1154B1B78012B14D0134BC1
:1006C8001B78022B1AD003B0F0BD0124E3E7012602
:1006D800E8E73846FFF758FF089B009333462A4659
:1006E8002146FFF733FFE6E7089B009333462A4687
:1006F800214647F07F40FFF729FFE0E73846FFF73C
:1007080017FFE0E744000020400000203C000020E4
:1007180000B583B0314C002222734FF488736360B4
:100728004FF4F073A360012363732D4921602D48B2
:1007380001F07AFD2046FFF755FF4FF47F40FFF7A1
:100748006BFF4FF47A7000F0F1FF6FF07F40FFF716
:1007580063FF4FF48873009301234FF4F072194636
:100768003320FFF777FF40F6B83000F0DFFF6FF077
:100778007F40FFF751FF40F20F130093022340F22E
:10078800DF1219463320FFF765FF40F6B83000F056
:10079800CDFF6FF07F40FFF73FFF4FF48773009363
:1007A80003234FF4EF7219463320FFF753FF40F647
:1007B800B83000F0BBFF6FF07F40FFF72DFFB42388
:1007C800009346234FF4C87232213320FFF742FFCB
:1007D80040F6B83000F0AAFFB7E700BF4C00002091
:1007E8005C0000202CFD032010B584B00024009488
:1007F80001940294039400F0FFFF01238DF8003068
:100808008DF801400D4A019211228DF808208DF8CB
:1008180009408DF80A4003228DF80B208DF80C4012
:100828008DF80D408DF80E308DF80F40684601F0B8
:1008380005F8042000F0F0FF04B010BD040000200B
:100848002DE9F04F91B000240B940C940D940E9464
:100858000F94AA4B1A6B42F010021A631A6B02F03B
:1008680010020092009A1A6B42F040021A631A6B47
:1008780002F040020192019A1A6B42F002021A63D6
:100888001A6B02F002020292029A1A6B42F00802F4
:100898001A631A6B02F008020392039A1A6B42F069
:1008A80004021A631A6B02F004020492049A1A6B87
:1008B80042F001021A631A6B02F001020592059ACE
:1008C8001A6B42F400721A631A6B02F400720692F1
:1008D800069A1A6B42F480721A631A6B02F48072D9
:1008E8000792079A1A6B42F480621A631A6B02F431
:1008F80080620892089A1A6B42F020021A631A6BF7
:1009080002F020020992099A1A6B42F080021A63D7
:100918001B6B03F080030A930A9B0122202178486D
:1009280001F0D6F922460C21764801F0D1F90122CE
:100938000821754801F0CCF901224FF48051714823
:1009480001F0C6F922464FF40051704801F0C0F991
:100958002246C8216E4801F0BBF908230B930C947A
:100968000D94DFF8B8910BA9484601F0C1F80423AB
:100978000B9302250C950D9403260E9609230F93CD
:100988000BA9484601F0B4F84FF4D0430B930C95EB
:100998000D940E960B230F930BA95D4801F0A8F850
:1009A8004FF440730B9312230C930D940E9404236D
:1009B8000F93DFF86CB10BA9584601F099F843F68C
:1009C80023430B930C950D940E964FF00A08CDF81F
:1009D8003C800BA9584601F08BF810230B930C951B
:1009E8000D940E940F950BA9584601F081F88023B9
:1009F8000B930C950D940E9408230F930BA9404864
:100A080001F076F84FF400430B930C950D940E9477
:100A180001270F97DFF80CA10BA9504601F068F8E1
:100A280060230B930C950D940E940D230F930BA933
:100A3800484601F05DF880230B930C950D940E94B5
:100A480007230F930BA9584601F052F840230B9344
:100A58000C950D940E96CDF83C800BA9584601F0E4
:100A680047F84FF480530B930C940D940BA9294825
:100A780001F03EF840230B93274B0C930D940BA9E0
:100A88001F4801F035F84FF4E0530B930C950D9483
:100A98000E96CDF83C800BA9504601F029F8F023BA
:100AA8000B930C950D940E94CDF83C800BA915482A
:100AB80001F01EF84FF480630B930C950D940E947F
:100AC800CDF83C800BA9124801F012F820230B93B3
:100AD8000C970D940E940BA9094801F009F8082207
:100AE8000B920C950D940E940D220F920BA90448AD
:100AF80000F0FEFF41F20C030B9315E000380240B2
:100B0800000C02400020024000280240001C024065
:100B18000018024000240240000012100010024099
:100B280000040240000002400C970D940E940BA99B
:100B38008E4800F0DDFF4FF400520B920C940D9498
:100B4800A9F500690BA9484600F0D2FF08220B92CC
:100B58000C970D940E940BA9854800F0C9FF4FF42B
:100B680000720B920C950D940E940D220F920BA906
:100B7800804800F0BDFF10220B920C940D940BA935
:100B88007D4800F0B5FF48F204030B930C940D94D4
:100B98000BA97A4800F0ACFF0B950C950D940E94B8
:100BA80005220F920BA9714800F0A2FF4FF40052E2
:100BB8000B920C970D940E940BA9704800F098FFB7
:100BC8004FF4BC430B930C950D940E940D220F9289
:100BD8000BA96A4800F08CFF0B970C950D940E94A6
:100BE8000F950BA9614800F083FF4FF400720B9238
:100BF8000C950D940E9407220F920BA9504600F005
:100C080077FF4FF480730B930C950D940E940F9708
:100C18000BA9504600F06CFF4FF400520B92584B52
:100C28000C930D940BA9514800F062FFC0230B935D
:100C38000C950D940E9608230F930BA9484600F0C7
:100C480057FF10230B930C950D940E96CDF83C800E
:100C58000BA94A4800F04CFFC8230B930C970D943E
:100C68000E940BA9434800F043FF4FF4F8630B932D
:100C78000C960D940BA9434800F03AFF05230B93FB
:100C88000C950D940E96CDF83C800BA9484600F0C3
:100C98002FFF32230B930C950D940E960B230F9375
:100CA8000BA9484600F024FF04230B930C950D94E0
:100CB8000E9609230F930BA9584600F019FF4FF41D
:100CC80060530B930C950D940E9609230F930BA963
:100CD800294800F00DFF04230B930C940D940BA9E5
:100CE800244800F005FF86230B930C950D940E966F
:100CF8000B230F930BA9504600F0FAFE0B970C96A6
:100D08000D940BA9504600F0F3FE50230B930C955D
:100D18000D940E940D230F930BA9504600F0E8FE96
:100D280028230B930C950D940E96CDF83C800BA9B7
:100D3800504600F0DDFE40230B930C950D940E9465
:100D480009230F930BA90D4800F0D2FE4FF440433E
:100D58000B930C950D940E9405230F930BA95846ED
:100D680000F0C6FE11B0BDE8F08F00BF00200240C1
:100D78000028024000180240000C0240001C0240FB
:100D8800000012100014024008B50268034B9A4292
:100D980000D008BD00F0B8FCFBE700BF0010004021
:100DA80072B6FEE708B50C480C4B0360002343609D
:100DB80002228260C3608362C2620363436300F0FD
:100DC80067FD28B90121044800F030FE10B908BDBC
:100DD800FFF7E6FFFFF7E4FFF4FD032000B0024051
:100DE80000B589B01448154B036000234360836045
:100DF8000421C16010220261402242614FF4C07296
:100E08008261C3614FF4006202624FF48052426211
:100E180083620223019306220292039104920593AE
:100E280006930793694402F05BFE10B909B05DF8B8
:100E380004FBFFF7B5FF00BF34FE0320400100A00C
:100E480008B51148114B0360114B4360E0238360E0
:100E58000123C3600023036143618361C3610362AB
:100E680000F03CFF50B90021074800F095FF38B961
:100E78000021054800F0BEFF20B908BDFFF790FF2C
:100E8800FFF78EFFFFF78CFF5CFC0320005C00403F
:100E9800FFEAC00000B58FB03422002101A803F09A
:100EA800AFFB2648264B0360002343608360C36082
:100EB800036128224261092282613522C2610B2224
:100EC800026240F21522426240F21B12826240F234
:100ED8003522C26240F21D12026380F8343080F875
:100EE800353080F8363001F087F818BB00220192BF
:100EF8004FF4F071029103924FF488730493022027
:100F08000590FF20069007924FF480600890052016
:100F180009900A920B910C938DF834208DF83520A6
:100F28008DF8362001A9054801F050F920B90FB015
:100F38005DF804FBFFF734FFFFF732FF2CFD0320B9
:100F48000068014010B592B000240C940D940E94E2
:100F58000F94109411940B942C222146684603F0A8
:100F68004FFB3148314B036044607F238360FF238C
:100F7800C36004614461846102F01EF8002847D10F
:100F880000238DF830308DF831308DF832301093E1
:100F9800119301220CA9244802F07CF8002839D1C9
:100FA80001228DF82C208DF82D208DF82E2000237D
:100FB8008DF82F300BA91C4802F0ECF860BB002319
:100FC8008DF800308DF801308DF8023001930493CC
:100FD800059306930793089301228DF824204FF474
:100FE80080730A936946104802F042F9B0B94FF489
:100FF80000730A93012269460B4802F039F978B95F
:1010080002220021084802F0E3F958B912B010BDD5
:10101800FFF7C6FEFFF7C4FEFFF7C2FEFFF7C0FEEC
:10102800FFF7BEFEFFF7BCFED4FD032000280040FA
:1010380008B50C480C4B0360002343608360C36011
:10104800036143610523836102F0CEFC30B94FF49C
:101058000061044802F0E4FC10B908BDFFF7A0FEE7
:10106800FFF79EFEA8FC0320002C014000B5B5B098
:101078003022002128A803F0C3FA002123912491EB
:10108800259126912791842202A803F0B9FA01F04C
:10109800EDF8334B1A6C42F080521A641B6C03F063
:1010A80080530093009B2F4B1A6842F440421A6009
:1010B8001B6803F440430193019B092328934FF4D1
:1010C8008033299301232D9302232E934FF480021A
:1010D8002F92192230924FF4C8723192329308231A
:1010E800339328A801F008F9002831D101F0C6F897
:1010F80000282FD10F232393022324930023259321
:101108004FF4A05326934FF480532793062123A826
:1011180001F05CFB00BB144B02936423079302238A
:101128000993089300230A9301220C924FF480320A
:101138000D924FF400720E921D934FF000622192AF
:10114800229302A801F02CFC40B935B05DF804FBED
:10115800FFF726FEFFF724FEFFF722FEFFF720FE2B
:1011680000380240007000402800A10008B5FFF7D1
:101178003BFBBFF34F8FBFF36F8F274B0021C3F8A3
:101188005012BFF34F8FBFF36F8F5A6942F400328A
:101198005A61BFF34F8FBFF36F8FC3F88410BFF34B
:1011A8004F8FD3F88040C4F34E3000E01846C4F3A4
:1011B800C90243F6E07303EA401343EA827316490F
:1011C800C1F860321346013A002BF2D1431E0028C1
:1011D800ECD1BFF34F8F4B6943F480334B61BFF3BE
:1011E8004F8FBFF36F8F00F07DFAFFF73FFF4FF48B
:1011F800FA7000F09BFAFFF723FBFFF7D3FDFFF728
:10120800EFFDFFF71DFEFFF745FEFFF79BFEFFF71B
:101218000FFFFFF77DFAFCE700ED00E02C4B1B68A1
:1012280003B17047F0B587B0294B01221A60294BEA
:101238009A6B42F001029A639B6B03F001030093DF
:10124800009B4FF6837301930227029700260396AB
:10125800032504950C24059401A91F4800F048FCB7
:1012680048F233130193029703960495059401A954
:101278001A4800F03DFC4CF2037301930297039661
:101288000495059401A9164800F032FC4FF63F0377
:101298000193029703960495059401A9114800F05B
:1012A80027FC28230193029703960495059401A926
:1012B8000D4800F01DFC082301930297039604953E
:1012C800059401A9094800F013FC07B0F0BD00BF60
:1012D8004800002000380240001002400018024078
:1012E800000C024000140240001C024000080240AA
:1012F80082B00A4B1A6C42F080521A641A6C02F0DF
:1013080080520092009A5A6C42F480425A645B6C94
:1013180003F480430193019B02B0704700380240F8
:1013280002680E4B9A4200D0704700B583B0A3F50F
:10133800F0431A6B42F400021A631B6B03F40003B8
:101348000193019B002211465A2000F015FA5A20F9
:1013580000F044FA03B05DF804FB00BF00B002409F
:1013680010B588B00023039304930593069307935D
:101378000268144B9A4201D008B010BD124C236B7E
:1013880043F080032363236B03F080030193019BE5
:101398004FF4C0730393122304930123059303238B
:1013A80006930423079303A9084800F0A1FB236CC4
:1013B80043F400032364236C03F400030293029BA9
:1013C800DAE700BF005C004000380240001C024021
:1013D80070B58CB000230793089309930A930B9375
:1013E80002683F4B9A4201D00CB070BD03F55043E0
:1013F8005A6C42F080625A645A6C02F08062019220
:10140800019A1A6B42F010021A631A6B02F010026A
:101418000292029A1A6B42F400721A631A6B02F46F
:1014280000720392039A1A6B42F480621A631A6B71
:1014380002F480620492049A1A6B42F040021A6322
:101448001A6B02F040020592059A1A6B42F48072F8
:101458001A631B6B03F480730693069B1023079390
:1014680002250895002409940A940E260B9607A9CC
:101478001C4800F03DFB4EF6FF730793089509944E
:101488000A940B9607A9184800F032FBF723079334
:10149800089509940A940B9607A9144800F028FBAC
:1014A8004FF480530793089509940A9409230B93E2
:1014B80007A90F4800F01CFB4FF446430793089513
:1014C80009940A940B9607A90A4800F011FB2246D2
:1014D8002146582000F050F9582000F07FF983E7A2
:1014E8000068014000100240002402400028024029
:1014F80000180240002002400268054B9A4200D0C2
:101508007047044A136F43F400431367F8E700BFBA
:101518000028004000380240F0B589B0002303934A
:10152800049305930693079302681F4B9A4201D0D0
:1015380009B0F0BD03F586335A6C42F400625A6470
:101548005A6C02F400620092009A1A6B42F004028C
:101558001A631A6B02F004020192019A1A6B42F0A4
:1015680008021A631B6B03F008030293029B4FF4F3
:10157800F85303930227049700260596032506953A
:101588000C2407940DEB0401084800F0B1FA042379
:10159800039304970596069507940DEB04010448F8
:1015A80000F0A6FAC4E700BF002C01400008024082
:1015B800000C024008B5FFF731FE08BD00B589B040
:1015C80001460022362000F0D7F8362000F006F950
:1015D800154B1A6C42F010021A641B6C03F01003CE
:1015E8000193019B02A903A801F0BCF901F0AAF933
:1015F80043000E48A0FB03239B0C013B0C480D4AFB
:10160800026040F2E732C2604360002303618360F6
:1016180002F028FC18B1012009B05DF804FB044869
:1016280002F080FAF8E700BF0038024083DE1B436F
:1016380068FE032000100040FEE7FEE7FEE7FEE735
:10164800FEE77047704770477047000008B50248CA
:1016580002F0B4FA08BD00BF68FE032008B50248CE
:1016680000F047FD08BD00BF2CFD032008B5024867
:1016780000F03EF908BD00BFF4FD0320034AD2F88C
:10168800883043F47003C2F88830704700ED00E0FA
:10169800DFF834D00D480E490E4A002302E0D45832
:1016A800C4500433C4188C42F9D30B4A0B4C0023A2
:1016B80001E013600432A242FBD3FFF7DFFF02F020
:1016C8007BFFFFF753FD7047000005200000002056
:1016D8000C000020584600080C000020B8FE03202B
:1016E800FEE7000008B5074A136843F40073136067
:1016F800032000F02FF80020FFF760FFFFF7F8FD48
:10170800002008BD003C0240034A1168034B1B78C7
:101718000B441360704700BFB4FE03200400002090
:10172800014B1868704700BFB4FE032038B5044663
:10173800FFF7F6FF0546B4F1FF3F02D0044B1B78D4
:101748001C44FFF7EDFF401BA042FAD338BD00BF91
:10175800040000200649CB6823F4E0631B041B0C3B
:10176800000200F4E0600343024A1A43CA6070476B
:1017780000ED00E00000FA0530B4154BDB68C3F358
:101788000223C3F10704042C28BF04241D1D062DC1
:1017980014D9033B4FF0FF3505FA04F421EA04019C
:1017A800994005FA03F322EA03031943002807DBEB
:1017B8000901C9B2074B195430BC70470023E9E747
:1017C80000F00F000901C9B2034B1954F4E700BF38
:1017D80000ED00E000E400E014ED00E0002807DB85
:1017E80000F01F02400901239340024A42F82030CA
:1017F800704700BF00E100E0BFF35F8F044A536AFF
:1018080023F480335362034B00225A60704700BFB1
:1018180000ED00E090ED00E040F00100054B58605D
:10182800054A536A43F480335362BFF34F8FBFF3C3
:101838006F8F704790ED00E000ED00E04278134BA9
:101848009A600378EBB14368104AD360017BC37A8E
:101858001B0643EA0173817A43EAC143417B43EAA9
:101868008143817B43EA4143C17B43EA0143417A97
:1018780043EA0123017A43EA410301780B431361E8
:101888007047024B0022DA601A61704790ED00E061
:1018980038B310B5044690F83930EBB1022384F818
:1018A80039302268136823F4403361680B431360AE
:1018B8002268536B23F00703A1680B435363226824
:1018C800116C094B0B40E1680B4313640020E06383
:1018D800012384F8393010BD80F83830FFF720FD37
:1018E800DCE70120704700BF00C0FFFF704770476A
:1018F80070B5044603685D681E6815F0010F16D0C0
:1019080016F4807F13D01A6822F480721A60C36BB1
:1019180043F00103C363036801229A60042380F83B
:101928003930002380F83830436903B1984715F0FF
:10193800200F18D016F4005F15D02268136823F41E
:1019480000531360236820229A60E36B43F002037C
:10195800E363042384F83930002384F8383063695A
:101968000BB12046984715F0080F18D016F4006FF1
:1019780015D02268136823F40063136023680822D3
:101988009A60E36B43F00403E363042384F839307B
:10199800002384F8383063690BB12046984715F066
:1019A800040F02D016F4806F20D115F0020F16D064
:1019B80016F4007F13D02268136823F400731360B1
:1019C800236802229A60E36BE363012384F83930C9
:1019D800002384F8383023690BB12046984715F066
:1019E800100F02D016F4805F0CD170BD2268136806
:1019F80023F480631360236804229A602046FFF76B
:101A080075FFD2E72268136823F4805313602368B4
:101A180010229A60E36BE363012384F839300023D2
:101A280084F838302046FFF762FFDEE790F8383058
:101A3800012B59D030B4012380F83830022380F8C4
:101A4800393000EB0113DA698B1C1B01C35842EAD9
:101A58000343093A012A1ED98A1C00EB0212526874
:101A680043EA026341BB0468656A204A2A4013437B
:101A78006362026800EB01139C699461DB69093BAE
:101A8800012B10D9012380F83930002380F8383031
:101A9800184630BC70478A1C00EB0212526802F0EC
:101AA8007F421343DEE7023100EB01114B68026805
:101AB80023F07F439362E5E70468E5690B4A2A400F
:101AC8001343E361026800EB01139C691461DB694D
:101AD800093B012BD6D8023100EB01114B68026893
:101AE80023F07F431362CDE702207047F0FFFC002C
:101AF80000230F2B00F2E380F0B583B039E0092210
:101B080000E00022B2403A4302346D4E46F82420E9
:101B18006C4A1468EA4324EA05064F6817F4803FC4
:101B280001D045EA0406674C2660646802EA0406A8
:101B38004F6817F4003F01D045EA0406614C66601F
:101B4800A46802EA04064F6817F4801F01D045EA2A
:101B580004065C4CA660E46822404E6816F4001F38
:101B680001D045EA0402574CE26001330F2B00F222
:101B7800A48001229A400C6804EA020532EA0404AF
:101B8800F3D14C68661E112C18BF012E01D9122CF6
:101B980012D186685F000324BC4026EA0406CC689C
:101BA800BC4034438460466826EA02064C68C4F3A5
:101BB80000129A4032434260C7685E000324B44072
:101BC800E24327EA04078C68B4403C43C4604C688D
:101BD800122C18BF022C13D1DF08083750F827E061
:101BE80003F007044FEA840C0F2404FA0CF42EEADD
:101BF800040E0C6904FA0CF444EA0E0440F8274079
:101C0800046814404A6802F00302B24022430260AA
:101C18004A6812F0805FA8D02B4A546C44F4804480
:101C28005464526C02F480420192019A9C08A61CEA
:101C3800234A52F8267003F0030296000F22B2409E
:101C480027EA0207214A90423FF45BAF02F580621F
:101C5800904222D002F58062904220D002F5806244
:101C680090421ED002F5806290421CD002F580623C
:101C780090421AD002F58062904218D002F5806234
:101C8800904216D002F58062904214D002F580622C
:101C980090423FF434AF0A2234E7012232E70222AD
:101CA80030E703222EE704222CE705222AE7062242
:101CB80028E7072226E7082224E703B0F0BD70478B
:101CC80000380140003C014000380240000002405A
:101CD8000AB181617047090481617047002857D0B3
:101CE80010B5044690F84130002B41D0242384F8E5
:101CF80041302268136823F0010313606368226887
:101D080023F0706313612268936823F4004393609F
:101D1800E368012B31D0A368226843F4044393603D
:101D2800E368022B2FD0226851681A4B0B4353608B
:101D38002268D36823F40043D3602369626913439C
:101D4800A169226843EA0123D360E369216A226812
:101D58000B4313602268136843F0010313600020EB
:101D68006064202384F84130206384F8420010BD69
:101D780080F84030FFF7F4FAB8E7A368226843F424
:101D880000439360CCE723684FF400625A60CAE7C7
:101D9800012070470080000290F84130DBB2202B10
:101DA80024D190F84030012B22D0012380F8403014
:101DB800242380F841300268136823F0010313607C
:101DC8000268136823F48053136002681368194388
:101DD80011600268136843F001031360202380F840
:101DE8004130002380F84030184670470220704781
:101DF8000220704790F84130DBB2202B22D190F8B6
:101E08004030012B20D0012380F84030242380F873
:101E180041300268136823F00103136002681368F5
:101E280023F4706343EA012111600268136843F0E8
:101E380001031360202380F84130002380F84030EC
:101E4800184670470220704702207047F0B54E6868
:101E58000568EB68C3F30B431E44D40105EBC215B8
:101E6800D5F8883003F47043C5F888300B680568E6
:101E7800EF68C7F30B473B44013305EBC21543EA50
:101E88000643C5F88830CE680568EB68C3F30A03D3
:101E98001E4405EBC215D5F88C3003F47043C5F821
:101EA8008C308B680568EF68C7F30A073B44013339
:101EB80005EBC21543EA0643C5F88C30036803EB0B
:101EC800C213D3F8945025F00705C3F8945003685B
:101ED80003EBC2130D69C3F8945091F831E091F8FF
:101EE80032C08F69066806EBC216D6F89C3000250A
:101EF800C6F89C5091F8303043EA0E2343EA0C436D
:101F0800066806EBC21643EA0763C6F89C30036806
:101F180003EBC213D3F8986026F0FF06C3F8986065
:101F2800036803EBC2134E69C3F89860036803EBB8
:101F3800C213D3F8A0702E4E3E40C3F8A060CE69FD
:101F48000F6A036803EBC2133E43C3F8A06003683B
:101F580003EBC213D3F8AC60C3F8AC50036803EBCF
:101F6800C2124B6AC2F8AC300B696BB1012B39D085
:101F7800022B18BF042B37D0032B37D0072B01D0E7
:101F8800012302E0022300E0042302682244D2F87D
:101F9800B05005F0E025C2F8B0508A6A03FB02F59C
:101FA8004A680E68921B03FB02F30333026822445B
:101FB80043EA0543C2F8B03003682344D3F8B45069
:101FC8000C4A2A40C3F8B42003682344CA6AC3F8F9
:101FD800B42003681C44D4F8843043F00103C4F8E7
:101FE8008430F0BD0323D0E70223CEE70223CCE7F9
:101FF800F8F8FFFF00F8FFFF002872D038B5044654
:1020080090F8A130002B67D0022384F8A130226811
:10201800936923F07043936121688A696368A068B3
:102028000343E06803432069034313438B6121683A
:102038008A682D4B1A408A60656920688268A169A0
:1020480041EA05410A4382602168CA681A40CA60A9
:10205800E5692068C268216A41EA05410A43C2600D
:1020680021680A691A400A61656A20680269A16ADA
:1020780041EA05410A43026121684A6913404B61FC
:10208800E06A21684B69226B42EA004213434B61C4
:1020980094F8350094F836301B042168CA6A02F0B7
:1020A8007F42CA622168CA6A43EA002394F834006E
:1020B80003431343CB622268536B43F00603536315
:1020C8002268936943F0010393610020C4F8A400D7
:1020D800012384F8A13038BD80F8A030FFF778F9E3
:1020E80092E70120704700BF00F800F07047704782
:1020F800704770B5044603689D6B5E6B15F0040F5E
:1021080002D016F0040F12D115F0020F02D016F00B
:10211800020F21D115F0010F02D016F0010F32D1B4
:1021280015F0080F02D016F0080F3DD170BD5A6B9C
:1021380022F004025A6303680422DA63D0F8A43058
:1021480043F00103C0F8A43080F8A120002380F8F0
:10215800A030FFF7CBFFD7E72268536B23F00203C9
:10216800536323680222DA63D4F8A4301343C4F813
:10217800A430042384F8A130002384F8A03020463A
:10218800FFF7B4FFC6E72268536B23F001035363DC
:1021980022680123D36384F8A130002384F8A03097
:1021A8002046FFF7A4FFBBE72268536B23F0080320
:1021B800536323680822DA63012384F8A1300023DB
:1021C80084F8A0302046FFF793FFAFE790F8A030DF
:1021D800012B27D02DE9F04106460F4694464FF0D3
:1021E800010880F8A080022380F8A130342404FB81
:1021F800020438340D460FCD0FC40FCD0FC40FCDD8
:102208000FC42B682360624639463046FFF71EFE2E
:102218003368C3F8248086F8A180002086F8A000DF
:10222800BDE8F0810220704738B590F8A030012B46
:1022380019D00446012580F8A050022380F8A13067
:10224800342303FB02F303F138002344D965211832
:102258002046FFF7FBFD23685D6284F8A15000204B
:1022680084F8A00038BD0220FCE70000024A136889
:1022780043F48073136070470070004010B582B05B
:102288001B4B1A6C42F080521A641B6C03F080538B
:102298000193019B174A136843F480331360FFF7D7
:1022A8003FFA0446134B5B6813F4803F08D1FFF7ED
:1022B80037FA001BB0F57A7FF4D9032002B010BDBD
:1022C8000C4A136843F400331360FFF729FA0446F5
:1022D800084B5B6813F4003F07D1FFF721FA001B96
:1022E800B0F57A7FF4D90320E8E70020E6E700BFDD
:1022F8000038024000700040002800F0FF8170B5EF
:1023080082B00446036813F0010F29D0A74B9B68DD
:1023180003F00C03042B1AD0A44B9B6803F00C03A6
:10232800082B0FD06368B3F5803F40D0002B54D101
:102338009E4B1A6822F480321A601A6822F48022AE
:102348001A6039E0994B5B6813F4800FEAD0974B19
:102358001B6813F4003F03D06368002B00F0D081A2
:10236800236813F0020F74D0904B9B6813F00C0F86
:102378005ED08E4B9B6803F00C03082B53D0E368A8
:10238800002B00F08980894A136843F00103136029
:10239800FFF7C6F90546854B1B6813F0020F72D18B
:1023A800FFF7BEF9401B0228F5D90320ADE17F4AAB
:1023B800136843F48033136063682BB3FFF7B0F9F5
:1023C80005467A4B1B6813F4003FC9D1FFF7A8F9FB
:1023D800401B6428F5D9032097E1B3F5A02F09D055
:1023E800724B1A6822F480321A601A6822F480222A
:1023F8001A60E1E76D4B1A6842F480221A601A6885
:1024080042F480321A60D7E7FFF78AF90546674B2E
:102418001B6813F4003FA3D0FFF782F9401B642820
:10242800F5D9032071E1614B5B6813F4800FA6D1E5
:102438005E4B1B6813F0020F03D0E368012B40F0DA
:1024480061815A4A136823F0F803216943EAC103FA
:102458001360236813F0080F46D0636983B3534AA7
:10246800536F43F001035367FFF75AF905464F4B83
:102478005B6F13F0020F37D1FFF752F9401B0228A8
:10248800F5D9032041E1494A136823F0F80321698B
:1024980043EAC1031360DCE7444A136823F00103ED
:1024A8001360FFF73DF90546404B1B6813F0020F18
:1024B800CFD0FFF735F9401B0228F5D9032024E1D6
:1024C8003A4A536F23F001035367FFF729F905468A
:1024D800364B5B6F13F0020F06D0FFF721F9401B54
:1024E8000228F5D9032010E1236813F0040F7DD0EA
:1024F8002E4B1B6C13F0805F0BD12C4B1A6C42F0E7
:1025080080521A641B6C03F080530193019B0125D0
:1025180000E00025264B1B6813F4807F0ED0A368CB
:10252800012B1FD0002B35D1204B1A6F22F001024E
:102538001A671A6F22F004021A6718E01C4A136817
:1025480043F480731360FFF7EBF80646184B1B68DB
:1025580013F4807FE3D1FFF7E3F8801B6428F5D9F3
:102568000320D2E0114A136F43F001031367A368F5
:1025780053B3FFF7D5F806460C4B1B6F13F0020F49
:1025880033D1FFF7CDF8801B41F288339842F3D955
:102598000320BAE0052B0DD0044B1A6F22F001027C
:1025A8001A671A6F22F004021A67E0E7003802403F
:1025B800007000405C4B1A6F42F004021A671A6FF1
:1025C80042F001021A67D2E7FFF7AAF80646564B0F
:1025D8001B6F13F0020F08D0FFF7A2F8801B41F21F
:1025E80088339842F3D903208FE0FDB9A369002B03
:1025F80000F08A804C4A926802F00C02082A58D0EF
:10260800022B19D0484A136823F080731360FFF730
:1026180087F80446444B1B6813F0007F47D0FFF748
:102628007FF8001B0228F5D903206EE03E4A136CA0
:1026380023F080531364D9E73B4A136823F080736F
:102648001360FFF76DF80546374B1B6813F0007FE2
:1026580006D0FFF765F8401B0228F5D9032054E09F
:10266800E369226A1343626A43EA8213A26A520840
:10267800013A43EA0243E26A43EA026343F0005341
:10268800294A5360136843F080731360FFF748F8D2
:102698000446254B1B6813F0007F06D1FFF740F86E
:1026A800001B0228F5D903202FE000202DE0002090
:1026B8002BE01D4A5268012B29D002F48003E169FE
:1026C8008B4226D102F03F03216A8B4223D1616AF3
:1026D80047F6C0731340B3EB811F1ED102F440319B
:1026E800A36A5B08013BB1EB034F18D102F070629B
:1026F800E36AB2EB036F14D1002006E001207047B3
:10270800012002E0012000E0002002B070BD01209D
:10271800FBE70120F9E70120F7E70120F5E70120B1
:10272800F3E70120F1E700BF00380240F8B5244B79
:102738009B6803F00C03042B3DD0082B3DD1204BA4
:102748005A6802F03F025B6813F4800F12D01C4BEA
:102758005968C1F3881100231A48A1FB0001FDF74D
:102768004FFD174B5B68C3F3014301335B00B0FBBC
:10277800F3F023E0124B5B68C3F388135C01002578
:10278800E41A65F10005AE0146EA9466A701381B14
:1027980066EB0501CC0044EA5074C500E81844F122
:1027A80000018B0243EA9053840220461946002315
:1027B800FDF726FDD5E7034800E00348F8BD00BF54
:1027C8000038024040787D010024F400002800F021
:1027D800A08070B50D460446524B1B6803F00F03EA
:1027E8008B420BD24F4A136823F00F030B4313603D
:1027F800136803F00F038B4240F08D80236813F0B9
:10280800020F17D013F0040F04D0474A936843F41B
:10281800E0539360236813F0080F04D0424A93688A
:1028280043F460439360404A936823F0F003A1683F
:102838000B439360236813F0010F31D06368012BB9
:1028480020D0022B25D0384A126812F0020F64D02B
:1028580035498A6822F0030213438B60FEF760FF54
:102868000646314B9B6803F00C036268B3EB820F9A
:1028780016D0FEF755FF801B41F288339842F0D9F5
:10288800032045E0284A126812F4003FE0D10120F5
:102898003EE0254A126812F0007FD9D1012037E0C6
:1028A800204B1B6803F00F03AB420AD91D4A13687B
:1028B80023F00F032B431360136803F00F03AB429D
:1028C8002DD1236813F0040F06D0174A936823F418
:1028D800E053E1680B439360236813F0080F07D0B7
:1028E800114A936823F46043216943EAC103936062
:1028F800FFF71CFF0C4B9B68C3F303130B4AD35C15
:10290800D8400B4B18600B4B1868FEF757FE002099
:1029180070BD012070470120FAE70120F8E7012087
:10292800F6E700BF003C024000380240304600088D
:102938000000002008000020014B1868704700BF05
:102948000000002008B5FFF7F7FF044B9B68C3F3AE
:102958008223034AD35CD84008BD00BF0038024038
:10296800404600080F2303600B4B9A6802F00302ED
:1029780042609A6802F0F00282609A6802F4E052BB
:10298800C2609B68DB0803F4E0530361034B1B68D8
:1029980003F00F030B60704700380240003C024010
:1029A800F0B583B00446066816F001060DD0B64BA4
:1029B8009A6822F400029A609A68416B0A439A6006
:1029C800436B002B00F039810026256815F400259B
:1029D80011D0AD4AD2F88C3023F44013E16B0B438D
:1029E800C2F88C30E36BB3F5801F00F02881002B10
:1029F80000F027810025236813F4801F0FD0A24A16
:102A0800D2F88C3023F44003216C0B43C2F88C308D
:102A1800236CB3F5800F00F0168103B901252368F4
:102A280013F0807F00D0012613F0200F40F00D81B5
:102A3800236813F0100F0CD0934BD3F88C2022F09E
:102A48008072C3F88C20D3F88C20A16B0A43C3F89A
:102A58008C20236813F4804F08D08B4AD2F890302A
:102A680023F44033616E0B43C2F89030236813F4AB
:102A7800004F08D0844AD2F8903023F44023A16E46
:102A88000B43C2F89030236813F4803F08D07E4A85
:102A9800D2F8903023F44013E16E0B43C2F8903023
:102AA800236813F4003F08D0774AD2F8903023F413
:102AB8004003216F0B43C2F89030236813F0400F96
:102AC80008D0714AD2F8903023F00303616C0B43AD
:102AD800C2F89030236813F0800F08D06A4AD2F801
:102AE800903023F00C03A16C0B43C2F8903023689C
:102AF80013F4807F08D0644AD2F8903023F0300372
:102B0800E16C0B43C2F89030236813F4007F08D0BF
:102B18005D4AD2F8903023F0C003216D0B43C2F810
:102B28009030236813F4806F08D0574AD2F8903059
:102B380023F44073616D0B43C2F89030236813F49B
:102B4800006F08D0504AD2F8903023F44063A16D4A
:102B58000B43C2F89030236813F4805F08D04A4AC8
:102B6800D2F8903023F44053E16D0B43C2F8903013
:102B7800236813F4005F08D0434AD2F8903023F456
:102B88004043216E0B43C2F89030236813F4800F42
:102B980008D03D4AD2F8903023F08063A16F0B43F0
:102BA800C2F89030236813F4001F0DD0364AD2F8CB
:102BB800903023F00063E16F0B43C2F89030E36F6D
:102BC800B3F1006F00F0AC80236813F0080F00D059
:102BD800012513F4802F08D02B4AD2F8903023F027
:102BE8004073616F0B43C2F89030236813F4000FF1
:102BF80009D0254AD2F8903023F08053D4F88010B9
:102C08000B43C2F8903026B9236813F0007F00F018
:102C180007811D4A136823F080631360FEF780FD67
:102C28000646194B1B6813F0006F7BD0FEF778FD42
:102C3800801B6428F5D90320F5E00126C5E60126A6
:102C4800D5E60125D7E60126E7E60F4B1A6C42F0D8
:102C580080521A641B6C03F080530193019B0B4A4A
:102C6800136843F480731360FEF75AFD0746074B59
:102C78001B6813F4807F0BD1FEF752FDC01B64283C
:102C8800F5D90320CFE000BF0038024000700040B3
:102C9800AB4B1B6F13F4407315D0226B02F44072D8
:102CA8009A4210D0A64B1A6F22F44072196F41F461
:102CB80080311967196F21F4803119671A671B6F02
:102CC80013F0010F12D1236B03F44072B2F5407F69
:102CD8001DD09B4A936823F4F813936098490B6FAF
:102CE800226BC2F30B0213430B67A1E6FEF718FD34
:102CF8000746934B1B6F13F0020FE4D1FEF710FD4C
:102D0800C01B41F288339842F3D903208BE08C48EA
:102D1800826822F4F8128B4919400A438260DDE781
:102D2800012551E7236813F0010F13D0636B8BB9AA
:102D3800834AD2F88430D2F88410606803F44033B0
:102D480043EA801301F070610B43A16843EA017301
:102D5800C2F88430236813F4002F03D0E26BB2F575
:102D6800801F06D013F4801F1ED0236CB3F5800F8C
:102D78001AD1734AD2F88430D2F88410606803F408
:102D8800403343EA8013E06843EA006301F0E0411E
:102D98000B43C2F88430D2F88C3023F01F03616AE9
:102DA80001390B43C2F88C30236813F0807F11D0AF
:102DB800634AD2F88400D2F88410666823691B0439
:102DC80043EA861300F07060034301F0E0410B43CF
:102DD800C2F88430236813F0007F0DD0626823693D
:102DE8001B0443EA8213E26843EA0263A26843EAE7
:102DF8000273534AC2F88430514A136843F080631F
:102E08001360FEF78DFC06464D4B1B6813F0006FF0
:102E180006D1FEF785FC801B6428F5D9032002E063
:102E2800012D02D0002003B0F0BD454A136823F0FD
:102E380080531360FEF774FC0546414B1B6813F082
:102E4800005F06D0FEF76CFC401B6428F5D9032010
:102E5800E9E7236813F4002F01D0E26B22B113F4E1
:102E6800801F1DD0236CDBB9354AD2F88830D2F8E0
:102E78008810606903F4403343EA8013A06943EA89
:102E8800006301F0E0410B43C2F88830D2F88C307F
:102E980023F4F853A16A013943EA0123C2F88C30BC
:102EA800236813F4001F03D0E36FB3F1006F31D030
:102EB800236813F0080F19D0214AD2F88810D2F8E5
:102EC8008830606903F4403343EA801301F070618D
:102ED8000B43E16943EA0173C2F88830D2F88C30B9
:102EE80023F44033E16A0B43C2F88C30144A136868
:102EF80043F080531360FEF713FC0446104B1B6825
:102F080013F0005F19D1FEF70BFC001B6428F5D9FC
:102F1800032088E70A4AD2F88800D2F88810656941
:102F2800236A1B0443EA851300F07060034301F031
:102F3800E0410B43C2F88830BAE7002073E700BFCE
:102F480000380240FFFCFF0F38B504460268D3681A
:102F580023F0A003D360FEF7E3FB05462368DB6894
:102F680013F0200F07D1FEF7DBFB401BB0F57A7F8B
:102F7800F4D9032000E0002038BD38B50368DA68CA
:102F880012F0400F01D0002038BD04464FF0FF3248
:102F9800DA60FEF7C5FB05462368DB6813F0400FCF
:102FA80007D1FEF7BDFB431BB3F57A7FF4D90320A5
:102FB800EAE70020E8E7000038B500285AD00446C0
:102FC800437F002B3FD0022363772368CA225A62CB
:102FD800236853225A622046FFF7CFFF0546002890
:102FE80035D122689168244B0B40936021688A6828
:102FF8006368206903436069034313438B60236854
:10300800E2681A6122681369A16843EA01431361FF
:103018002268D36823F08003D36023689B6813F089
:10302800200F1BD02268D36C23F00803D3642268D6
:10303800D36CA1690B43D3642368FF225A6201232E
:103048006377284638BD0377FEF756FABBE723684F
:10305800FF225A62042363770125F2E72046FFF72F
:1030680073FF0028DED02368FF225A6204236377A7
:103078000125E6E70125E4E7BFFF8FFF00230928C4
:1030880003D901330A38C0B2F9E71B01DBB2184390
:1030980070470000F8B5037F012B76D004460E4632
:1030A8000123037702234377002A45D103689B68ED
:1030B80013F0400F01D100230B733078FFF7DEFFC8
:1030C80005047078FFF7DAFF45EA0025B078FFF7C6
:1030D800D5FF0543307B45EA00452368CA225A627A
:1030E800236853225A622046FFF747FF0746002805
:1030F80034D12268264B2B4013602268936823F44E
:103108008023936021688B68326970690243134396
:103118008B602268D36823F08003D36023689B68A0
:1031280013F0200F23D02368FF225A62012363770C
:10313800002323773846F8BD03689B6813F0400FD7
:1031480001D100230B73337875782D0245EA0345C6
:10315800B0780543307B45EA0045BEE72368FF2287
:103168005A6204236377002323770127E2E7204686
:10317800FFF7EAFE0028D6D02368FF225A6204230C
:103188006377002323770127D4E70227D2E700BF1C
:103198007F7F7F0070B5037F012B64D004460E4605
:1031A80001230377022343773AB94B7813F0100FC2
:1031B80003D003F0EF030A334B70002A31D1F078C3
:1031C800FFF75CFF05047078FFF758FF45EA002514
:1031D800B078FFF753FF0543307845EA4035236858
:1031E800CA225A62236853225A622046FFF7C5FE54
:1031F800064608BB22681D4B2B4053602268D368E3
:1032080023F08003D36023689B6813F0200F1CD041
:103218002368FF225A62012363770023237730460D
:1032280070BDF37875782D0245EA0345B0780543FB
:10323800307845EA4035D2E72368FF225A620423F2
:103248006377002323770126E9E72046FFF77CFE12
:103258000028DDD02368FF225A6204236377002305
:1032680023770126DBE70226D9E700BF3FFFFF00EF
:10327800F8B5037F012B00F0A98004460D46012311
:10328800037702234377002A4DD103689B6813F024
:10329800400F01D100230B732E6A2878FFF7EEFE4A
:1032A80007046878FFF7EAFE47EA0027A878FFF7DF
:1032B800E5FE0743287B47EA004795F82400FFF717
:1032C800DDFE47EA00673743AE693E436F68EB6946
:1032D8001F432368CA225A62236853225A62AB6A80
:1032E800B3F5807F39D02268936823F40073936024
:1032F8002268936823F400539360FEF711FA054699
:103308002368DA6812F0020F50D1FEF709FA401B61
:10331800B0F57A7FF4D92368FF225A6203206077D8
:103328000023237751E003689B6813F0400F01D115
:1033380000230B732E6A2A786B781B0243EA024338
:10334800AA7813432A7B43EA024395F8242043EAE8
:1033580002631E43AB691E43B8E72268936823F4EF
:10336800807393602268936823F480539360FEF718
:10337800D7F905462368DA6812F0010F0DD1FEF778
:10338800CFF9401BB0F57A7FF4D92368FF225A623F
:10339800032060770023237717E0DE6123685F64EA
:1033A8002268936843F48073936007E01E62236881
:1033B8009F642268936843F4007393602368FF2234
:1033C8005A620123637700202077F8BD0220FCE7CA
:1033D800037F012B28D070B401240477022343779C
:1033E8000568AE68A3F60B0333401943CA236B6222
:1033F800036853255D620568EB6C23F00603EB64F4
:103408000568EB6C1A43EA6403689960026893687C
:1034180043F4006393600368FF225A6244770023F1
:103428000377184670BC70470220704770B582B0A9
:10343800044600230193006800F0F0FF054610B130
:10344800284602B070BD206800F0FBFF38B90123A0
:10345800A364A36C012B0BD02E46284614E000234E
:10346800A364206800F0DAFF0028F2D00546E7E7F9
:103478000021206800F0FCFF0028EDD04FF08055B7
:10348800DEE7019B01330193019A4FF6FE739A42DE
:1034980013D896B90021206800F0EAFFE0B9124974
:1034A800206800F0FDFF0646C0B90021206800F042
:1034B80076FEC30FE5D01E46E3E7019A4FF6FE738A
:1034C8009A420ED810F0804302D001236364B7E714
:1034D800002262641D46B3E70546B1E74FF0805508
:1034E800AEE74FF08075ABE7000010C1F0B589B0CA
:1034F80004460F46FEF714F906460023009301938D
:103508000821206800F05AFF054610B1284609B086
:10351800F0BD216D0904206800F0AAFF05460028C7
:10352800F4D14FF0FF33029308230393302304931D
:1035380002230593002306930123079302A9206819
:1035480000F02AFF206800F0DDFF054658B1DDE7EE
:1035580000F000FE4DF825000135FEF7E1F8831B69
:10356800B3F1FF3F3FD02068436B13F02A0F07D118
:10357800436B13F4001FEBD1436B13F4005FECD1E2
:10358800436B13F0080F25D1436B13F0020F24D1BE
:10359800456B15F0200523D140F23A538363019A15
:1035A800130203F47F0343EA0263110A01F47F4123
:1035B8000B4343EA12633B60009A130203F47F0350
:1035C80043EA0263110A01F47F410B4343EA1263A1
:1035D8007B609BE70825856398E70225856395E767
:1035E8002025856392E74FF000458FE710B582B03C
:1035F8000446002100910191006800F0D0FD10F010
:10360800007F13D169462046FFF770FF80B9019B00
:1036180013F4802F0ED0216D0904206800F028FFD4
:1036280030B90221206800F055FF01E04FF4006036
:1036380002B010BD4FF08060FAE710B582B00446C2
:10364800002100910191006800F0A9FD10F0007FB1
:1036580013D169462046FFF749FF80B9019B13F44F
:10366800803F0ED0216D0904206800F001FF30B9B9
:103678000021206800F02EFF01E04FF4006002B046
:1036880010BD4FF08060FAE710B4436E9B0F0B70CB
:10369800436EC3F383634B7090F8673003F0030302
:1036A8008B7090F86630CB7090F865300B7190F89D
:1036B80064304B71836E1B0DCB80B0F86A3003F019
:1036C8000F030B72836EC3F3C0334B72836EC3F365
:1036D80080338B72836EC3F34033CB72836EC3F334
:1036E80000330B7300234B73436C002B40F088802E
:1036F800826E40F6FC7303EA8203C26E43EA927359
:103708000B61C36EC3F3C2630B7590F86F3003F09F
:1037180007034B75C36EC3F342538B75C36EC3F374
:103728008243CB75C36EC3F3C2330B760B69013387
:1037380043650A7E02F00702023203FA02F242658A
:103748000B7A03F00F040123A34083655B0A03FB94
:1037580002F3C3654FF400730366C36EC3F380338B
:103768004B76C36EC3F3C6138B76C36E03F07F0329
:10377800CB76036FDB0F0B77036FC3F341734B7784
:10378800036FC3F382638B77036FC3F38353CB77E2
:10379800036FC3F3405381F82030002381F82130B0
:1037A800B0F8722002F0010281F82220026FC2F301
:1037B800C03281F82320026FC2F3803281F82420BE
:1037C800026FC2F3403281F82520026FC2F3003243
:1037D80081F82620026FC2F3812281F82720026F28
:1037E800C2F3012281F82820026FC2F3460281F851
:1037F8002920012281F82A2018465DF8044B7047D9
:10380800012B11D1836E1B0403F47C13B0F86E20D6
:1038180013430B610B6901339B024365C3654FF486
:1038280000738365036698E70368054A9A63836BA8
:1038380043F080538363012380F834301846DCE773
:10384800FF05400070B590B004460123ADF8123072
:10385800006800F08AFC00286CD0636C032B45D10B
:10386800636C032B5DD1636C032B1DD0BDF8121064
:1038780021650904206800F072FE054600285BD126
:103888000021206800F08BFC60660421206800F0AD
:1038980086FCA0660821206800F081FCE0660C2107
:1038A800206800F07CFC20670421206800F077FC89
:1038B800000DE06405A92046FFF7E6FE00283ED18A
:1038C800226D12040023206800F090FD054698BB85
:1038D800234653F8106B93E807008DE8070004347B
:1038E80094E80E00304600F019FC25E0206800F04E
:1038F80021FE054600BB0021206800F050FC6067EF
:103908000421206800F04BFCA0670821206800F023
:1039180046FCE0670C21206800F041FCC4F88000F8
:103928009EE70DF11201206800F02EFE05460028E2
:1039380099D001E04FF08065284610B070BD4FF077
:103948008055F9E730B58BB00446002304930593FE
:10395800069307930893762309930AAB13E90700A4
:103968008DE8070004AB0ECB206800F0D7FB18B138
:10397800012528460BB030BD05462268536823F45C
:1039880080735360206800F0E8FB2268536843F4B2
:10399800807353602046FFF749FD30B1012584F854
:1039A8003450A36B0343A363E3E72046FFF74AFFC2
:1039B80030B1012584F83450A36B0343A363D8E7DF
:1039C8004FF40071206800F0F9FC0028D1D023687A
:1039D80004499963A36B0343A363012584F8345016
:1039E800C7E700BFFF054000A8B110B5044690F82E
:1039F800343063B1032384F834302046FFF7A2FF44
:103A080058B9A0632063012384F8343010BD0377CC
:103A1800FDF782FDEEE7012070470120F6E7000080
:103A280030B58BB004460D46032380F83430436C20
:103A3800032B1CD0B1F5805F08D0B1F5006F0AD018
:103A480079B1836B43F00063836314E0836B43F0C5
:103A5800805383630FE0FFF7C9FDA36B0343A363A0
:103A680009E0FFF7EAFDA36B0343A36303E0836B5D
:103A780043F080538363A36BC3B12368174A9A63E7
:103A8800012584F834504FF40071206800F096FC4A
:103A980030B1236811499963A36B0343A3630125DC
:103AA800012384F8343028460BB030BD6368049392
:103AB800A3680593E3680693079563690893A36968
:103AC80009930AAB13E907008DE8070004AB0ECB96
:103AD800206800F023FB0025D5E700BFFF05400064
:103AE800E0B138B50D46044690F82C308BB102236E
:103AF80084F82C30214651F8040B00F0E7F962688D
:103B08002946206800F01CFA012384F82C30002094
:103B180038BD80F82D30FDF74DFDE8E701207047EE
:103B28007047000090F83D30DBB2012B3AD10223F8
:103B380080F83D300268D36843F00103D36003681E
:103B48001A4AB3F1804F18BF93421DD0A2F57C42A8
:103B5800934219D002F58062934215D002F5806233
:103B6800934211D002F5784293420DD002F570527B
:103B7800934209D0A2F59432934205D01A6842F0D4
:103B880001021A60002070479968094A0A40062A0B
:103B980018BFB2F5803F07D01A6842F001021A60D8
:103BA8000020704701207047002070470000014046
:103BB80007000100704770477047704710B504460A
:103BC80003681A6912F0020F11D0DA6812F0020FB6
:103BD8000DD06FF002021A610123037703689B6915
:103BE80013F0030F79D0FFF7E6FF0023237723684C
:103BF8001A6912F0040F12D0DA6812F0040F0ED00E
:103C08006FF004021A610223237723689B6913F477
:103C1800407F68D02046FFF7CEFF00232377236834
:103C28001A6912F0080F12D0DA6812F0080F0ED0D5
:103C38006FF008021A61042323772368DB6913F005
:103C4800030F57D02046FFF7B6FF002323772368DA
:103C58001A6912F0100F12D0DA6812F0100F0ED095
:103C68006FF010021A61082323772368DB6913F4C5
:103C7800407F46D02046FFF79EFF00232377236826
:103C88001A6912F0010F03D0DA6812F0010F3FD160
:103C980023681A6912F0800F03D0DA6812F0800FD7
:103CA8003DD123681A6912F4807F03D0DA6812F0D4
:103CB800800F3BD123681A6912F0400F03D0DA68ED
:103CC80012F0400F39D123681A6912F0200F03D07F
:103CD800DA6812F0200F37D110BDFFF76BFF2046CE
:103CE800FFF76AFF81E72046FFF764FF2046FFF7EA
:103CF80063FF92E72046FFF75DFF2046FFF75CFF72
:103D0800A3E72046FFF756FF2046FFF755FFB4E725
:103D18006FF001021A612046FDF736F8B8E76FF038
:103D280080021A61204600F0CEF8BAE76FF480727C
:103D38001A61204600F0C8F8BCE76FF040021A612B
:103D48002046FFF73AFFBEE76FF020021A612046CF
:103D580000F0B8F8C0E7000070B403683A4CA0421D
:103D680014BF00240124B0F1804F14BF224644F050
:103D78000102AAB9354DA84214BF00250125344EC9
:103D8800B0420DD065B905F1804505F58235A842E8
:103D980014BF0025012506F50066B04200D01DB10C
:103DA80023F070034D682B43002A33D1274A9042F1
:103DB80014BF00220122264DA8422BD052BB02F18B
:103DC800804202F58232904214BF0022012205F59A
:103DD8000065A8421ED0EAB91E4A904214BF0022CC
:103DE800012205F59A35A84214D09AB91A4A904288
:103DF80014BF0022012205F50065A8420AD04AB97D
:103E0800164A904214BF00220122A5F59635A84211
:103E180000D01AB123F44073CA68134323F0800317
:103E28004A69134303608A68C2620A6882620C4B5B
:103E3800984214BF234644F001030BB10B69036396
:103E48000123436170BC7047000001400008004036
:103E580000040040004401400018004000200040D9
:103E68000004014060B310B5044690F83D3013B328
:103E7800022384F83D30214651F8040BFFF76CFF0C
:103E8800012384F8483084F83E3084F83F3084F8C1
:103E9800403084F8413084F8423084F8433084F864
:103EA800443084F8453084F8463084F8473084F844
:103EB8003D30002010BD80F83C30FFF731FED7E7D9
:103EC80001207047704770477047000030B40B6896
:103ED800012B18D00368194A1A404B688C68234391
:103EE800CC6823430C6923434C6923438C692343DF
:103EF800CC6923430C6A2343496A0B431343036089
:103F0800002030BC7047046824F4F844CB690A6A7E
:103F18001A434B6A1A4322434368084C1C404B68B7
:103F28008D682B43CD682B430D692B434D692B437B
:103F380089690B43234302604360E1E70080FFFF88
:103F480030B4012A21D0826802F070420B68013B2C
:103F58004C68013C43EA04138C68013C43EA04239F
:103F6800CC68013C43EA04330C69013C43EA04434E
:103F78004C69013C43EA04538969013943EA016306
:103F880013438360002030BC70478368114C1C4089
:103F9800CA68551E4B695A1E120542EA0532224369
:103FA800C46804F070440B68013B4D68013D43EA66
:103FB80005138D68013D43EA05230D69013D43EA78
:103FC80005438969013943EA016323438260C36079
:103FD800D8E700BFFF0F0FFF0B4B1B680B4AA2FB74
:103FE80003235A0A41F2883303FB02F31A46013BC2
:103FF8003AB1426B12F0800FF8D0C52383630020DA
:1040080070474FF00040704700000020D34D621009
:104018000146144B1B68144AA2FB03235A0A41F2B7
:10402800883303FB02F31A46013BBAB14A6B12F01C
:10403800450FF8D012F4006FF5D14B6B13F0040F55
:1040480006D1486B10F0010005D1C5238B6370477A
:104058000420886370470120886370474FF0004050
:10406800704700BF00000020D34D62100146104B7E
:104078001B68104AA2FB03235A0A41F2883303FB48
:1040880002F31A46013B82B14A6B12F0450FF8D091
:1040980012F4006FF5D1486B10F0040002D1C5236B
:1040A8008B6370470420886370474FF00040704767
:1040B80000000020D34D62100146164B1B68164ABB
:1040C800A2FB03235A0A41F2883303FB02F31A4680
:1040D800013BE2B14A6B12F0450FF8D012F4006FC1
:1040E800F5D14B6B13F0040F0BD14B6B13F001039D
:1040F8000AD1486B10F040000BD040228A63184662
:1041080070470420886370470120886370474FF028
:104118000040704700000020D34D621084B010B4F6
:1041280002AC84E80E000B46039A1343049A134327
:10413800059A1343069A1343079A13434168044A9E
:104148000A401343436000205DF8044B04B07047F5
:104158000081FFFFD0F88000704708B50323036093
:104168000220FDF7E3FA002008BD006800F0030014
:10417800704700000B6883604B688A681343CA68FD
:1041880013430A691343C168024A0A401343C360D0
:104198000020704700F0FFFF0069C0B2704714307C
:1041A8004058704738B504460D46504B1B68504977
:1041B800A1FB03135B0A02FB03F21346013A002B2F
:1041C8005DD0636B13F0450FF7D013F4006FF4D193
:1041D800636B13F0040F06D1636B13F0010F05D066
:1041E8000120A0634DE00420A0634AE0C523A36337
:1041F8002046FFF7D1FFA84201D0012041E000216D
:104208002046FFF7CCFF03463A481840C8B3002BB6
:1042180038DB13F0804F38D113F0005F37D113F03B
:10422800805F36D113F0006F36D113F0806F36D12E
:1042380013F0807F36D113F4000F36D113F4800FBA
:1042480036D113F4001F36D113F4801F36D113F47E
:10425800802F36D113F4003F36D113F4803F36D186
:1042680013F4004F36D113F4804F36D113F4005FA6
:1042780036D113F0080F36D04FF4000001E04FF0AC
:10428800004038BD4FF00070FBE74020F9E7802080
:10429800F7E74FF48070F4E74FF40070F1E74FF45C
:1042A8008060EEE74FF40060EBE74FF48050E8E7FA
:1042B8004FF40050E5E74FF48040E2E74FF4004048
:1042C800DFE74FF40030DCE74FF48020D9E74FF404
:1042D8000020D6E74FF48010D3E74FF40010D0E762
:1042E8004FF48000CDE74FF48030CAE7000000208B
:1042F800D34D621008E0FFFDF8B505460E46174697
:10430800234B1B682348A0FB0323580A41F2883338
:1043180003FB00F31C46013B8CB36C6B14F0450F98
:10432800F8D014F4006FF5D16B6B13F0040F06D1BD
:104338006B6B13F0010F05D00120A86321E0042066
:10434800A8631EE02846FFF727FFB04201D00120EE
:1043580017E0C523AB6300212846FFF720FF03467B
:1043680010F4604008D013F4804F0BD113F4004FC1
:104378000BD04FF4805004E01B0C3B8001E04FF061
:104388000040F8BD4FF40050FBE74FF48030F8E7E9
:1043980000000020D34D62100B6843624B688362B3
:1043A8008B68CA6813430A6913434A691343C26A8C
:1043B80022F0F7021343C3620020704730B587B07C
:1043C800044601911025029540230393002304938A
:1043D8004FF48063059301A9FFF7CCFE41F28832C0
:1043E80029462046FFF7DEFE07B030BD30B587B05E
:1043F8000446019207250295402303930023049362
:104408004FF48063059301A9FFF7B4FE41F28832A7
:1044180029462046FFF7C6FE07B030BD10B586B066
:104428000446002301930293039304934FF480639B
:10443800059301A9FFF79EFE2046FFF7CDFD06B0C4
:1044480010BD10B586B004464FF4D5730193082308
:10445800029340230393002304934FF4806305934E
:1044680001A9FFF787FE2046FFF726FE06B010BD1C
:1044780030B587B004460191372502954023039350
:10448800002304934FF48063059301A9FFF772FE9C
:1044980041F2883229462046FFF784FE07B030BD36
:1044A80010B586B004460A4B0B43019329230293A7
:1044B80040230393002304934FF48063059301A9D9
:1044C800FFF758FE2046FFF7D1FD06B010BD00BF2C
:1044D8000000108030B587B004460191062502958A
:1044E80040230393002304934FF48063059301A9A9
:1044F800FFF740FE41F2883229462046FFF752FE78
:1045080007B030BD30B587B004460023019333258A
:1045180002954022039204934FF48063059301A906
:10452800FFF728FE41F2883229462046FFF73AFE77
:1045380007B030BD10B586B00446002301930222AF
:104548000292C022039204934FF48063059301A959
:10455800FFF710FE2046FFF75BFD06B010BD10B553
:1045680086B00446019109230293C02303930023D4
:1045780004934FF48063059301A9FFF7FBFD2046E0
:10458800FFF746FD06B010BD70B586B004460D466F
:1045980000230193032602964022039204934FF4CA
:1045A8008063059301A9FFF7E5FD2A4631462046B9
:1045B800FFF7A2FE06B070BD70B50D4D0D4C641B23
:1045C800A4100026A64209D10B4D0C4C00F020F88F
:1045D800641BA4100026A64205D170BD55F8043B03
:1045E80098470136EEE755F8043B98470136F2E75D
:1045F8005046000850460008504600085446000837
:1046080002440346934200D1704703F8011BF9E7BF
:10461800F8B500BFF8BC08BC9E467047F8B500BFA7
:08462800F8BC08BC9E46704777
:104630000000000000000000010203040607080952
:08464000000000000102030468
:08464800F0BBFF7F0100000040
:04465000ED01000870
:04465400C901000890
:0C4658000024F40001000000100000002D
:040000050800169940
:00000001FF
