:020000040800F2
:1000000000000520411A0008E9190008EB19000852
:10001000ED190008EF190008F119000800000000B0
:10002000000000000000000000000000F3190008BC
:10003000F519000800000000F7190008F919000878
:10004000911A0008911A0008911A0008911A0008E4
:10005000911A0008911A0008911A0008911A0008D4
:10006000911A0008911A0008911A0008911A0008C4
:10007000911A0008911A0008911A0008911A0008B4
:10008000911A0008911A0008911A0008911A0008A4
:10009000911A0008911A0008911A0008911A000894
:1000A000911A0008911A0008911A0008911A000884
:1000B000911A0008911A0008911A0008911A000874
:1000C000911A0008911A0008911A0008911A000864
:1000D000911A0008911A0008911A0008911A000854
:1000E000911A0008911A0008911A0008911A000844
:1000F000911A0008911A0008911A0008911A000834
:10010000911A0008911A0008911A0008911A000823
:10011000911A0008911A0008FD190008911A0008A8
:10012000911A0008911A0008911A0008911A000803
:10013000911A0008911A0008911A0008911A0008F3
:10014000911A0008911A0008911A0008911A0008E3
:10015000911A0008911A0008911A0008911A0008D3
:10016000911A0008911A0008911A0008911A0008C3
:10017000911A0008911A0008911A00080000000066
:10018000911A0008911A0008911A0008911A0008A3
:10019000911A0008911A0008911A0008911A000893
:1001A0000D1A0008911A00081D1A0008911A00087B
:1001B000911A0008911A0008911A0008911A000873
:0801C000911A0008911A0008D1
:1001C80010B5054C237833B9044B13B10448AFF389
:1001D80000800123237010BD0C00002000000000E7
:1001E800743D000808B5034B1BB103490348AFF33E
:1001F800008008BD0000000010000020743D0008C9
:1002080053B94AB9002908BF00281CBF4FF0FF3175
:100218004FF0FF3000F074B9ADF1080C6DE904CE71
:1002280000F006F8DDF804E0DDE9022304B07047C9
:100238002DE9F047089D04468E46002B4DD18A4291
:10024800944669D9B2FA82F252B101FA02F3C2F1C4
:10025800200120FA01F10CFA02FC41EA030E944055
:100268004FEA1C48210CBEFBF8F61FFA8CF708FB76
:1002780016E341EA034306FB07F199420AD91CEB4E
:10028800030306F1FF3080F01F81994240F21C8180
:10029800023E63445B1AA4B2B3FBF8F008FB1033C8
:1002A80044EA034400FB07F7A7420AD91CEB0404FD
:1002B80000F1FF3380F00A81A74240F207816444CD
:1002C800023840EA0640E41B00261DB1D440002352
:1002D800C5E900433146BDE8F0878B4209D9002DB6
:1002E80000F0EF800026C5E9000130463146BDE840
:1002F800F087B3FA83F6002E4AD18B4202D38242AA
:1003080000F2F980841A61EB030301209E46002D58
:10031800E0D0C5E9004EDDE702B9FFDEB2FA82F2AD
:10032800002A40F09280A1EB0C014FEA1C471FFA0B
:100338008CFE0126200CB1FBF7F307FB131140EAF2
:1003480001410EFB03F0884208D91CEB010103F1BF
:10035800FF3802D2884200F2CB804346091AA4B281
:10036800B1FBF7F007FB101144EA01440EFB00FE55
:10037800A64508D91CEB040400F1FF3102D2A645BA
:1003880000F2BB800846A4EB0E0440EA03409CE759
:10039800C6F12007B34022FA07FC4CEA030C20FA06
:1003A80007F401FA06F31C43F9404FEA1C4900FA26
:1003B80006F3B1FBF9F8200C1FFA8CFE09FB1811A3
:1003C80040EA014108FB0EF0884202FA06F20BD916
:1003D8001CEB010108F1FF3A80F08880884240F266
:1003E8008580A8F102086144091AA4B2B1FBF9F0AA
:1003F80009FB101144EA014100FB0EFE8E4508D9A5
:100408001CEB010100F1FF346CD28E456AD9023829
:10041800614440EA0840A0FB0294A1EB0E01A1420E
:10042800C846A64656D353D05DB1B3EB080261EB7C
:100438000E0101FA07F722FA06F3F1401F43C5E956
:10044800007100263146BDE8F087C2F12003D8408C
:100458000CFA02FC21FA03F3914001434FEA1C47CE
:100468001FFA8CFEB3FBF7F007FB10360B0C43EAC0
:10047800064300FB0EF69E4204FA02F408D91CEB70
:10048800030300F1FF382FD29E422DD9023863446E
:100498009B1B89B2B3FBF7F607FB163341EA03410E
:1004A80006FB0EF38B4208D91CEB010106F1FF385D
:1004B80016D28B4214D9023E6144C91A46EA004654
:1004C80038E72E46284605E70646E3E61846F8E6E6
:1004D8004B45A9D2B9EB020864EB0C0E0138A3E72F
:1004E8004646EAE7204694E74046D1E7D0467BE710
:1004F800023B614432E7304609E76444023842E788
:10050800704700BF014B1860704700BF28000020EB
:10051800002305E0044A126881B222F8131001335F
:10052800B3F5FF3FF6DB70472800002070B504469E
:100538001046049E4D1E03F1FF3E0EE0094909686E
:1005480001FB0E31084A12681FFA84FC22F811C018
:1005580001339842F2D80EF1010E764501D92B46A7
:10056800F7E770BD5000002028000020044B1B68EE
:1005780003FB0100034B1B6892B223F8102070475D
:10058800500000202800002000B5C0F30743C3EB4B
:100598004313124981FB03C21A44DB17C3EBE2126F
:1005A800C0F30723C3EB831381FB03EC9C44DB17E5
:1005B800C3EBEC13C0B2C0EB401081FB00C1014497
:1005C800C017C0EBE110C0B2DBB240EA4310D2B2B0
:1005D80040EAC22080B25DF804FB00BF81808080C1
:1005E800014B5878704700BF8C3D0008F8B50546A8
:1005F8000C4617461E46FFF7F3FFC0B20A4B9A781F
:100608009DF820C0ACEB020C5FFA8CFC0CF1040CDA
:1006180013F80C301D443D8004443480069A13704E
:10062800079B1870F8BD00BF8C3D000802460023E8
:10063800184606E05208062B01D84000C0B2013324
:10064800DBB2072B05D812F0010FF3D040F0010000
:10065800F0E7704708B54268204B1A608268204B63
:100668001A60027B1F4B1A7001691F4B19604169A0
:100678001E4B196081691E4B1960C1691D4B1960B9
:10068800016A1D4B1960416A1C4B196090F82810CB
:100698001B4B1970C16A1B4B1960016B1A4B19600F
:1006A800416B1A4B1960816B194B1960C16B194B5F
:1006B8001960016C184B1960416C184B1960816CFA
:1006C800174B1960C16C174B1960016D164B1960F7
:1006D800417B0068FFF716FF08BD00BF4C000020F3
:1006E800500000204800002070000020600000201A
:1006F80064000020680000206C00002078000020C2
:10070800740000203C000020380000204000002039
:1007180044000020580000205C0000205400002005
:100728002C000020300000203400002010B50446C2
:100738000C4B1B7843B10B4B1B78012B09D0094B91
:100748001B78022B0AD010BDFFF71EFFFFF7E0FE53
:10075800F1E744F07F40FFF7DBFEF0E72046FFF7C4
:10076800D7FEF0E748000020F0B583B007461546ED
:100778001E460C1E03DD2B4B1B689C4205D9002D21
:100788002BDD284B1B689D4227D8002E03DD264B06
:100798001B689E4207D9089B002B1EDD224B1B6855
:1007A800089A9A4219D8002C19DD1E4B1B689D42E5
:1007B80000D91C46002E14DD1B4B1B68089A9A4270
:1007C80000D91E46194B1B786BB1184B1B78012BAF
:1007D80014D0164B1B78022B1AD003B0F0BD01249D
:1007E800E3E70126E8E73846FFF7CEFE089B0093CB
:1007F80033462A462146FFF799FEE6E7089B009311
:1008080033462A46214647F07F40FFF78FFEE0E750
:10081800089B009333462A46214647F07F40FFF75E
:1008280085FEDAE7500000204C0000204800002038
:1008380010B582B09DF810400CB902B010BD013C53
:1008480053FA84F40094FFF78FFFF6E710B582B0EF
:100858009DF810400CB902B010BD013C009313463E
:1008680051FA84F2FFF780FFF5E72DE9F04F83B0E6
:100878000546084616461C46BDF93090BDF934A019
:100888009DF8388008F1FF37FFB2CDF800A04B463D
:1008980022463146FFF768FFCDF800804B462246D6
:1008A80031462846FFF7C4FF1FFA87FBAAEB070368
:1008B800CDF800801BB2224631462846FFF7B8FF24
:1008C800CDF8008053464A4631462846FFF7BEFF1A
:1008D800A4EB0B01CDF8008053464A4609B22846DE
:1008E800FFF7B4FF03B0BDE8F08F00002DE9F04F2B
:1008F80085B0814601910392774A92F801A09078D9
:10090800181AC0B2D6780436031DD75C042201E059
:10091800013292B2C31C93421EDB6F4B9B5C082BC7
:1009280001D85644B6B2A3F10901C9B2072902D8C1
:1009380006EB4A06B6B2A3F11101C9B2072903D8DA
:100948000AEB4A010E44B6B2193BDBB2072BDFD8DB
:1009580006EB8A06B6B2DBE7DDF804B00025A84648
:10096800CDF808A038E05D4B1B78012B22D05B4BFB
:100978001B78022B26D06D000134A4B2A24609EBE5
:1009880007039C4224DA002DF5DA554B1B689B457A
:10099800F1D2544B1B689C42EDD2504B1B78002B74
:1009A800E1D10398FFF7F0FD024600995046FFF7A2
:1009B800DDFDD8E7039B43F07F4200995046FFF7DF
:1009C800D5FDD4E7039A00995046FFF7CFFDD2E74B
:1009D8000BF1010B1FFA8BFBCDF800B0019B029ABB
:1009E80013449B4575DA082F0AD806EB08033A4AE0
:1009F800D05CFFF71BFE050608F101081FFA88F80E
:100A0800A7F10903DBB2072B13D808EB0603324D15
:100A1800E85CFFF70BFE08F10103040216FA83F302
:100A2800E85CFFF703FE2043050408F102081FFAFB
:100A380088F8A7F11103DBB2072B1DD808EB0603D2
:100A4800254DE85CFFF7F2FD08F10103040216FAF0
:100A580083F3E85CFFF7EAFD044308F1020324028C
:100A680016FA83F3E85CFFF7E1FD40EA04052D027E
:100A780008F103081FFA88F8A7F11903DBB2072B5E
:100A880025D808EB0603144DE85CFFF7CFFD08F105
:100A98000103040216FA83F3E85CFFF7C7FD044379
:100AA80008F10203240216FA83F3E85CFFF7BEFD9F
:100AB800044308F10303240216FA83F3E85CFFF702
:100AC800B5FD40EA040508F104081FFA88F84C4609
:100AD80054E705B0BDE8F08F8C3D000848000020C1
:100AE8004C000020500000202DE9F04F8BB00791FA
:100AF8000593BDF85080189E0024ADF82640ADF847
:100B080024408DF823408DF8224002EB08091FFA93
:100B180089F908EB00039BB2069301E00134A4B203
:100B2800335D002BFAD15FFA88F30293BDF91430D4
:100B3800019312B20092BDF91C3002B216991598B1
:100B4800FFF793FE1CB9DDF818B000251BE03378D9
:100B580002930DF1220301930DF12303009309ABD6
:100B68000DF1260249460698FFF740FDEBE7179A74
:100B780049465846FFF7BAFEBDF826B002E0D1460E
:100B8800DDF818B00135AC4233DD7719725D0A2AF9
:100B980014BF002301231F2A88BF43F00103002B41
:100BA800F0D002920DF1220301930DF1230300937B
:100BB80009AB0DF1260249465846FFF717FDBDF867
:100BC80024A0059BA3EB08039A45DBDA3B780A2BA4
:100BD800D5D0BDF82610079AA2EB08029142C6DDCF
:100BE800179A5146DDF818B05846FFF77FFED146F0
:100BF800C8E70BB0BDE8F08F30B587B02B4C0022AA
:100C080022734FF4887363604FF4F073A360012379
:100C18006373274921604FF47F032361254B636188
:100C2800FF23A3612448E0616FF07F402062626285
:100C3800022084F828002148E062214D2563214DD7
:100C48006563A263E263206463644FF41943A36499
:100C58001D4BE36403F1661303F5CC4323651B487E
:100C680001F0CAFC2046FFF7F5FC1AE0A3B25900D0
:100C780089B2174A0492662203926FF07F42029269
:100C88004FF47F0201920322009201221046FFF7DF
:100C98002BFF4FF4967000F01DFF0134B4F5877FE9
:100CA800E4DB0020FFF742FD0124F7E77CFC03208A
:100CB8007C000020FF666600FFCCCC00404040006E
:100CC800C0C0C0006060600099004C005CFD03205B
:100CD800345A000810B584B000240094019402949A
:100CE800039400F061FF01238DF800308DF8014076
:100CF8000D4A019211228DF808208DF809408DF8CF
:100D08000A4003228DF80B208DF80C408DF80D4019
:100D18008DF80E308DF80F40684600F063FF042010
:100D280000F050FF04B010BD040000202DE9F04F82
:100D380091B000240B940C940D940E940F94AA4B2C
:100D48001A6B42F010021A631A6B02F0100200923A
:100D5800009A1A6B42F040021A631A6B02F04002C2
:100D68000192019A1A6B42F002021A631A6B02F09E
:100D780002020292029A1A6B42F008021A631A6B74
:100D880002F008020392039A1A6B42F004021A63F3
:100D98001A6B02F004020492049A1A6B42F00102E0
:100DA8001A631A6B02F001020592059A1A6B42F453
:100DB80000721A631A6B02F400720692069A1A6B92
:100DC80042F480721A631A6B02F480720792079ACF
:100DD8001A6B42F480621A631A6B02F480620892FA
:100DE800089A1A6B42F020021A631A6B02F020026A
:100DF8000992099A1A6B42F080021A631B6B03F07E
:100E080080030A930A9B01222021784801F03CF9CB
:100E180022460C21764801F037F90122082175484D
:100E280001F032F901224FF48051714801F02CF998
:100E380022464FF40051704801F026F92246C82195
:100E48006E4801F021F908230B930C940D94DFF8F8
:100E5800B8910BA9484601F025F804230B93022505
:100E68000C950D9403260E9609230F930BA948465B
:100E780001F018F84FF4D0430B930C950D940E968F
:100E88000B230F930BA95D4801F00CF84FF4407346
:100E98000B9312230C930D940E9404230F93DFF8F5
:100EA8006CB10BA9584600F0FDFF43F623430B93A2
:100EB8000C950D940E964FF00A08CDF83C800BA9BE
:100EC800584600F0EFFF10230B930C950D940E94E9
:100ED8000F950BA9584600F0E5FF80230B930C955E
:100EE8000D940E9408230F930BA9404800F0DAFFE5
:100EF8004FF400430B930C950D940E9401270F9714
:100F0800DFF80CA10BA9504600F0CCFF60230B932F
:100F18000C950D940E940D230F930BA9484600F0E1
:100F2800C1FF80230B930C950D940E9407230F9308
:100F38000BA9584600F0B6FF40230B930C950D946F
:100F48000E96CDF83C800BA9584600F0ABFF4FF445
:100F580080530B930C940D940BA9294800F0A2FF21
:100F680040230B93274B0C930D940BA91F4800F0BB
:100F780099FF4FF4E0530B930C950D940E96CDF812
:100F88003C800BA9504600F08DFFF0230B930C9585
:100F98000D940E94CDF83C800BA9154800F082FF03
:100FA8004FF480630B930C950D940E94CDF83C8010
:100FB8000BA9124800F076FF20230B930C970D9491
:100FC8000E940BA9094800F06DFF08220B920C95AE
:100FD8000D940E940D220F920BA9044800F062FFA5
:100FE80041F20C030B9315E000380240000C02405C
:100FF8000020024000280240001C02400018024065
:1010080000240240000012100010024000040240B8
:10101800000002400C970D940E940BA98E4800F026
:1010280041FF4FF400520B920C940D94A9F50069FE
:101038000BA9484600F036FF08220B920C970D9436
:101048000E940BA9854800F02DFF4FF400720B9207
:101058000C950D940E940D220F920BA9804800F068
:1010680021FF10220B920C940D940BA97D4800F0DF
:1010780019FF48F204030B930C940D940BA97A48BA
:1010880000F010FF0B950C950D940E9405220F920D
:101098000BA9714800F006FF4FF400520B920C9711
:1010A8000D940E940BA9704800F0FCFE4FF4BC435D
:1010B8000B930C950D940E940D220F920BA96A4870
:1010C80000F0F0FE0B970C950D940E940F950BA95C
:1010D800614800F0E7FE4FF400720B920C950D94F6
:1010E8000E9407220F920BA9504600F0DBFE4FF436
:1010F80080730B930C950D940E940F970BA9504683
:1011080000F0D0FE4FF400520B92584B0C930D9404
:101118000BA9514800F0C6FEC0230B930C950D9403
:101128000E9608230F930BA9484600F0BBFE102328
:101138000B930C950D940E96CDF83C800BA94A485C
:1011480000F0B0FEC8230B930C970D940E940BA9D6
:10115800434800F0A7FE4FF4F8630B930C960D94E8
:101168000BA9434800F09EFE05230B930C950D94A4
:101178000E96CDF83C800BA9484600F093FE32232A
:101188000B930C950D940E960B230F930BA94846C1
:1011980000F088FE04230B930C950D940E960923FA
:1011A8000F930BA9584600F07DFE4FF460530B9344
:1011B8000C950D940E9609230F930BA9294800F05E
:1011C80071FE04230B930C940D940BA9244800F092
:1011D80069FE86230B930C950D940E960B230F93A3
:1011E8000BA9504600F05EFE0B970C960D940BA9C8
:1011F800504600F057FE50230B930C950D940E9417
:101208000D230F930BA9504600F04CFE28230B9397
:101218000C950D940E96CDF83C800BA9504600F025
:1012280041FE40230B930C950D940E9409230F93C4
:101238000BA90D4800F036FE4FF440430B930C9574
:101248000D940E9405230F930BA9584600F02AFE1F
:1012580011B0BDE8F08F00BF002002400028024016
:1012680000180240000C0240001C0240000012104E
:101278000014024008B50268034B9A4200D008BD2A
:1012880000F016FCFBE700BF0010004072B6FEE756
:1012980008B50C480C4B03600023436002228260AF
:1012A800C3608362C2620363436300F0CBFC28B966
:1012B8000121044800F094FD10B908BDFFF7E6FFCE
:1012C800FFF7E4FFD0FC032000B0024000B589B06E
:1012D80000230193029303930493059306930793C2
:1012E8001348144A0260436083600421C1601022DD
:1012F8000261402242614FF4C0728261C3614FF4BF
:10130800006202624FF480524262836202230193B8
:101318000622029203910492059306930793694467
:1013280002F073FA10B909B05DF804FBFFF7AEFFDD
:1013380024FE0320400100A008B51148114B0360AA
:10134800114B4360E02383600123C36000230361E2
:1013580043618361C361036200F09CFE50B90021C0
:10136800074800F0F5FE38B90021054800F01EFFD7
:1013780020B908BDFFF78AFFFFF788FFFFF786FF50
:1013880010FD0320005C0040FFEAC00000B58FB0EC
:101398003422002101A802F0E1FC2648264B036014
:1013A800002343608360C3600361282242610922ED
:1013B80082613522C2610B22026240F2152242622A
:1013C80040F21B12826240F23522C26240F21D12C4
:1013D800026380F8343080F8353080F8363000F019
:1013E800EDFF18BB002201924FF4F07102910392B5
:1013F8004FF48873049302200590FF20069007920B
:101408004FF480600890052009900A920B910C9384
:101418008DF834208DF835208DF8362001A905483F
:1014280001F0B6F820B90FB05DF804FBFFF72EFF06
:10143800FFF72CFF5CFD03200068014010B592B057
:1014480000240C940D940E940F94109411940B9402
:101458002C222146684602F081FC3148314B03605A
:1014680044607F238360FF23C36004614461846117
:1014780001F08EFF002847D100238DF830308DF819
:1014880031308DF832301093119301220CA9244881
:1014980001F0ECFF002839D101228DF82C208DF8BD
:1014A8002D208DF82E2000238DF82F300BA91C48F5
:1014B80002F05CF860BB00238DF800308DF8013035
:1014C8008DF80230019304930593069307930893CC
:1014D80001228DF824204FF480730A93694610483E
:1014E80002F0B2F8B0B94FF400730A9301226946CA
:1014F8000B4802F0A9F878B902220021084802F046
:1015080053F958B912B010BDFFF7C0FEFFF7BEFE81
:10151800FFF7BCFEFFF7BAFEFFF7B8FEFFF7B6FE0F
:1015280004FE03200028004000B5B5B03022002199
:1015380028A802F013FC00212391249125912691DB
:101548002791842202A802F009FC01F077F8334BB6
:101558001A6C42F080521A641B6C03F0805300939B
:10156800009B2F4B1A6842F440421A601B6803F430
:1015780040430193019B092328934FF48033299317
:1015880001232D9302232E934FF480022F921922C8
:1015980030924FF4C872319232930823339328A8BB
:1015A80001F092F8002831D101F050F800282FD12D
:1015B8000F23239302232493002325934FF4A0534E
:1015C80026934FF480532793062123A801F0E8FAC5
:1015D80000BB144B029364230793022309930893D7
:1015E80000230A9301220C924FF480320D924FF49B
:1015F80000720E921D934FF000622192229302A86E
:1016080001F0B8FB40B935B05DF804FBFFF73EFECA
:10161800FFF73CFEFFF73AFEFFF738FE00380240BE
:10162800007000402800A10008B5FFF753FB00F048
:101638002DFAFFF779FF4FF4FA7000F04BFAFFF735
:1016480075FBFFF725FEFFF741FEFFF775FEFFF775
:101658009DFEFFF7F3FEFFF7CFFAFCE7F0B587B082
:101668000023019302930393049305932A4B1B6869
:101678000BB107B0F0BD284B01221A60274B9A6BBB
:1016880042F001029A639B6B03F001030093009BF5
:101698004FF68373019302260296032504950C24C2
:1016A800059401A91E4800F0FDFB48F2331301938D
:1016B8000296002703970495059401A9194800F09C
:1016C800F1FB4CF20373019302960397049505947A
:1016D80001A9154800F0E6FB4FF63F030193029677
:1016E80003970495059401A9104800F0DBFB282313
:1016F8000193029603970495059401A90C4800F0FC
:10170800D1FB08230193029603970495059401A938
:10171800084800F0C7FBACE758FE03200038024039
:101728000010024000180240000C02400014024061
:10173800001C02400008024082B00A4B1A6C42F0BA
:1017480080521A641A6C02F080520092009A5A6C05
:1017580042F480425A645B6C03F480430193019B1A
:1017680002B070470038024002680E4B9A4200D01F
:10177800704700B583B0A3F5F0431A6B42F400023A
:101788001A631B6B03F400030193019B00221146AB
:101798005A2000F0C5F95A2000F0F8F903B05DF8B6
:1017A80004FB00BF00B0024010B588B000230393CB
:1017B80004930593069307930268144B9A4201D049
:1017C80008B010BD124C236B43F080032363236BD6
:1017D80003F080030193019B4FF4C073039312231A
:1017E800049301230593032306930423079303A972
:1017F800084800F057FB236C43F400032364236C70
:1018080003F400030293029BDAE700BF005C004088
:1018180000380240001C024070B58CB000230793CA
:10182800089309930A930B9302683E4B9A4201D09E
:101838000CB070BD03F550435A6C42F080625A6494
:101848005A6C02F080620192019A1A6B42F01002FF
:101858001A631A6B02F010020292029A1A6B42F48F
:1018680000721A631A6B02F400720392039A1A6BDD
:1018780042F480621A631A6B02F480620492049A3A
:101888001A6B42F040021A631A6B02F0400205928A
:10189800059A1A6B42F480721A631B6B03F4807307
:1018A8000693069B10230793022508950E260B9690
:1018B80007A91D4800F0F6FA4EF6FF73079308953E
:1018C800002409940A940B9607A9184800F0EAFA2C
:1018D800F7230793089509940A940B9607A91448C7
:1018E80000F0E0FA4FF480530793089509940A949E
:1018F80009230B9307A90F4800F0D4FA4FF4464385
:101908000793089509940A940B9607A90A4800F0CA
:10191800C9FA22462146582000F002F9582000F062
:1019280035F985E7006801400010024000240240B4
:101938000028024000180240002002400268054BBF
:101948009A4200D07047044A136F43F40043136768
:10195800F8E700BF002800400038024008B5FFF74C
:101968007DFE08BD00B589B001460022362000F092
:10197800D7F8362000F00AF9154B1A6C42F010021D
:101988001A641B6C03F010030193019B02A903A8BE
:1019980001F0D2F901F0C0F943000E48A0FB03237F
:1019A8009B0C013B0C480D4A026040F2E732C260D2
:1019B800436000230361836002F0EAF818B1012054
:1019C80009B05DF804FB044801F040FFF8E700BFE8
:1019D8000038024083DE1B435CFE032000100040F9
:1019E800FEE7FEE7FEE7FEE7FEE770477047704751
:1019F8007047000008B5024801F074FF08BD00BF39
:101A08005CFE032008B5024800F055FD08BD00BF84
:101A18005CFD032008B5024800F044F908BD00BF8A
:101A2800D0FC0320034AD2F8883043F47003C2F88C
:101A38008830704700ED00E0DFF834D00D480E49DB
:101A48000E4A002302E0D458C4500433C4188C4210
:101A5800F9D30B4A0B4C002301E013600432A24275
:101A6800FBD3FFF7DFFF02F055F9FFF7DDFD704705
:101A780000000520000000200C000020A05A0008EB
:101A88000C000020ACFE0320FEE7000008B5074A62
:101A9800136843F400731360032000F02FF800204C
:101AA800FFF760FFFFF748FE002008BD003C02403A
:101AB800034A1168034B1B780B441360704700BF3F
:101AC800A8FE032004000020014B1868704700BFDF
:101AD800A8FE032038B50446FFF7F6FF0546B4F123
:101AE800FF3F02D0044B1B781C44FFF7EDFF401B5F
:101AF800A042FAD338BD00BF040000200649CB68D5
:101B080023F4E0631B041B0C000200F4E0600343B1
:101B1800024A1A43CA60704700ED00E00000FA0567
:101B280000B5174BDB68C3F30223C3F1070CBCF104
:101B3800040F28BF4FF0040C03F1040EBEF1060F8A
:101B480014D9033B4FF0FF3E0EFA0CFC21EA0C01BE
:101B580099400EFA03F322EA03031943002807DB2E
:101B68000901C9B2074B19545DF804FB0023E9E7E2
:101B780000F00F000901C9B2034B1954F4E700BF84
:101B880000ED00E000E400E014ED00E0002807DBD1
:101B980000F01F02400901239340024A42F8203016
:101BA800704700BF00E100E0BFF35F8F044B5A6A43
:101BB80022F480325A620022C3F89420704700BF92
:101BC80000ED00E040F00100054BC3F894005A6AAC
:101BD80042F480325A62BFF34F8FBFF36F8F704762
:101BE80000ED00E04278164BC3F898200378FBB16B
:101BF8004368134AC2F89C30017BC37A1B0643EA48
:101C08000173817A43EAC143417B43EA8143817B83
:101C180043EA4143C17B43EA0143417A43EA012352
:101C2800017A43EA410301780B43C2F8A0307047B8
:101C3800034B0022C3F89C20C3F8A020704700BFC4
:101C480000ED00E038B310B5044690F83930EBB138
:101C5800022384F839302268136823F4403361681A
:101C68000B4313602268536B23F00703A1680B43EF
:101C780053632268116C094B0B40E1680B431364F2
:101C88000020E063012384F8393010BD80F8383033
:101C9800FFF76AFDDCE70120704700BF00C0FFFFC7
:101CA8007047704770B5044603685D681E6815F094
:101CB800010F16D016F4807F13D01A6822F48072B0
:101CC8001A60C36B43F00103C363036801229A607F
:101CD800042380F83930002380F83830436903B191
:101CE800984715F0200F18D016F4005F15D0226819
:101CF800136823F400531360236820229A60E36B6F
:101D080043F00203E363042384F83930002384F8A2
:101D1800383063690BB12046984715F0080F18D082
:101D280016F4006F15D02268136823F4006313605B
:101D3800236808229A60E36B43F00403E3630423F7
:101D480084F83930002384F8383063690BB12046B1
:101D5800984715F0040F02D016F4806F20D115F0C3
:101D6800020F16D016F4007F13D02268136823F4EC
:101D780000731360236802229A60E36BE363012314
:101D880084F83930002384F8383023690BB12046B1
:101D9800984715F0100F02D016F4805F0CD170BD73
:101DA8002268136823F480631360236804229A600E
:101DB8002046FFF775FFD2E72268136823F48053A3
:101DC8001360236810229A60E36BE363012384F8AD
:101DD8003930002384F838302046FFF762FFDEE709
:101DE80090F83830012B59D030B4012380F83830BE
:101DF800022380F8393000EB0113DA698B1C1B01D0
:101E0800C35842EA0343093A012A1ED98A1C00EB47
:101E18000212526843EA026341BB0468656A204AB9
:101E28002A4013436362026800EB01139C699461C2
:101E3800DB69093B012B10D9012380F839300023D5
:101E480080F83830184630BC70478A1C00EB021204
:101E5800526802F07F421343DEE7023100EB0111C2
:101E68004B68026823F07F439362E5E70468E569FD
:101E78000B4A2A401343E361026800EB01139C6993
:101E88001461DB69093B012BD6D8023100EB011143
:101E98004B68026823F07F431362CDE70220704746
:101EA800F0FFFC0000230F2B00F2E480F0B583B0B4
:101EB8003AE0092200E00022AA40324302346E4D83
:101EC80045F824206D4A14686FEA0C0224EA0C05D0
:101ED8004E6816F4803F01D04CEA0405674C256033
:101EE800646802EA04054E6816F4003F01D04CEA23
:101EF8000405624C6560A46802EA04054E6816F49D
:101F0800801F01D04CEA04055C4CA560E4682240BF
:101F18004D6815F4001F01D04CEA0402574CE260EA
:101F280001330F2B00F2A48001229A400C6804EAC6
:101F3800020C32EA0404F3D14C68651E112C18BF58
:101F4800012D01D9122C12D185685E000324B440FA
:101F580025EA0405CC68B4402C438460456825EA2A
:101F680002054C68C4F300129A402A434260C568CF
:101F78004FEA430E032404FA0EF4E24325EA04056B
:101F88008C6804FA0EF42C43C4604C68122C18BFF9
:101F9800022C0FD1DD08083550F8257003F007042E
:101FA800A6000F24B44027EA04070C69B4403C4358
:101FB80040F82540046814404A6802F0030202FA17
:101FC8000EF2224302604A6812F0805FA8D02C4AC1
:101FD800546C44F480445464526C02F4804201927C
:101FE800019A9C08A51C244A52F8256003F00302B4
:101FF80095000F22AA4026EA0206224A90423FF4A0
:102008005AAF02F58062904222D002F58062904277
:1020180020D002F5806290421ED002F58062904284
:102028001CD002F5806290421AD002F5806290427C
:1020380018D002F58062904216D002F58062904274
:1020480014D002F5806290423FF433AF0A2233E79E
:10205800012231E702222FE703222DE704222BE792
:10206800052229E7062227E7072225E7082223E792
:1020780003B0F0BD704700BF00380140003C01408C
:1020880000380240000002400AB18161704709042B
:1020980081617047002857D010B5044690F8413048
:1020A800002B41D0242384F841302268136823F0A0
:1020B800010313606368226823F070631361226868
:1020C800936823F400439360E368012B31D0A3683D
:1020D800226843F404439360E368022B2FD02268FC
:1020E80051681A4B0B4353602268D36823F40043AA
:1020F800D360236962691343A169226843EA012313
:10210800D360E369216A22680B431360226813686D
:1021180043F00103136000206064202384F84130F9
:10212800206384F8420010BD80F84030FFF73CFB84
:10213800B8E7A368226843F400439360CCE72368B8
:102148004FF400625A60CAE701207047008000021D
:1021580090F84130DBB2202B24D190F84030012B8D
:1021680022D0012380F84030242380F841300268CF
:10217800136823F0010313600268136823F4805383
:10218800136002681368194311600268136843F00A
:1021980001031360202380F84130002380F8403089
:1021A80018467047022070470220704790F8413067
:1021B800DBB2202B22D190F84030012B20D0012314
:1021C80080F84030242380F841300268136823F0F7
:1021D800010313600268136823F4706343EA012162
:1021E80011600268136843F001031360202380F82C
:1021F8004130002380F8403018467047022070476D
:1022080002207047F0B54D680468E368C3F30B43D8
:102218001D444FEAC21C04EBC214D4F8883003F4FE
:102228007043C4F888300B680468E668C6F30B4648
:102238003344013304EBC21443EA0543C4F888303D
:10224800CD680468E368C3F30A031D4404EBC21EA7
:10225800DEF88C3003F47043CEF88C308B68046859
:10226800E668C6F30A0E7344013304EBC21443EA6A
:102278000543C4F88C30036803EBC213D3F89440C9
:1022880024F00704C3F89440036803EBC2130C69F5
:10229800C3F8944091F8317091F832608D69046800
:1022A80004EBC21404F1840ED4F89C300024CEF858
:1022B800184091F8303043EA072343EA064306689A
:1022C80006EBC21E43EA0563CEF89C300EF1840E7D
:1022D800036803EBC213D3F8985025F0FF05C3F841
:1022E8009850036803EBC2134D69C3F8985003680C
:1022F80003EBC213D3F8A0602E4D3540C3F8A050AD
:102308000D6A036803EBC213CE693543C3F8A050C6
:10231800036803EBC213D3F8AC50C3F8AC400368AE
:1023280003EBC2124B6AC2F8AC300B696BB1012BDC
:1023380039D0022B18BF042B37D0032B37D0072BEB
:1023480001D0012502E0022500E00425026862446C
:10235800D2F8B04004F0E024C2F8B0408A6A05FB25
:1023680002F44B680A689B1A05FB03F303330268FF
:10237800624443EA0443C2F8B03003686344D3F8C4
:10238800B4400D4A2240C3F8B42003686344CA6AC3
:10239800C3F8B42003689C44DCF8843043F001039C
:1023A800CCF88430F0BD0325D0E70225CEE702251E
:1023B800CCE700BFF8F8FFFF00F8FFFF002872D055
:1023C80038B5044690F8A130002B67D0022384F872
:1023D800A1302268936923F07043936121688A6968
:1023E8006368A0680343E068034320690343134319
:1023F8008B6121688A682D4B1A408A602068826840
:10240800A169656941EA05410A4382602168CA6891
:102418001A40CA602068C268216AE56941EA054134
:102428000A43C26021680A691A400A612068026981
:10243800A16A656A41EA05410A43026121684A695D
:1024480013404B61E06A21684B69226B42EA004203
:1024580013434B6194F8350094F836301B04216817
:10246800CA6A02F07F42CA622168CA6A43EA002344
:1024780094F8340003431343CB622268536B43F050
:10248800060353632268936943F0010393610020B4
:10249800C4F8A400012384F8A13038BD80F8A03026
:1024A800FFF7BAF992E70120704700BF00F800F083
:1024B80070477047704770B5044603689D6B5E6B44
:1024C80015F0040F02D016F0040F12D115F0020F08
:1024D80002D016F0020F21D115F0010F02D016F02C
:1024E800010F32D115F0080F02D016F0080F3DD1B8
:1024F80070BD5A6B22F004025A6303680422DA633F
:10250800D0F8A43043F00103C0F8A43080F8A1202B
:10251800002380F8A030FFF7CBFFD7E72268536B82
:1025280023F00203536323680222DA63D4F8A43049
:102538001343C4F8A430042384F8A130002384F89A
:10254800A0302046FFF7B4FFC6E72268536B23F09C
:102558000103536322680123D36384F8A130002365
:1025680084F8A0302046FFF7A4FFBBE72268536B2E
:1025780023F00803536323680822DA63012384F8ED
:10258800A130002384F8A0302046FFF793FFAFE77F
:10259800F8B590F8A030012B2CD004460D4616460D
:1025A800012780F8A070022380F8A1304FF0340C86
:1025B8000CFB020C0CF1380C8E46BEE80F00ACE8A0
:1025C8000F00BEE80F00ACE80F00BEE80F00ACE853
:1025D8000F00DEF80030CCF800303246294620469D
:1025E800FFF710FE23685F6284F8A170002084F86A
:1025F800A000F8BD0220FCE738B590F8A030012B08
:1026080019D00446012580F8A050022380F8A13093
:10261800342302FB03F303F138002344D96521185E
:102628002046FFF7EFFD23685D6284F8A150002083
:1026380084F8A00038BD0220FCE70000024A1368B5
:1026480043F48073136070470070004010B582B087
:102658001B4B1A6C42F080521A641B6C03F08053B7
:102668000193019B174A136843F480331360FFF703
:102678002BFA0446134B5B6813F4803F08D1FFF72D
:1026880023FA001BB0F57A7FF4D9032002B010BDFD
:102698000C4A136843F400331360FFF715FA044635
:1026A800084B5B6813F4003F07D1FFF70DFA001BD6
:1026B800B0F57A7FF4D90320E8E70020E6E700BF09
:1026C8000038024000700040002800F0FF8170B51B
:1026D80082B00446036813F0010F29D0954B9B681C
:1026E80003F00C03042B1AD0924B9B6803F00C03E5
:1026F800082B0FD06368B3F5803F40D0002B54D12E
:102708008C4B1A6822F480321A601A6822F48022EC
:102718001A6039E0874B5B6813F4800FEAD0854B69
:102728001B6813F4003F03D06368002B00F0D081CE
:10273800236813F0020F74D07E4B9B6813F00C0FC4
:102748005ED07C4B9B6803F00C03082B53D0E368E6
:10275800002B00F08980774A136843F00103136067
:10276800FFF7B2F90546734B1B6813F0020F72D1DD
:10277800FFF7AAF9401B0228F5D90320ADE16D4AFD
:10278800136843F48033136063682BB3FFF79CF935
:102798000546684B1B6813F4003FC9D1FFF794F94D
:1027A800401B6428F5D9032097E1B3F5A02F09D081
:1027B800604B1A6822F480321A601A6822F4802268
:1027C8001A60E1E75B4B1A6842F480221A601A68C3
:1027D80042F480321A60D7E7FFF776F90546554B81
:1027E8001B6813F4003FA3D0FFF76EF9401B642861
:1027F800F5D9032071E14F4B5B6813F4800FA6D124
:102808004C4B1B6813F0020F03D0E368012B40F018
:102818006181484A136823F0F803216943EAC10338
:102828001360236813F0080F46D0636983B3414AE5
:10283800536F43F001035367FFF746F905463D4BD5
:102848005B6F13F0020F37D1FFF73EF9401B0228E8
:10285800F5D9032041E1374A136823F0F8032169C9
:1028680043EAC1031360DCE7324A136823F001032B
:102878001360FFF729F905462E4B1B6813F0020F6A
:10288800CFD0FFF721F9401B0228F5D9032024E116
:10289800284A536F23F001035367FFF715F90546DC
:1028A800244B5B6F13F0020F06D0FFF70DF9401BA6
:1028B8000228F5D9032010E1236813F0040F7DD016
:1028C8001C4B1B6C13F0805F1ED11A4B1A6C42F024
:1028D80080521A641B6C03F080530193019B0125FD
:1028E800154B1B6813F4807F10D0A368012B25D0EB
:1028F800002B3BD10F4B1A6F22F001021A671A6F97
:1029080022F004021A671EE00025E9E70A4A136864
:1029180043F480731360FFF7D7F80646064B1B682D
:1029280013F4807FE1D1FFF7CFF8801B6428F5D935
:102938000320D2E000380240007000406E4A136F56
:1029480043F001031367A36833B3FFF7BDF80646E6
:10295800694B1B6F13F0020F2FD1FFF7B5F8801BDF
:1029680041F288339842F3D90320B6E0052B09D009
:10297800614B1A6F22F001021A671A6F22F00402E3
:102988001A67E0E75C4B1A6F42F004021A671A6F85
:1029980042F001021A67D6E7FFF796F80646564B4B
:1029A8001B6F13F0020F08D0FFF78EF8801B41F25F
:1029B80088339842F3D903208FE0FDB9A369002B2F
:1029C80000F08A804C4A926802F00C02082A58D01B
:1029D800022B19D0484A136823F080731360FFF75D
:1029E80073F80446444B1B6813F0007F47D0FFF789
:1029F8006BF8001B0228F5D903206EE03E4A136CE1
:102A080023F080531364D9E73B4A136823F080739B
:102A18001360FFF759F80546374B1B6813F0007F22
:102A280006D0FFF751F8401B0228F5D9032054E0DF
:102A3800E369226A1343626A43EA8213A26A52086C
:102A4800013A43EA0243E26A43EA026343F000536D
:102A5800294A5360136843F080731360FFF734F812
:102A68000446254B1B6813F0007F06D1FFF72CF8AE
:102A7800001B0228F5D903202FE000202DE00020BC
:102A88002BE01D4A5268012B29D002F48003E1692A
:102A98008B4226D102F03F03216A8B4223D1616A1F
:102AA80047F6C0731340B3EB811F1ED102F44031C7
:102AB800A36A5B08013BB1EB034F18D102F07062C7
:102AC800E36AB2EB036F14D1002006E001207047DF
:102AD800012002E0012000E0002002B070BD0120CA
:102AE800FBE70120F9E70120F7E70120F5E70120DE
:102AF800F3E70120F1E700BF0038024008B5254B95
:102B08009B6803F00C03042B3FD0082B3FD1214BCB
:102B18005A6802F03F025B6813F4800F12D01D4B15
:102B28005968C1F388111C480023A1FB0001FDF777
:102B380067FB184B5B68C3F3014301335B00B0FBD1
:102B4800F3F025E0134B5968C1F3881C4FEA4C1188
:102B5800B1EB0C006EEB0E0E4FEA8E1343EA906356
:102B68008101091A63EB0E03DB0043EA5173C900C4
:102B780011EB0C0C43F10003990200234FEA8C205F
:102B880041EA9C51FDF73CFBD3E7034800E00348CA
:102B980008BD00BF0038024040787D010024F400E1
:102BA800002800F0A08070B50D460446524B1B6803
:102BB80003F00F038B420BD24F4A136823F00F0325
:102BC8000B431360136803F00F038B4240F08D80B2
:102BD800236813F0020F17D013F0040F04D0474AEC
:102BE800936843F4E0539360236813F0080F04D00C
:102BF800424A936843F460439360404A936823F0E1
:102C0800F003A1680B439360236813F0010F31D0E0
:102C18006368012B20D0022B25D0384A126812F0A5
:102C2800020F64D035498A6822F0030213438B608F
:102C3800FEF74AFF0646314B9B6803F00C036268B7
:102C4800B3EB820F16D0FEF73FFF801B41F28833AB
:102C58009842F0D9032045E0284A126812F4003F50
:102C6800E0D101203EE0254A126812F0007FD9D158
:102C7800012037E0204B1B6803F00F03AB420AD951
:102C88001D4A136823F00F032B431360136803F0E6
:102C98000F03AB422DD1236813F0040F06D0174A57
:102CA800936823F4E053E1680B439360236813F0BF
:102CB800080F07D0114A936823F46043216943EA57
:102CC800C1039360FFF71AFF0C4B9B68C3F3031310
:102CD8000B4AD35CD8400B4B18600B4B1868FEF7B7
:102CE80041FE002070BD012070470120FAE7012055
:102CF800F8E70120F6E700BF003C02400038024038
:102D0800785A00080000002008000020014B1868CD
:102D1800704700BF0000002008B5FFF7F7FF044B1D
:102D28009B68C3F38223034AD35CD84008BD00BF25
:102D380000380240885A00080F2303600B4B9A683A
:102D480002F0030242609A6802F0F00282609A6818
:102D580002F4E052C2609B68DB0803F4E0530361AD
:102D6800034B1B6803F00F030B60704700380240E9
:102D7800003C0240F0B583B00446066816F0010630
:102D88000DD0A74B9A6822F400029A609A68416BAA
:102D98000A439A60436B002B00F0398100262568AE
:102DA80015F4002511D09E4AD2F88C3023F4401334
:102DB800E16B0B43C2F88C30E36BB3F5801F00F076
:102DC8002881002B00F027810025236813F4801F39
:102DD8000FD0934AD2F88C3023F44003216C0B4374
:102DE800C2F88C30236CB3F5800F00F0168103B95C
:102DF8000125236813F0807F00D0012613F0200FEF
:102E080040F01081236813F0100F0CD0844BD3F8D6
:102E18008C2022F08072C3F88C20D3F88C20A16B10
:102E28000A43C3F88C20236813F4804F08D07C4AE7
:102E3800D2F8903023F44033616E0B43C2F89030DF
:102E4800236813F4004F08D0754AD2F8903023F461
:102E58004023A16E0B43C2F89030236813F4803FDF
:102E680008D06F4AD2F8903023F44013E16E0B4338
:102E7800C2F89030236813F4003F08D0684AD2F8AB
:102E8800903023F44003216F0B43C2F8903023683D
:102E980013F0400F08D0624AD2F8903023F00303B1
:102EA800616C0B43C2F89030236813F0800F08D090
:102EB8005B4AD2F8903023F00C03A16C0B43C2F8A4
:102EC8009030236813F4807F08D0554AD2F89030A8
:102ED80023F03003E16C0B43C2F89030236813F4FD
:102EE800007F08D04E4AD2F8903023F0C003216DFD
:102EF8000B43C2F89030236813F4806F08D0484A17
:102F0800D2F8903023F44073616D0B43C2F89030CF
:102F1800236813F4006F08D0414AD2F8903023F4A4
:102F28004063A16D0B43C2F89030236813F4805FAF
:102F380008D03B4AD2F8903023F44053E16D0B435C
:102F4800C2F89030236813F4005F08D0344AD2F8EE
:102F5800903023F44043216E0B43C2F8903023682D
:102F680013F4800F08D02E4AD2F8903023F08063F3
:102F7800A16F0B43C2F89030236813F4001F0DD0E3
:102F8800274AD2F8903023F00063E16F0B43C2F870
:102F98009030E36FB3F1006F00F0AA80236813F05C
:102FA800080F00D0012513F4802F08D01C4AD2F84E
:102FB800903023F04073616F0B43C2F89030236860
:102FC80013F4000F09D0164AD2F8903023F080533A
:102FD800D4F880100B43C2F8903026B9236813F058
:102FE800007F00F005810E4A136823F080631360A8
:102FF800FEF76AFD06460A4B1B6813F0006F79D08E
:10300800FEF762FD801B6428F5D90320F3E0012652
:10301800C5E60126D5E60125D7E60126E7E600BF85
:10302800003802407F4B1A6C42F080521A641B6CC5
:1030380003F080530193019B7B4A136843F4807328
:103048001360FEF741FD0746774B1B6813F4807F3A
:1030580006D1FEF739FDC01B6428F5D90320CAE064
:10306800704B1B6F13F4407315D0226B02F440723F
:103078009A4210D06B4B1A6F22F44072196F41F4C8
:1030880080311967196F21F4803119671A671B6F2E
:1030980013F0010F12D1236B03F44072B2F5407F95
:1030A8001DD0604A936823F4F81393605D490B6F51
:1030B800226BC2F30B0213430B67A3E6FEF704FD72
:1030C8000746584B1B6F13F0020FE4D1FEF7FCFCC8
:1030D800C01B41F288339842F3D903208BE0514852
:1030E800826822F4F812514919400A438260DDE7E8
:1030F800012553E7236813F0010F13D0636B8BB9D5
:10310800484AD2F88430D2F88410606803F4403317
:1031180043EA801301F070610B43A16843EA01732D
:10312800C2F88430236813F4002F03D0E26BB2F5A1
:10313800801F06D013F4801F1ED0236CB3F5800FB8
:103148001AD1384AD2F88430D2F88410606803F46F
:10315800403343EA8013E06843EA006301F0E0414A
:103168000B43C2F88430D2F88C3023F01F03616A15
:1031780001390B43C2F88C30236813F0807F11D0DB
:10318800284AD2F88400D2F88410666823691B04A0
:1031980043EA861300F07060034301F0E0410B43FB
:1031A800C2F88430236813F0007F0DD06268236969
:1031B8001B0443EA8213E26843EA0263A26843EA13
:1031C8000273184AC2F88430164A136843F08063C1
:1031D8001360FEF779FC0646124B1B6813F0006F6C
:1031E80006D1FEF771FC801B6428F5D9032002E0A4
:1031F800012D02D0002003B0F0BD0A4A136823F065
:1032080080531360FEF760FC0546064B1B6813F0FD
:10321800005F0DD0FEF758FC401B6428F5D9032049
:10322800E9E700BF0038024000700040FFFCFF0FD4
:10323800236813F4002F01D0E26B22B113F4801F2E
:103248001DD0236CDBB9354AD2F88830D2F8881003
:10325800606903F4403343EA8013A06943EA0063DA
:1032680001F0E0410B43C2F88830D2F88C3023F4E7
:10327800F853A16A013943EA0123C2F88C30236864
:1032880013F4001F03D0E36FB3F1006F31D023684C
:1032980013F0080F19D0214AD2F88810D2F88830D4
:1032A800606903F4403343EA801301F070610B4313
:1032B800E16943EA0173C2F88830D2F88C3023F40C
:1032C8004033E16A0B43C2F88C30144A136843F068
:1032D80080531360FEF7F8FB0446104B1B6813F08D
:1032E800005F19D1FEF7F0FB001B6428F5D9032015
:1032F80081E70A4AD2F88800D2F888106569236AFB
:103308001B0443EA851300F07060034301F0E041B9
:103318000B43C2F88830BAE700206CE70038024057
:1033280038B504460268D36823F0A003D360FEF7DB
:10333800CBFB05462368DB6813F0200F07D1FEF7A7
:10334800C3FB401BB0F57A7FF4D9032000E00020CE
:1033580038BD38B50368DA6812F0400F01D0002094
:1033680038BD04464FF0FF32DA60FEF7ADFB054684
:103378002368DB6813F0400F07D1FEF7A5FB431B5A
:10338800B3F57A7FF4D90320EAE70020E8E70000E4
:1033980038B500285AD00446437F002B3FD002237B
:1033A80063772368CA225A62236853225A622046E6
:1033B800FFF7CFFF0546002835D122689168244BD6
:1033C8000B40936021688A686368206903436069D9
:1033D800034313438B602368E2681A612268136908
:1033E800A16843EA014313612268D36823F080038C
:1033F800D36023689B6813F0200F1BD02268D36C1E
:1034080023F00803D3642268D36CA1690B43D36407
:103418002368FF225A6201236377284638BD037761
:10342800FEF78CFABBE72368FF225A62042363770E
:103438000125F2E72046FFF773FF0028DED0236856
:10344800FF225A62042363770125E6E70125E4E7B2
:10345800BFFF8FFF002302E001330A38C0B20928FA
:10346800FAD81B01DBB2184370470000F8B5037F98
:10347800012B76D004460E460123037702234377B7
:10348800002A45D103689B6813F0400F01D100233F
:103498000B733078FFF7DEFF05047078FFF7DAFF6B
:1034A80045EA0025B078FFF7D5FF0543307B45EAAC
:1034B80000452368CA225A62236853225A6220466A
:1034C800FFF747FF0746002834D12268264B2B40D8
:1034D80013602268936823F48023936021688B68C3
:1034E80032697069024313438B602268D36823F002
:1034F8008003D36023689B6813F0200F23D02368D0
:10350800FF225A6201236377002323773846F8BDE8
:1035180003689B6813F0400F01D100230B733378C5
:1035280075782D0245EA0345B0780543307B45EAB6
:103538000045BEE72368FF225A620423637700230D
:1035480023770127E2E72046FFF7EAFE0028D6D0D6
:103558002368FF225A620423637700232377012715
:10356800D4E70227D2E700BF7F7F7F0070B5037FD3
:10357800012B64D004460E460123037702234377C8
:103588003AB94B7813F0100F03D003F0EF030A3366
:103598004B70002A31D1F078FFF75CFF0504707892
:1035A800FFF758FF45EA0025B078FFF753FF0543BA
:1035B800307845EA40352368CA225A622368532284
:1035C8005A622046FFF7C5FE064608BB22681D4B17
:1035D8002B4053602268D36823F08003D3602368AC
:1035E8009B6813F0200F1CD02368FF225A62012326
:1035F800637700232377304670BDF37875782D0202
:1036080045EA0345B0780543307845EA4035D2E7C6
:103618002368FF225A620423637700232377012655
:10362800E9E72046FFF77CFE0028DDD02368FF226B
:103638005A6204236377002323770126DBE70226F7
:10364800D9E700BF3FFFFF00F8B5037F012B00F06B
:10365800A98004460D460123037702234377002AF5
:103668004DD103689B6813F0400F01D100230B7301
:103678002E6A2878FFF7EEFE07046878FFF7EAFE5F
:1036880047EA0027A878FFF7E5FE0743287B47EAC3
:10369800004795F82400FFF7DDFE47EA00673E4340
:1036A800AB691E436F68EB691F432368CA225A62DD
:1036B800236853225A62AB6AB3F5807F39D02268F7
:1036C800936823F4007393602268936823F400538B
:1036D8009360FEF7F9F905462368DA6812F0020FDD
:1036E80050D1FEF7F1F9401BB0F57A7FF4D9236881
:1036F800FF225A62032060770023237751E0036892
:103708009B6813F0400F01D100230B732E6A2A78AF
:103718006B781B0243EA0243AA7813432A7B43EAE5
:10372800024395F8242043EA02631E43AB691E4313
:10373800B8E72268936823F48073936022689368DB
:1037480023F480539360FEF7BFF905462368DA68CF
:1037580012F0010F0DD1FEF7B7F9401BB0F57A7FD3
:10376800F4D92368FF225A62032060770023237765
:1037780017E0DE6123685F642268936843F480730E
:10378800936007E01E6223689F642268936843F48D
:10379800007393602368FF225A6201236377002035
:1037A8002077F8BD0220FCE7037F012B2BD030B433
:1037B8004FF0010C80F81CC0022343770468A56809
:1037C800A3F60B032B401943CA23636203685324EF
:1037D8005C620468E36C23F00603E3640468E36C4A
:1037E8001A43E264036899600268936843F40063CB
:1037F80093600368FF225A6280F81DC00023037794
:10380800184630BC704702207047E0B138B50D4605
:10381800044690F82C308BB1022384F82C302146D2
:1038280051F8040B00F0E8F962682946206800F0B6
:103838001DFA012384F82C30002038BD80F82D3083
:10384800FEF78CF8E8E701207047704790F83D30A4
:10385800DBB2012B3AD1022380F83D300268D368ED
:1038680043F00103D36003681A4AB3F1804F18BFCD
:1038780093421DD0A2F57C42934219D002F5806292
:10388800934215D002F58062934211D002F5784236
:1038980093420DD002F57052934209D0A2F59432AA
:1038A800934205D01A6842F001021A60002070475E
:1038B8009968094A0A40062A18BFB2F5803F07D01E
:1038C8001A6842F001021A60002070470120704710
:1038D8000020704700000140070001007047704752
:1038E8007047704710B5044603681A6912F0020F52
:1038F80011D0DA6812F0020F0DD06FF002021A61CF
:103908000123037703689B6913F0030F79D0FFF74E
:10391800E6FF0023237723681A6912F0040F12D0F8
:10392800DA6812F0040F0ED06FF004021A61022355
:10393800237723689B6913F4407F68D02046FFF7FC
:10394800CEFF0023237723681A6912F0080F12D0DC
:10395800DA6812F0080F0ED06FF008021A6104231B
:1039680023772368DB6913F0030F57D02046FFF74E
:10397800B6FF0023237723681A6912F0100F12D0BC
:10398800DA6812F0100F0ED06FF010021A610823D7
:1039980023772368DB6913F4407F46D02046FFF77E
:1039A8009EFF0023237723681A6912F0010F03D0C2
:1039B800DA6812F0010F3FD123681A6912F0800FFC
:1039C80003D0DA6812F0800F3DD123681A6912F427
:1039D800807F03D0DA6812F0800F3BD123681A6920
:1039E80012F0400F03D0DA6812F0400F39D1236883
:1039F8001A6912F0200F03D0DA6812F0200F37D1BD
:103A080010BDFFF76BFF2046FFF76AFF81E72046EE
:103A1800FFF764FF2046FFF763FF92E72046FFF7B2
:103A28005DFF2046FFF75CFFA3E72046FFF756FF40
:103A38002046FFF755FFB4E76FF001021A612046F0
:103A4800FDF718FCB8E76FF080021A61204600F015
:103A5800D0F8BAE76FF480721A61204600F0CAF80D
:103A6800BCE76FF040021A612046FFF73AFFBEE755
:103A78006FF020021A61204600F0BAF8C0E7000093
:103A880030B503683B4A904214BF4FF0000E4FF028
:103A9800010EB0F1804F14BF72464EF00102AAB970
:103AA800354CA04214BF00240124344DA8420DD047
:103AB80064B904F1804404F58234A04214BF0024A0
:103AC800012405F50065A84200D01CB123F070035D
:103AD8004C682343002A33D1274A904214BF00225E
:103AE8000122264CA0422BD052BB02F1804202F5A3
:103AF8008232904214BF0022012204F50064A042E1
:103B08001ED0EAB91E4A904214BF0022012204F5D1
:103B18009A34A04214D09AB91A4A904214BF00228B
:103B2800012204F50064A0420AD04AB9164A90421C
:103B380014BF00220122A4F59634A04200D022B17D
:103B480023F4407CCB6843EA0C0323F080034A69E2
:103B5800134303608A68C2620A6882620B4A904211
:103B680014BF73464EF001030BB10B6903630123C5
:103B7800436130BD000001400008004000040040DF
:103B880000440140001800400020004000040140AB
:103B980060B310B5044690F83D3013B3022384F89F
:103BA8003D30214651F8040BFFF76AFF012384F8E2
:103BB800483084F83E3084F83F3084F8403084F848
:103BC800413084F8423084F8433084F8443084F833
:103BD800453084F8463084F8473084F83D3000207A
:103BE80010BD80F83C30FFF730FED7E70120704762
:103BF800704770477047000030B40B68012B18D02D
:103C08000368194A1A404B688C682343CC682343DD
:103C18000C6923434C6923438C692343CC692343B0
:103C28000C6A2343496A0B4313430360002030BCEA
:103C38007047046824F4F844CB690A6A1A434B6A4B
:103C48001A4322434368084C1C404B688D682B4339
:103C5800CD682B430D692B434D692B4389690B4371
:103C6800234302604360E1E70080FFFF10B5012AAB
:103C780025D0826802F070420B68013B4C6804F161
:103C8800FF3C43EA0C138C6804F1FF3C43EA0C2325
:103C9800CC6804F1FF3C43EA0C330C6904F1FF3CA7
:103CA80043EA0C434C6904F1FF3C43EA0C5389692D
:103CB800013943EA016313438360002010BD836820
:103CC800134C1C40CA6802F1FF3C4B695A1E12058E
:103CD80042EA0C322243C36803F0704C0B68013B84
:103CE8004C6804F1FF3E43EA0E138C6804F1FF3E72
:103CF80043EA0E230C6904F1FF3E43EA0E43896947
:103D0800013943EA016343EA0C038260C360D4E7E4
:103D1800FF0F0FFF70B50D4D0D4C641BA41000264E
:103D2800A64209D10B4D0C4C00F020F8641BA410DE
:103D38000026A64205D170BD55F8043B98470136C8
:103D4800EEE755F8043B98470136F2E7985A000821
:103D5800985A0008985A00089C5A000802440346DA
:103D6800934200D1704703F8011BF9E7F8B500BF8B
:103D7800F8BC08BC9E467047F8B500BFF8BC08BC44
:043D88009E4670479C
:103D8C00001320E00A05070A09100C0407070709AD
:103D9C0004050408090909090909090909090404A0
:103DAC00090909070F0A0A090B09090A0C06050B70
:103DBC00090E0B0B0A0B0B080A0B0A0F0A0A090651
:103DCC0008060906050909080A0806080A0505096E
:103DDC00050E0A090A090707060A080D080808064D
:103DEC000506090B0D090408060C08080A1610052F
:103DFC00100B0D0C09040406060708100B0B0D051F
:103E0C000D090A0A0A0A090509080509090E090813
:103E1C0009050E0606090605070A09040811080813
:103E2C00050807050A0A0A090B090F090C0C0B0BEC
:103E3C000E0C0B0B0A090A0A0D0A0C0B10100D0FB5
:103E4C000A09100B090909080A080D080A0A090AC7
:103E5C000B0A090A0A0808090C080A0A0E0E0A0DB0
:103E6C0009080D090000000000000000000000001F
:103E7C000000000000000000000000000000000036
:103E8C000000000000000000000000000000000620
:103E9C0006060606060600060600000000000000E6
:103EAC000036361212000000000000000000000076
:103EBC000000000000000000000090009000900046
:103ECC00FE0148004800FE012400240024000000EC
:103EDC0000000000000000000000000000001000C6
:103EEC00FC00960016001E003C007800F000D0008C
:103EFC00D2007E0010000000000000000000000056
:103F0C000000000000003C086604660266026601C0
:103F1C00BC3C8066406640662066103C0000000099
:103F2C0000000000000000000000000038004C0001
:103F3C004C002C00180334026602C601860B7C0769
:103F4C000000000000000000000000000606020255
:103F5C0000000000000000000000000000000070E5
:103F6C0018180C0C0C0C0C0C0C0C18187000000015
:103F7C000000070C0C18181818181818180C0C0737
:103F8C000000000000082A1C1C2A08000000000089
:103F9C000000000000000000000000000000000015
:103FAC000000100010001000FE00100010001000A7
:103FBC0000000000000000000000000000000000F5
:103FCC0000000000000000060602010000000000D6
:103FDC00000000000000000E0E00000000000000B9
:103FEC0000000000000000000000000000060600B9
:103FFC000000000000000080404020201010080845
:10400C000404020201000000000000000000000097
:10401C0038006C00C600C600C600C600C600C6004C
:10402C006C003800000000000000000000000000E0
:10403C000000000000003000380034003000300078
:10404C003000300030003000FC00000000000000A8
:10405C000000000000000000000000007C00C60012
:10406C00C200C0006000300018008C00FE00FE0092
:10407C000000000000000000000000000000000034
:10408C0000007C00C600C200C0007800C000C00068
:10409C00C200C6007C000000000000000000000010
:1040AC000000000000000000600070006800680064
:1040BC0064006201FE0160006000F000000000007E
:1040CC000000000000000000000000000000FE00E6
:1040DC00FE00020002007E00C000C000C200C6004C
:1040EC007C00000000000000000000000000000048
:1040FC0000000000700018000C0006007600CE00D6
:10410C00C600C600C6007C000000000000000000D5
:10411C0000000000000000000000FE00FE00C200D5
:10412C004000600020003000300018001800000033
:10413C000000000000000000000000000000000073
:10414C007C00C600C600C6007C00C600C600C600C7
:10415C00C6007C0000000000000000000000000011
:10416C000000000000007C00C600C600C600E6008F
:10417C00DC00C000600030001C00000000000000EB
:10418C000000000000000000000000060600000611
:10419C000600000000000000000000000000060601
:1041AC0000000606020100000000000000000000F4
:1041BC0000000000000080006000180006001800DD
:1041CC006000800000000000000000000000000003
:1041DC0000000000000000000000000000000000D3
:1041EC00FE0000000000FE000000000000000000C7
:1041FC0000000000000000000000000000000000B3
:10420C00000002000C003000C00030000C00020066
:10421C000000000000000000000000000000001F73
:10422C00313030180C04000C0C00000000000000B1
:10423C0000000000000000E0071808C412641332EC
:10424C0013B211B211B20964070800F001000000AA
:10425C0000000000000000000000000000300030F2
:10426C0000680068006800C400FC0082018201C77D
:10427C00030000000000000000000000000000002F
:10428C00000000FE008C018C018C01FC008C018C68
:10429C00018C018C01FE00000000000000000000F9
:1042AC00000000000000000000F800CC00860006B2
:1042BC00000600060006008600CC00F80000000096
:1042CC00000000000000000000000000000000FEE4
:1042DC00008C010C030C030C030C030C030C038C5F
:1042EC0001FE0000000000000000000000000000C3
:1042FC000000000000FE008C000C004C007C004C08
:10430C00000C008C00CC00FE00000000000000003F
:10431C000000000000000000000000FE018C010CF9
:10432C00014C007C004C000C000C000C001E00002A
:10433C000000000000000000000000000000000071
:10434C0000F8018C01060106000600C603860186F2
:10435C00018C01F8010000000000000000000000CA
:10436C00000000000000009E070C030C030C03FC73
:10437C00030C030C030C030C039E0700000000004D
:10438C0000000000000000001E0C0C0C0C0C0C0CAF
:10439C000C1E0000000000000000001E0C0C0C0C99
:1043AC000C0C0C0C0C0C04020000000000000000B3
:1043BC000000009E070C018C004C003C006C00CCF3
:1043CC00008C010C039E07000000000000000000A0
:1043DC000000000000000000001E000C000C000C8F
:1043EC00000C000C000C000C018C01FE0100000004
:1043FC000000000000000000000000000000000EA3
:10440C001C1C0E1C0E340D340DE40CE40C440C047A
:10441C000C0E1E0000000000000000000000000058
:10442C0000000000008E031C011C013401340164E7
:10443C00016401C401C4018E0100000000000000F1
:10444C000000000000000000000000F8008C0106D5
:10445C0003060306030603060306038C01F800009B
:10446C000000000000000000000000000000000040
:10447C0000FE008C018C018C018C01FC000C000CEA
:10448C00000C001E000000000000000000000000F6
:10449C0000000000000000F8008C01060306030673
:1044AC00030603060306038C01F8006000C00480B9
:1044BC0003000000000000000000000000FE008C63
:1044CC00018C018C01CC007C006C00CC008C011E9A
:1044DC0003000000000000000000000000007C66EB
:1044EC00460E1C387062663E0000000000000000A2
:1044FC00000000000000FE013201320130003000EB
:10450C003000300030003000780000000000000067
:10451C000000000000000000000000009E030C01E1
:10452C000C010C010C010C010C010C019800700029
:10453C00000000000000000000000000000000006F
:10454C0000008F03060106018C008C0058005800F7
:10455C005800300030000000000000000000000097
:10456C0000000000000000008F71862186214C1392
:10457C004C132C0B2C0B380E1806180600000000E0
:10458C000000000000000000000000000000CF014F
:10459C0086004C004C003800380064006400C200F7
:1045AC00E701000000000000000000000000000017
:1045BC0000000000DE018C008C0058005800300018
:1045CC0030003000300078000000000000000000D7
:1045DC0000000000000000000000FE00C6006200A9
:1045EC0030003000180018008C00C600FE000000DF
:1045FC00000000000000000000003C0C0C0C0C0C37
:10460C000C0C0C0C0C0C0C3C000000000001020209
:10461C000404080810102020404080000000000016
:10462C000F0C0C0C0C0C0C0C0C0C0C0C0C0F0000D0
:10463C0000000000000000000010002800280044CA
:10464C000044008200000000000000000000000098
:10465C00000000000000000000000000000000004E
:10466C0000000000003F00000000000604080000ED
:10467C00000000000000000000000000000000002E
:10468C0000000000000000000000003C0062006020
:10469C00007C0066006600FC0000000000000000CA
:1046AC0000000000000000000007000600060006E5
:1046BC00007600CE00C600C600C600C6007A000018
:1046CC000000000000000000000000000000007C62
:1046DC0046060606463C00000000000000000000F4
:1046EC000000E000C000C000C000FC00C600C60016
:1046FC00C600C600E600DC0100000000000000005F
:10470C0000000000000000007CC6C6FE06867C008F
:10471C00000000000000003C2606061F06060606E8
:10472C00060F000000000000000000000000FC6606
:10473C00663C067EFCC2C37E000000000000000048
:10474C000007000600060006007600CE00C600C674
:10475C0000C600C600EF01000000000000000000D1
:10476C00000000000606000706060606060F0000FD
:10477C0000000000000000060600070606060606FC
:10478C0006060603000000000000000000070006FB
:10479C000006000600E600460026003E006600C645
:1047AC0000EF010000000000000000000000000706
:1047BC000606060606060606060F000000000000A8
:1047CC000000000000000000000000000000770E58
:1047DC00CE19C618C618C618C618EF3D0000000042
:1047EC0000000000000000000000000000000000BD
:1047FC00000000007700CE00C600C600C600C60050
:10480C00EF010000000000000000000000000000AC
:10481C00000000000000000000007C00C600C60084
:10482C00C600C600C6007C000000000000000000AE
:10483C00000000000000000000000000000000006C
:10484C007700CE00C600C600C600C6007E0006007B
:10485C0006000F0000000000000000000000000037
:10486C00000000000000BC00C600C600C600C60068
:10487C00E600DC00C000C000E00100000000000009
:10488C0000000000372E060606060F000000000090
:10489C00000000000000003E23071E38311F0000FE
:1048AC00000000000000000006061F0606060616A3
:1048BC000C000000000000000000000000000000E0
:1048CC000000000000E700C600C600C600C600E6F7
:1048DC0000DC0100000000000000000000000000EF
:1048EC00000000EF46462C2C1818000000000000B9
:1048FC0000000000000000000000000000004F0E4F
:10490C004604EC04EC02DC02980198010000000063
:10491C00000000000000000000000000EF462C1812
:10492C003462F7000000000000000000000000EFFF
:10493C0046462C2C1818080907000000000000003F
:10494C0000007F31180C0C467F00000000000000B6
:10495C0000380C0C0C0C0C060C0C0C0C0C0C380051
:10496C00000000000404040404040404040404040B
:10497C0004040000000000070C0C0C0C0C180C0CB0
:10498C000C0C0C0C070000000000000000000000E4
:10499C000000000000000C0192006100000000000B
:1049AC0000000000000000000000000000000000FB
:1049BC0000000000FE01020172014A0142012201C5
:1049CC001201020112010201FE01000000000000B0
:1049DC00000000000000000000000000FE01320199
:1049EC0032013000F007300E300C300CB00CB80730
:1049FC0000000000000000000000C000600010007B
:104A0C000000FE018C010C010C000C000C000C00D1
:104A1C000C000C001E000000000000000000000054
:104A2C00000000000000000000000006060201006B
:104A3C00000000000030100800FFC6860606060FB6
:104A4C00000000000000000000000000000000005A
:104A5C0000363612090000000000000000000000C3
:104A6C00000000000000000000000000000000003A
:104A7C000066066606000000000000000000000052
:104A8C0000000808087F0808080808080808000043
:104A9C0000000000000808087F0808087F080808C4
:104AAC0008000000000000000000000000F00118E9
:104ABC00010C00FE000C00FE000C000C001801F0B4
:104ACC0001000000000000000000000000000000D9
:104ADC0000000000000000003C08006604006602B4
:104AEC0000660200660100BC3C1E806633406633E3
:104AFC00406633206633103C1E00000000000000AE
:104B0C00000000000000000000000000F80390010D
:104B1C0090019001903F9071886188618D71C73FC1
:104B2C000000000000000000000000000000000079
:104B3C000804060306040800000000000000000042
:104B4C0000000000009E070C030C030C03FC3F0C40
:104B5C00630C630C630C639E3F00000000000000BC
:104B6C000000008001C000200000001E078C048C97
:104B7C00004C00FC00CC01CC018C038C031E070004
:104B8C000000000000000000000000000000000019
:104B9C0000FE01320132013000F0033006300630E5
:104BAC00063006780F000000000000000000000036
:104BBC0000000000009E078C030C030C030C030C7C
:104BCC00030C030C030C030C03FE072000600060B5
:104BDC000000000000000000000000070006003F7D
:104BEC000006007600CE00C600C600C600C600CF88
:104BFC000040002000100000000000000008040627
:104C0C000600000000000000000000000000000092
:104C1C000606020100000000000000000000000079
:104C2C0000000024121B1B0000000000000000000C
:104C3C0000000000000036361209000000000000E1
:104C4C00000000000000000000000000001C3E3EC0
:104C5C003E1C0000000000000000000000000000EE
:104C6C000000007E000000000000000000000000BA
:104C7C000000000000000000000000000000000028
:104C8C0000FE7F000000000000000000000000009B
:104C9C00000000000000000000FE01020172014A49
:104CAC0001420122011201020112010201FE010066
:104CBC0000000000000000000000000000000000E8
:104CCC00002E026403A402A40224020000000000CF
:104CDC0000000000000000000000000000000000C8
:104CEC0000000000000000000000000000FC01C8F3
:104CFC0000C800C807C80CC50CE70700000000007E
:104D0C00000000000000000000000002040C180C61
:104D1C000402000000000000000000000000000081
:104D2C00000000000000EF01C600C600FE07C60C24
:104D3C00C60CEF070000000000000000000000009F
:104D4C00000000006000200010000000CF01660190
:104D5C0026003E007600E600CF01000000000000B7
:104D6C0000000000000000000000070006003F00EB
:104D7C0006007600CE00C600C600C600C600EF01D5
:104D8C000000000000000000000000000000000017
:104D9C00000000000000EE01CE00CE00CE00CE00E0
:104DAC00CE00CE00FE0110003000300000000000EC
:104DBC0000000000000000000000000000000000E7
:104DCC0000000000000000000000000000000000D7
:104DDC0000000000000000009801F00000008F03AC
:104DEC000E018E009C00580078003000100012005C
:104DFC000E00000000000000000000000000000099
:104E0C0000000000CC0078000000CF0186004E00AE
:104E1C004C003C003800180010000900070000008E
:104E2C0000000000000F060606060606060606062B
:104E3C0006010000000000000000000000000081DE
:104E4C00005A0024004200420024005A0081000055
:104E5C0000000000000000000000000080C0FE0CFC
:104E6C000C0C0C0C0C0C0C1E0000000000000000C4
:104E7C0004040404040400000404040404040000F6
:104E8C00000000000000007C00460006000E003C04
:104E9C0000760066006E003C007000600062003E10
:104EAC000000000000000000006C006C000000FE20
:104EBC00008C000C004C007C004C000C008C00CCD6
:104ECC0000FE0000000000000000000000000000D8
:104EDC00000000E00118060408E409321132103217
:104EEC00103211E40904081806E00100000000006B
:104EFC000000000000000000000000F800CC00865C
:104F0C000006007E00060006008600CC00F80000BB
:104F1C0000000000000000000000000000000088FD
:104F2C004466336644880000000000000000000066
:104F3C000000000000000000000000000000FE0067
:104F4C0080008000800000000000000000000000D5
:104F5C00000000000000000000000E0E0000000029
:104F6C000000000000000000000000E00118060432
:104F7C0008F40962136213E2116213740F04081827
:104F8C0006E00100000000000000003636001E0C98
:104F9C000C0C0C0C0C0C0C1E000000000000000093
:104FAC00000C12120C0000000000000000000000B9
:104FBC0000000000000000000000001000100010B5
:104FCC0000FE001000100010000000FE00000000A9
:104FDC00000000000000000000001E0C0C0C0C0C6B
:104FEC000C0C0C1E00000000000000000006060067
:104FFC000706060606060F00000000000000000071
:10500C000040607F06060606060F00000000000048
:10501C000000000000000000000000000000C600BE
:10502C00C600C600C600C600E602DE01020006008D
:10503C000600000000000000000000000000FC0161
:10504C005E005E005E005C0050005000500050009E
:10505C005000500050005000000000000000000004
:10506C000000000606000000000000000000000028
:10507C0000006C6C0078CCC6FE068E7C0000000034
:10508C000000000000000000000000000000008E86
:10509C0003001C71001CD90034D90074D900647150
:1050AC0000E40100C4F900C401008E0100000000FE
:1050BC0000000000000000000000000000000000E4
:1050CC0000F88C063E068CF8000000000000000082
:1050DC0000000000112266CC6622110000000000C6
:1050EC000000000006060007060606060606060671
:1050FC00030000000000007C66460E1C787062669F
:10510C003E0000000000000000000000007C46068D
:10511C003C78623E0000000000000000001B1B00F9
:10512C000706060606060F0000000000000000003F
:10513C000000000000700070007800E800E800C477
:10514C0000FC01C601C601C70300000000000000FE
:10515C000000000000000000000000FE008C008C2D
:10516C00000C00FC008C018C018C018C01FE0000F9
:10517C000000000000000000000000000000000023
:10518C0000FE008C018C018C01FC008C008C018CCD
:10519C00018C01FE00000000000000000000000077
:1051AC0000000000000000FE018C010C010C000C42
:1051BC00000C000C000C000C001E00000000000095
:1051CC0000000000000000000000000000F8039048
:1051DC00019001900190018801880184018601FFF2
:1051EC0003030301020102000000000000000000A4
:1051FC00000000FE008C000C004C007C004C000CED
:10520C00008C00CC00FE000000000000000000003C
:10521C00000000000000000000E739CD2CC804D8C5
:10522C0006F807DC0ECC0CCE1CCE1CE739000000B7
:10523C000000000000000000000000000000007EE4
:10524C0000C600C20040003800C000C000C200C64A
:10525C00007E0000000000000000000000000000C4
:10526C0000000000009E070C038C03CC034C032CA5
:10527C00031C031C030C039E07000000000000002D
:10528C0000000000009801F00000009E070C038C49
:10529C0003CC034C032C031C031C030C039E0700C0
:1052AC0000000000000000000000000000000000F2
:1052BC00001E078C048C004C00FC00CC01CC018C33
:1052CC00038C031E0700000000000000000000001B
:1052DC0000000000000000F8039001900190019084
:1052EC00019801880188018501C7030000000000B6
:1052FC00000000000000000000000000001E1E1C4A
:10530C000E3C0F340DF40DE40CE40C440C040C0EA8
:10531C001E00000000000000000000000000000063
:10532C000000009E070C030C030C03FC030C030C85
:10533C00030C030C039E070000000000000000009B
:10534C00000000000000000000F8008C01060306BD
:10535C000306030603060306038C01F80000000095
:10536C00000000000000000000000000000000FE33
:10537C00038C018C018C018C018C018C018C018CB7
:10538C0001DE03000000000000000000000000002F
:10539C000000000000FE008C018C018C018C01FCD3
:1053AC00000C000C000C001E0000000000000000AF
:1053BC000000000000000000000000F800CC008697
:1053CC000006000600060006008600CC00F800006F
:1053DC0000000000000000000000000000000000C1
:1053EC0000FE01320132013000300030003000305C
:1053FC0000300078000000000000000000000000F9
:10540C00000000000000008F030E018E009C00586D
:10541C000078003000100012000E000000000000A8
:10542C000000000000000000000000F0006000F828
:10543C00016C076606660666066E03F8016000F0EE
:10544C000000000000000000000000000000000050
:10545C000000008F038E018C007C0038007000E887
:10546C0000C400C601C703000000000000000000DB
:10547C000000000000000000009E070C030C030C51
:10548C00030C030C030C030C030C03FE07000600B7
:10549C00040004000000000000000000000000DE1A
:1054AC00038C018C018C018C01F80180018001803E
:1054BC0001C003000000000000000000000000001C
:1054CC000000000000DE7B8C318C318C318C318CF7
:1054DC00318C318C318C31FE7F00000000000000DB
:1054EC000000000000000000000000DE7B8C318C0E
:1054FC00318C318C318C318C318C318C31FE7F0084
:10550C0060004000400000000000000000000000AF
:10551C00007E00320032003000F007300E300C30CC
:10552C000C300EF807000000000000000000000026
:10553C00000000000000001E3C0C180C180C18FC9D
:10554C00188C198C198C198C19FE3C000000000069
:10555C00000000000000000000000000001E000C15
:10556C00000C000C00FC008C018C018C018C01FEE9
:10557C00000000000000000000000000000000001F
:10558C000000003E006600C200C000FC00C000C06D
:10559C0000C20066003E0000000000000000000099
:1055AC000000000000000000001E1F8C31CC60CCFD
:1055BC0060FC60CC60CC60CC608C311E1F000000A5
:1055CC00000000000000000000000000000000FCD3
:1055DC00038E01860186018C01F8019C018C018EE1
:1055EC0001C70300000000000000000000000000E4
:1055FC0000000000000000000000003E00610060A0
:10560C00007C0063006300FE00000000000000004E
:10561C000000000000000000008000F8007C000486
:10562C00007A00C600C600C600C600440038000060
:10563C00000000000000000000000000000000005E
:10564C00000000000000007F00C600C6003E00C63F
:10565C0000C6007F000000000000000000000000F9
:10566C000000000000FFC6860606060F00000000C2
:10567C00000000000000000000000000000000001E
:10568C00F801C800C800C800C400C600FF018301AF
:10569C00010101010000000000000000000078CCB6
:1056AC00C6FE068E7C00000000000000000000001A
:1056BC00000000000000000000F30C650A6801FC0B
:1056CC00036E076606F70E000000000000000000E5
:1056DC00000000000000003F61603C60613F000082
:1056EC0000000000000000000000000000000000AE
:1056FC000000EF01C600E600D600CE00C600EF01A8
:10570C00000000000000000000000000000000008D
:10571C000000CC0078000000EF01C600E600D600C7
:10572C00CE00C600EF0100000000000000000000E9
:10573C000000000000000000000000000000CF018D
:10574C00660126003E007600E600CF010000000056
:10575C00000000000000000000000000000000003D
:10576C0000000000FC01C800C800C800C800C5004B
:10577C00E701000000000000000000000000000035
:10578C0000000000000000000000CF03CE01BA01B1
:10579C00BA0192018201C703000000000000000062
:1057AC0000000000000000000000000000000000ED
:1057BC00EF01C600C600FE00C600C600EF010000E7
:1057CC0000000000000000000000000000000000CD
:1057DC000000000000007C00C600C600C600C60029
:1057EC00C6007C000000000000000000000000006B
:1057FC00000000000000000000000000FF01C600D7
:10580C00C600C600C600C600EF0100000000000084
:10581C00000000000000000000000000000000007C
:10582C000000F700CE01860186018601C6007E00CD
:10583C00060006000F000000000000000000000041
:10584C00F8CC0606068E7C0000000000000000006C
:10585C00000000FF99181818183C00000000000008
:10586C000000000000000000000000000000CF015C
:10587C0086004E004C003C00380018001000090057
:10588C000700000000000000000000007000600035
:10589C0060006000F8016C036606660666066C0321
:1058AC00F80160006000F000000000000000000043
:1058BC000000EF463C183462F700000000000000C6
:1058CC0000000000000000000000000000EF01C616
:1058DC0000C600C600C600C600FF01800100010022
:1058EC0001000000000000000000000000000000AB
:1058FC00000000EF01C600C600FC00C000C000E0C4
:10590C00010000000000000000000000000000008A
:10591C00000000000000000000EF1FC60CC60CC603
:10592C000CC60CC60CFF1F0000000000000000009D
:10593C00000000000000000000000000000000EF6C
:10594C001FC60CC60CC60CC60CC60CFF1F001800DC
:10595C00100010000000000000000000000000001B
:10596C0000000000003F0019001800F80098019892
:10597C0001FC00000000000000000000000000001E
:10598C0000000000000000000000000F0F060606DB
:10599C00067E06C606C6067F0F000000000000004B
:1059AC0000000000000000000000000000000000EB
:1059BC00000F00060006007E00C600C6007F000037
:1059CC000000000000000000000000000000001FAC
:1059DC0071607C60311F00000000000000000000BE
:1059EC0000000000000000000000CF07460C660C11
:1059FC007E0C660C660CCF07000000000000000057
:105A0C00000000000000000000000000000000008A
:105A1C00FC00660066007C006E006600F70000006B
:105A2C0000000000000000000A456E7465722C0A2C
:105A3C00302C312C322C332C342C352C362C372C5E
:105A4C00382C392C31302C31310A414243444546F3
:105A5C0047484A4B4C4D4E4F50515253540762637A
:105A6C0064656667686A6B0A3132330000000000B7
:105A7C0000000000010203040607080900000000F2
:045A8C00010203040C
:085A9000A8A7FF7F0100000040
:045A9800ED01000814
:045A9C00C901000834
:0C5AA0000024F4000100000010000000D1
:0400000508001A4194
:00000001FF
