:020000040800F2
:1000000000000520E9210008912100089321000843
:1000100095210008972100089921000800000000A0
:100020000000000000000000000000009B2100080C
:100030009D210008000000009F210008A121000868
:100040003922000839220008392200083922000824
:100050003922000839220008392200083922000814
:100060003922000839220008392200083922000804
:1000700039220008392200083922000839220008F4
:1000800039220008392200083922000839220008E4
:1000900039220008392200083922000839220008D4
:1000A00039220008392200083922000839220008C4
:1000B00039220008392200083922000839220008B4
:1000C00039220008392200083922000839220008A4
:1000D0003922000839220008392200083922000894
:1000E0003922000839220008392200083922000884
:1000F0003922000839220008392200083922000874
:100100003922000839220008392200083922000863
:100110003922000839220008A521000839220008E8
:100120003922000839220008392200083922000843
:100130003922000839220008392200083922000833
:100140003922000839220008392200083922000823
:100150003922000839220008392200083922000813
:100160003922000839220008392200083922000803
:100170003922000839220008392200080000000056
:1001800039220008392200083922000839220008E3
:1001900039220008392200083922000839220008D3
:1001A000B521000839220008C521000839220008BD
:1001B00039220008392200083922000839220008B3
:0801C000392200083922000871
:1001C80010B5054C237833B9044B13B10448AFF389
:1001D80000800123237010BD0C00002000000000E7
:1001E800B044000808B5034B1BB103490348AFF3FB
:1001F800008008BD0000000010000020B044000886
:1002080053B94AB9002908BF00281CBF4FF0FF3175
:100218004FF0FF3000F072B9ADF1080C6DE904CE73
:1002280000F006F8DDF804E0DDE9022304B07047C9
:100238002DE9F047089E04468846002B4BD18A4298
:10024800154667D9B2FA82F24AB1C2F1200701FA1B
:1002580002F320FA07F7954047EA030894404FEA6B
:10026800154E230CB8FBFEF71FFA85FC0EFB17880A
:1002780043EA084307FB0CF1994209D9EB1807F147
:10028800FF3080F01B81994240F21881023F2B44D5
:100298005B1AA4B2B3FBFEF00EFB103344EA03442E
:1002A80000FB0CFCA44509D92C1900F1FF3380F0A0
:1002B8000781A44540F2048102382C4440EA0740F3
:1002C800A4EB0C0400271EB1D4400023C6E9004368
:1002D8003946BDE8F0878B4209D9002E00F0EB8043
:1002E8000027C6E9000138463946BDE8F087B3FA69
:1002F80083F7002F47D18B4202D3824200F2FA8063
:10030800841A61EB030301209846002EE0D0C6E969
:100318000048DDE702B9FFDEB2FA82F2002A40F0B7
:100328008F80491B4FEA154E1FFA85F80127B1FB4C
:10033800FEFC230C0EFB1C1143EA014308FB0CF1E5
:10034800994207D9EB180CF1FF3002D2994200F21A
:10035800CD808446591AA3B2B1FBFEF00EFB1014EF
:1003680043EA044408FB00F8A04507D92C1900F11A
:10037800FF3302D2A04500F2B6801846A4EB080469
:1003880040EA0C409FE7C7F1200CBB4022FA0CFE64
:100398004EEA030E01FA07F420FA0CF521FA0CF3E1
:1003A8004FEA1E482543B3FBF8F92C0C08FB193318
:1003B8001FFA8EFA44EA034309FB0AF49C4202FA44
:1003C80007F200FA07F10BD91EEB030309F1FF301E
:1003D80080F087809C4240F28480A9F1020973442E
:1003E8001B1BADB2B3FBF8F008FB103345EA03441E
:1003F80000FB0AFAA24508D91EEB040400F1FF33FA
:100408006BD2A24569D90238744440EA0940A0FB7E
:100418000289A4EB0A044C45C2464B4654D351D03A
:10042800002E69D0B1EB0A0564EB030404FA0CFC56
:10043800FD40FC404CEA0505C6E90054002747E7A3
:10044800C2F1200320FA03F7954001FA02F021FADD
:1004580003F34FEA154E3843010CB3FBFEF71FFABE
:1004680085F80EFB173341EA034107FB08F38B427B
:1004780004FA02F407D9691807F1FF3C2FD28B421E
:100488002DD9023F2944CB1A81B2B3FBFEF00EFBF3
:10049800103341EA034100FB08F38B4207D969187E
:1004A80000F1FF3C17D28B4215D902382944C91AEA
:1004B80040EA07473BE73746304609E70746E7E69D
:1004C8001846FBE64145ABD2B8EB020A69EB0E02CF
:1004D80001381346A4E76046E9E7184695E76746FA
:1004E800D1E781467CE702382C4447E7ACF1020C9F
:1004F8002B442FE7384608E73746E9E6704700BF40
:10050800034B1860034B1960034B1A60704700BF18
:1005180028000020300000202C000020002305E0E7
:10052800044A126881B222F813100133B3F5FF3F71
:10053800F6DB70472C000020F0B4DDF810C001395C
:10054800013B0CE0094D2D6805FB0345084E366854
:1005580087B226F815700134A242F3D801339C45BE
:1005680001D90C46F8E7F0BC704700BF3000002006
:100578002C000020044B1B6803FB0101034B1B6884
:1005880092B223F811207047300000202C00002080
:1005980010B4C0F30743C3EB4313134A82FB034170
:1005A8001944DB17C3EBE111C0F30723C3EB831333
:1005B80082FB03C41C44DB17C3EBE413C0B2C0EBDB
:1005C800401082FB00420244C017C0EBE210C2B2E6
:1005D800580100F4FF501043C90201F4FF210843F9
:1005E80080B25DF8044B70478180808010B582B07E
:1005F80002464068074B18609168074B1960147BE6
:10060800064B1C70537B12680094FFF779FF02B009
:1006180010BD00BF380000203C000020340000203E
:100628002DE9F8439146013887B201398DB205EBBF
:1006380003081FFA88F83B449EB213E00134A4B2C1
:10064800B4420DD20A4B1B689D42F7D2094B1B6876
:100658009C42F3D24A4629462046FFF78BFFEDE736
:100668000135ADB2454501D23C46E9E7BDE8F8831E
:10067800380000203C00002010B504460C4B1B78C5
:1006880043B10B4B1B78012B09D0094B1B78022B6C
:100698000AD010BDFFF77CFFFFF740FFF1E744F0F9
:1006A8007F40FFF73BFFF0E72046FFF737FFF0E713
:1006B800340000202DE9F04182B0804615461C46E2
:1006C800089F0E1E03DD264B1B689E4205D9002D90
:1006D80028DD234B1B689D4224D8002C03DD214BC9
:1006E8001B689C4205D9002F1CDD1E4B1B689F42CE
:1006F80018D8002E19DD1A4B1B689D4200D91E46DA
:10070800002C14DD174B1B689F4200D91C46164B62
:100718001B7873B1144B1B78012B14D0124B1B7828
:10072800022B19D002B0BDE8F0810126E3E70124CD
:10073800E8E74046FFF72CFF009723462A46314654
:10074800FFF7FAFEE6E7009723462A46314648F0C7
:100758007F40FFF7F1FEE1E74046FFF7DFFEE1E704
:100768003C000020380000203400002010B582B082
:100778009DF810400CB902B010BD013C53FA84F446
:100788000094FFF797FFF6E730B583B09DF818405F
:100798000CB903B030BD1D461346013C009551FA13
:1007A80084F2FFF787FFF4E72DE9F04782B00746A8
:1007B800084692461C46BDF92880BDF92C909DF844
:1007C8003060751EEDB2CDF8009043462246514682
:1007D800FFF770FF00964346224651463846FFF71A
:1007E800C5FFADB2A9EB050300961BB222465146E0
:1007F8003846FFF7BBFF00964B46424651463846FF
:10080800FFF7C2FF611B00964B46424609B23846C5
:10081800FFF7BAFF02B0BDE8F0872DE9F04F87B0C7
:10082800049005910293BDF840300193C2F100098C
:10083800C2F101024FEA42084FF0000A0CE04346B9
:10084800C14545DA09F101094FEA490808F10108EB
:100858009844B9F1000F3DDCBDF810401FFA89FB40
:10086800A4EB0B0398B21FFA8AF6BDF81450771957
:10087800BFB2019B029A39460390FFF7D1FE5C4450
:10088800A4B2019BDDF808B05A4639462046FFF766
:10089800C7FEAD1BADB2019E33465A4629462046D7
:1008A800FFF7BEFE33465A4629460398FFF7B8FEBF
:1008B800C245C4DB0AF1010A4FEA4A030133434443
:1008C8001AEB090FBCD1C145BADB4FF00008B7E7F6
:1008D8009846BEE707B0BDE8F08FF0B583B007468D
:1008E8000E4614461D4609E0022300932B4622B209
:1008F80031B238B2FFF791FF013CA4B2002CF3D11A
:1009080003B0F0BD2DE9F04784B00646884691460D
:100918001C46BDF83050BDF83400BDF838C0BDF8ED
:1009280048309DF84C105F1EBFB2ACEB050292B286
:1009380007EE902A03293FD0421B06EE902AF8EED4
:10094800E66AA4EB090206EE102AB8EEC66A86EE3D
:10095800267AF8EEE77A27EE877A07EE904AF8EEDD
:10096800E77A77EEC77AFCEEE77A17EE905A13FA31
:1009780085F5ADB24FF0000A032900F09F80DBB285
:10098800029323B201930FFA89F300930FFA88F3C5
:1009980032B210990F98FFF707FF711CA8EB0702F6
:1009A800E41B013C00942B46013A39441198FFF7A7
:1009B80081FE04B0BDE8F087BCF1010F2AD04FF0EA
:1009C800000AAC4554D0AC4576D9401B07EE100A56
:1009D800F8EEC76AA8EB060206EE102AB8EEC66A59
:1009E80086EE267AF8EEE77A27EE877A07EE906A9F
:1009F800F8EEE77A77EE877A07EE107AB8EEC77ADC
:100A080077EEC77AFCEEE77A17EE902A1FFA82FA99
:100A18000025B1E7421B06EE102AB8EEC66AA8EB1D
:100A2800060205EE902AF8EEE55AC5EE866A07EE4C
:100A3800105AB8EEC77A27EE267AF8EEE76A76EE0D
:100A4800C76A07EE106AB8EEC77A37EE267AF7EE6D
:100A5800006A77EE266A07EE107AB8EEC77A37EEA4
:100A6800267ABCEEC77A17EE102A1FFA82FAA8E790
:100A7800421B06EE102AB8EEC66AA8EB060205EE7F
:100A8800902AF8EEE55A85EE867AF8EEE76A66EE81
:100A9800876A07EE106AB8EEC77A77EE266A07EE1D
:100AA800107AB8EEC77A37EE267ABCEEC77A17EE18
:100AB800102A1FFA82FA86E700255DE7DBB2029367
:100AC80023B201930FFA89F300930FFA88F332B235
:100AD80010990F98FFF768FE711C09F10103E41BD8
:100AE800013C00943B440AF1FF3239441198FFF766
:100AF800E1FD5EE72DE9F04784B004460D469046D7
:100B08001F46BDF930C0BDF93410BDF938E09DF875
:100B180048009DF84C601FFA8EF31FFA8CF29B1A5E
:100B28009BB207EE903A03283BD0A1EB0C0307EEEB
:100B3800103AB8EEC77AA7EB080306EE903AF8EE3B
:100B4800E66A86EE876AF8EEE77A67EE867A07EE57
:100B5800107AB8EEC77A77EE677AFCEEE77A17EE86
:100B6800903A1FFA83F94FF0000A032800F08B80AF
:100B7800012302930197CDF800802B462246109955
:100B88000F98FFF711FE281B00F1968004EB600018
:100B9800119B3246494680B2FFF79FFE04B0BDE87C
:100BA800F087BEF1010F25D04FF0000AE64549D085
:100BB800E64565DDA1EB0C0107EE101AF8EEC76AF1
:100BC8002B1B06EE103AB8EEC66A86EE267AF8EEC9
:100BD800E77A27EE877A07EE904AF8EEE77A77EE1B
:100BE800877AFCEEE77A17EE903A1FFA83FA4FF00D
:100BF8000009BAE7A1EB0C0306EE103AB8EEC66A94
:100C08002B1B05EE903AF8EEE55A85EE867A06EE4D
:100C180090CAF8EEE66A66EE876AB8EEE77A77EE8B
:100C2800666A07EE104AB8EEC77A37EE267AF7EE0C
:100C3800006A37EE267ABCEEC77A17EE103A1FFA2A
:100C480083FAB3E7A1EB0C0306EE103AB8EEC66AD6
:100C58002B1B05EE903AF8EEE55AC5EE866AB8EE1B
:100C6800E77A67EE266A07EE104AB8EEC77A37EEDB
:100C7800267ABCEEC77A17EE103A1FFA83FA97E77E
:100C88004FF0000971E7012302930197CDF8008026
:100C98002B46224610990F98FFF786FDB7EB0807F9
:100CA80008D408EB6707119B3246B9B25046FFF7E4
:100CB80014FE73E70137F4E7013067E72DE9F84FD1
:100CC8002DED068B0F469A46109D119C013A0FFA9E
:100CD80082F901380FFA80FB724B1E783EB928461C
:100CE800FFF756FC05462046FFF752FC0446012E46
:100CF80035D0BBF1000F37DD6B4B1B689F4200D925
:100D08001FB2B9F1000F32DD684B1B689A4501D953
:100D18000FFA83FA76B3EBB209EE903AF8EEE99A55
:100D2800C5F3072309EE103AB8EEC99AC5F307458B
:100D380007EE905AB8EEE78AE3B20AEE903AF8EE78
:100D4800EAAAC4F307230AEE103AB8EECAAAC4F313
:100D5800074407EE904AF8EEE78A4E4661E045F010
:100D68007F4544F07F44C4E74FF0010BC4E74FF0E0
:100D78000109C9E705F01F0309EE903AF8EEE99A70
:100D8800C5F3451309EE103AB8EEC99AC5F3C42560
:100D980007EE905AB8EEE78A04F01F030AEE903A7D
:100DA800F8EEEAAAC4F345130AEE103AB8EECAAA56
:100DB800C4F3C42407EE904AF8EEE78ACDE7B7EE0D
:100DC800007A37EE677A67EE086A28EEA76A76EE49
:100DD800866AFCEEE66A16EE903A67EE096A2AEE33
:100DE800276A76EE866AFCEEE66A16EE905A45EABF
:100DF800831527EE297A6AEEA77A77EE277AFCEE32
:100E0800E77A17EE903A43EA451545E02A46414607
:100E18002046FFF7AFFB013424B2A742F6DC0136C7
:100E280036B2B2453ADDB046A6EB090306EE903A73
:100E3800F8EEE66AAAEB090307EE103AB8EEC77AAD
:100E4800C6EE877A174B1B78002BB8D0B7EE007A1E
:100E580037EE677A67EE086A28EEA76A76EE866A42
:100E6800FCEEE66A16EE903A67EE096A2AEE276A01
:100E780076EE866AFCEEE66A16EE905A45EA032597
:100E880027EE297A6AEEA77A77EE277AFCEEE77AD8
:100E980017EE903A43EA05255C46BEE7BDEC068BA3
:100EA800BDE8F88F340000203C0000203800002006
:100EB8002DE9F84F2DED068B89461F46109D119C94
:100EC800013A0FFA82FB01380FFA80FA764B1E7846
:100ED8003EB92846FFF75CFB05462046FFF758FB5E
:100EE8000446012E36D0BAF1000F38DD6F4B1B686F
:100EF800994501D90FFA83F9BBF1000F32DD6C4B2C
:100F08001B689F4200D91FB27EB3EBB209EE903A3C
:100F1800F8EEE99AC5F3072309EE103AB8EEC99A34
:100F2800C5F3074507EE905AB8EEE78AE3B20AEE32
:100F3800903AF8EEEAAAC4F307230AEE103AB8EE9C
:100F4800CAAAC4F3074407EE904AF8EEE78A1FFAE4
:100F58008AF661E045F07F4544F07F44C3E74FF0EF
:100F6800010AC3E74FF0010BC9E705F01F0309EEBB
:100F7800903AF8EEE99AC5F3451309EE103AB8EE3F
:100F8800C99AC5F3C42507EE905AB8EEE78A04F06B
:100F98001F030AEE903AF8EEEAAAC4F345130AEEE4
:100FA800103AB8EECAAAC4F3C42407EE904AF8EE81
:100FB800E78ACCE7B7EE007A37EE677A67EE086A19
:100FC80028EEA76A76EE866AFCEEE66A16EE903A96
:100FD80067EE096A2AEE276A76EE866AFCEEE66A0A
:100FE80016EE905A45EA831527EE297A6AEEA77A13
:100FF80077EE277AFCEEE77A17EE903A43EA451542
:101008004CE02A4621464046FFF7B4FA013424B2A0
:10101800A742F6DC0136B6B24B464E4540DA09F136
:10102800FF32B24201DA214A1688B046A6EB0A021C
:1010380006EE902AF8EEE66AA3EB0A0307EE903A6A
:10104800B8EEE77AC6EE877A174B1B78002BB1D03B
:10105800B7EE007A37EE677A67EE086A28EEA76A75
:1010680076EE866AFCEEE66A16EE903A67EE096A54
:101078002AEE276A76EE866AFCEEE66A16EE905A43
:1010880045EA032527EE297A6AEEA77A77EE277ACA
:10109800FCEEE77A17EE903A43EA05255C46B7E797
:1010A800BDEC068BBDE8F88F340000203C00002022
:1010B800380000202DE9F04182B080460F461D46D9
:1010C800099E9C1A16D402EB640424B20196089B6C
:1010D8000093234639464046FFF7F0FD0A9B0193EB
:1010E80000962B46224639464046FFF7E7FD02B0F8
:1010F800BDE8F0810134E6E72DE9F04182B00D4604
:1011080090461F46099E0C1A16D400EB640424B2BC
:101118000196089B00933B4642462146FFF7C8FECE
:101128000A9B019300963B46424629462046FFF714
:10113800BFFE02B0BDE8F0810134E6E72DE9F041D9
:1011480088B004694569866990F828C090F829E054
:10115800B0F80C80028981880788CDF81CE0CDF8AA
:1011680018C0436A0593036A0493C0690390B6B232
:101178000296ADB20195A4B2009443463846FFF7F3
:10118800C1FB08B0BDE8F0812DE9F04188B00469E1
:1011980045698669C369039390F828C0B0F90C8043
:1011A800B0F90820B0F90410B0F9007090F82CE0FC
:1011B800CDF81CE0CDF818C0436A0593006A049086
:1011C80036B202962DB2019524B2009443463846B1
:1011D800FFF790FC002008B0BDE8F08130B583B07F
:1011E80004694569B0F90C30B0F90820B0F9041069
:1011F800B0F9000001950094FFF760FD002003B0EE
:1012080030BD30B583B004694569B0F90C30B0F928
:101218000820B0F90410B0F9000001950094FFF718
:1012280047FE002003B030BD30B585B0B0F90C30B2
:10123800B0F90820B0F90410B0F9004085690295AA
:1012480045690195006900902046FFF733FF0020AB
:1012580005B030BD30B585B0B0F90C30B0F9082014
:10126800B0F90410B0F90040856902954569019507
:10127800006900902046FFF73FFF002005B030BD11
:10128800F0B5CFB0794D00242C734FF488736B60A0
:101298004FF4F073AB6001236B73754929602246E4
:1012A800744801F05BFD2846FFF7A0F94FF47F4032
:1012B800FFF7E2F94FF47A7000F0E0FF4FF0C80E44
:1012C800CDF80CE14FF4C87CCDF810C10523459347
:1012D8000F23469347940A214891062049900325F5
:1012E8008DF834514B94FF224A924FF47F034C936C
:1012F8008DF835511E263896322639963A914FF494
:1013080083763B963C943D913E908DF808514094ED
:101318003F92419304278DF80971CDF8ACE0CDF8E0
:10132800B0C04FF0140ECDF8B4E04FF0190CCDF862
:10133800B8C02F943091329233938DF8D4503690B0
:101348004D4D3495CDF878E0CDF87CC020912196AC
:1013580022942391259226938DF8A07029902795A1
:101368001B9346491C918DF875408DF87440149371
:1013780015918DF859408DF8584040F25914089449
:1013880040F2BD100990BE210A910B960C934FF4C0
:101398007F410D910E920094019071200290B92026
:1013A80003900493059106924DE049943E9431943C
:1013B80024946620FFF760F943A8FFF7BFFE38A81A
:1013C800FFF7BCFE2BA8FFF7DFFE1EA8FFF7DCFE29
:1013D80017A8FFF703FF10A8FFF713FF08A8FFF7E8
:1013E80039FF6846FFF720FF4FF4487000F046FFCA
:1013F8000134E4B20A2CD8D94FF4967000F03EFFBD
:101408000223179340F2DF111891199340F20F123B
:101418001A9210931191129313924FF47F40FFF791
:101428002BF917A8FFF7DAFE41F2883000F026FF03
:101438004FF47F40FFF720F910A8FFF7E2FE41F2D2
:10144800883000F01BFFF02317934FF4AA7318930A
:10145800BE2219924FF483731A9387211091EB21BE
:101468001191129213930024C4E700BF4400002096
:101478005400002024FD032000FFFF00FF33330049
:1014880010B584B00024009401940294039400F0F1
:101498005BFF01238DF800308DF801400D4A019261
:1014A80011228DF808208DF809408DF80A40032292
:1014B8008DF80B208DF80C408DF80D408DF80E300E
:1014C8008DF80F40684600F061FF042000F04CFFE3
:1014D80004B010BD040000202DE9F04F91B00024A5
:1014E8000B940C940D940E940F94A94B1A6B42F024
:1014F80010021A631A6B02F010020092009A1A6B1B
:1015080042F040021A631A6B02F040020192019AFB
:101518001A6B42F002021A631A6B02F0020202927C
:10152800029A1A6B42F008021A631A6B02F0080258
:101538000392039A1A6B42F004021A631A6B02F0C0
:1015480004020492049A1A6B42F001021A631A6B9D
:1015580002F001020592059A1A6B42F400721A63AE
:101568001A6B02F400720692069A1A6B42F48072A1
:101578001A631A6B02F480720792079A1A6B42F484
:1015880080621A631A6B02F480620892089A1A6BD6
:1015980042F020021A631A6B02F020020992099A9B
:1015A8001A6B42F080021A631B6B03F080030A93E4
:1015B8000A9B01222021774801F030F922460C21AC
:1015C800754801F02BF901220821744801F026F929
:1015D80001224FF48051704801F020F922464FF45F
:1015E80000516F4801F01AF92246C8216D4801F0F0
:1015F80015F94FF0080BCDF82CB00C940D940BA9ED
:10160800694801F01DF804230B9302250C950D94ED
:1016180003260E9609230F930BA9634801F010F8CF
:101628004FF4D0430B930C950D940E960B230F9308
:101638000BA95C4801F004F84FF440730B93122394
:101648000C930D940E9404230F930BA9574800F0A4
:10165800F7FF43F623430B930C950D940E964FF02A
:101668000A08CDF83C800BA9504800F0E9FF102388
:101678000B930C950D940E940F950BA94B4800F005
:10168800DFFF4FF0800ACDF82CA00C950D940E9436
:10169800CDF83CB00BA93F4800F0D2FF4FF400430F
:1016A8000B930C950D940E9401270F970BA94048A6
:1016B80000F0C6FF60230B930C950D940E944FF029
:1016C8000D09CDF83C900BA9374800F0B9FFCDF8CB
:1016D8002CA00C950D940E9407230F930BA9334857
:1016E80000F0AEFF40230B930C950D940E96CDF8A9
:1016F8003C800BA92D4800F0A3FF4FF480530B93B7
:101708000C940D940BA92B4800F09AFF40230B93DF
:10171800294B0C930D940BA91E4800F091FF4FF430
:10172800E0530B930C950D940E96CDF83C800BA9C5
:101738001F4800F085FFF0230B930C950D940E9431
:10174800CDF83C800BA9144800F07AFF4FF4806371
:101758000B930C950D940E94CDF83C800BA9114871
:1017680000F06EFF20230B930C970D940E940BA999
:10177800084800F065FFCDF82CB00C950D940E9438
:10178800CDF83C900BA9034800F05AFF16E000BFC3
:1017980000380240000C02400020024000280240AD
:1017A800001C0240001802400010024000040240E1
:1017B80000000240002402400000121041F20C0315
:1017C8000B930C970D940E940BA98D4800F038FFDD
:1017D8004FF4005ACDF82CA00C940D940BA989480D
:1017E80000F02EFFCDF82CB00C970D940E940BA999
:1017F800854800F025FF4FF400720B920C950D946C
:101808000E94CDF83C900BA9804800F019FF1022E7
:101818000B920C940D940BA97D4800F011FF48F22F
:1018280004030B930C940D940BA97A4800F008FF5D
:101838000B950C950D940E9405220F920BA97048E8
:1018480000F0FEFECDF82CA00C970D940E940BA979
:10185800704800F0F5FE4FF4BC430B930C950D94C3
:101868000E94CDF83C900BA96A4800F0E9FE0B975E
:101878000C950D940E940F950BA9614800F0E0FEAD
:101888004FF400720B920C950D940E9407220F9250
:101898000BA9614800F0D4FE4FF480730B930C95AC
:1018A8000D940E940F970BA95B4800F0C9FECDF874
:1018B8002CA05A4B0C930D940BA9514800F0C0FE74
:1018C800C0230B930C950D940E96CDF83CB00BA944
:1018D8004C4800F0B5FE10230B930C950D940E9612
:1018E800CDF83C800BA94B4800F0AAFEC8230B9307
:1018F8000C970D940E940BA9444800F0A1FE4FF4E8
:10190800F8630B930C960D940BA9454800F098FECC
:1019180005230B930C950D940E96CDF83C800BA9DE
:10192800384800F08DFE32230B930C950D940E96DB
:101938000B230F930BA9334800F082FE04230B936B
:101948000C950D940E9609230F930BA9354800F0BA
:1019580077FE4FF460530B930C950D940E96092364
:101968000F930BA92A4800F06BFE04230B930C94E9
:101978000D940BA9254800F063FE86230B930C9564
:101988000D940E960B230F930BA9234800F058FED5
:101998000B970C960D940BA91F4800F051FE50238D
:1019A8000B930C950D940E94CDF83C900BA91A4806
:1019B80000F046FE28230B930C950D940E96CDF857
:1019C8003C800BA9144800F03BFE40230B930C9578
:1019D8000D940E9409230F930BA90E4800F030FEC6
:1019E8004FF440430B930C950D940E9405230F93DD
:1019F8000BA90C4800F024FE11B0BDE8F08F00BF21
:101A0800002002400008024000280240001802405E
:101A1800000C0240001C02400000024000001210AE
:101A2800001402400004024008B50268034B9A42C1
:101A380000D008BD00F010FCFBE700BF001000401C
:101A480072B6FEE708B50C480C4B036000234360F0
:101A580002228260C3608362C2620363436300F050
:101A6800BFFC28B90121044800F088FD10B908BD61
:101A7800FFF7E6FFFFF7E4FFECFD032000B00240AC
:101A880000B589B01448154B036000234360836098
:101A98000421C16010220261402242614FF4C072E9
:101AA8008261C3614FF4006202624FF48052426265
:101AB8008362022301930622029203910492059302
:101AC80006930793694402F04BFA10B909B05DF820
:101AD80004FBFFF7B5FF00BF2CFE0320400100A068
:101AE80008B51148114B0360114B4360E023836034
:101AF8000123C3600023036143618361C3610362FF
:101B080000F092FE50B90021074800F0EBFE38B90A
:101B18000021054800F014FF20B908BDFFF790FF29
:101B2800FFF78EFFFFF78CFF54FC0320005C00409A
:101B3800FFEAC00000B58FB03422002101A802F0EE
:101B4800ABFC2648264B0360002343608360C360D8
:101B5800036128224261092282613522C2610B2277
:101B6800026240F21522426240F21B12826240F287
:101B78003522C26240F21D12026380F8343080F8C8
:101B8800353080F8363000F0D1FF18BB00220192C2
:101B98004FF4F071029103924FF48873049302207A
:101BA8000590FF20069007924FF48060089005206A
:101BB80009900A920B910C938DF834208DF83520FA
:101BC8008DF8362001A9054801F09AF820B90FB020
:101BD8005DF804FBFFF734FFFFF732FF24FD032015
:101BE8000068014010B592B000240C940D940E9436
:101BF8000F94109411940B942C222146684602F0FD
:101C08004BFC3148314B036044607F238360FF23E2
:101C1800C36004614461846101F068FF002847D112
:101C280000238DF830308DF831308DF83230109334
:101C3800119301220CA9244801F0C6FF002839D1CC
:101C480001228DF82C208DF82D208DF82E200023D0
:101C58008DF82F300BA91C4802F036F860BB002322
:101C68008DF800308DF801308DF80230019304931F
:101C7800059306930793089301228DF824204FF4C7
:101C880080730A936946104802F08CF8B0B94FF493
:101C980000730A93012269460B4802F083F878B969
:101CA80002220021084802F02DF958B912B010BDDF
:101CB800FFF7C6FEFFF7C4FEFFF7C2FEFFF7C0FE40
:101CC800FFF7BEFEFFF7BCFECCFD03200028004056
:101CD80000B5B5B03022002128A802F0DDFB0021B4
:101CE80023912491259126912791842202A802F01C
:101CF800D3FB01F055F8334B1A6C42F080521A644A
:101D08001B6C03F080530093009B2F4B1A6842F41E
:101D180040421A601B6803F440430193019B092366
:101D280028934FF48033299301232D9302232E9374
:101D38004FF480022F92192230924FF4C8723192D8
:101D480032930823339328A801F070F8002831D182
:101D580001F02EF800282FD10F2323930223249378
:101D6800002325934FF4A05326934FF480532793D1
:101D7800062123A801F0C8FA00BB144B0293642380
:101D8800079302230993089300230A9301220C92D4
:101D98004FF480320D924FF400720E921D934FF063
:101DA80000622192229302A801F096FB40B935B057
:101DB8005DF804FBFFF744FEFFF742FEFFF740FE25
:101DC800FFF73EFE00380240007000402800A100E6
:101DD80008B5FFF755FB00F02DFAFFF779FF4FF430
:101DE800FA7000F04BFAFFF777FBFFF72BFEFFF7CF
:101DF80047FEFFF775FEFFF79DFEFFF7F3FEFFF7BF
:101E08003FFAFCE7F0B587B00023019302930393F0
:101E1800049305932A4B1B680BB107B0F0BD284B00
:101E280001221A60274B9A6B42F001029A639B6B5E
:101E380003F001030093009B4FF68373019302267E
:101E48000296032504950C24059401A91E4800F068
:101E5800F7FB48F233130193029600270397049582
:101E6800059401A9194800F0EBFB4CF203730193A8
:101E7800029603970495059401A9154800F0E0FB24
:101E88004FF63F030193029603970495059401A921
:101E9800104800F0D5FB2823019302960397049578
:101EA800059401A90C4800F0CBFB08230193029686
:101EB80003970495059401A9084800F0C1FBACE715
:101EC8004000002000380240001002400018024084
:101ED800000C024000140240001C024000080240AE
:101EE80082B00A4B1A6C42F080521A641A6C02F0E3
:101EF80080520092009A5A6C42F480425A645B6C99
:101F080003F480430193019B02B0704700380240FC
:101F180002680E4B9A4200D0704700B583B0A3F513
:101F2800F0431A6B42F400021A631B6B03F40003BC
:101F38000193019B002211465A2000F0C5F95A204E
:101F480000F0F4F903B05DF804FB00BF00B00240F4
:101F580010B588B000230393049305930693079361
:101F68000268144B9A4201D008B010BD124C236B82
:101F780043F080032363236B03F080030193019BE9
:101F88004FF4C0730393122304930123059303238F
:101F980006930423079303A9084800F051FB236C18
:101FA80043F400032364236C03F400030293029BAD
:101FB800DAE700BF005C004000380240001C024025
:101FC80070B58CB000230793089309930A930B9379
:101FD80002683E4B9A4201D00CB070BD03F55043E5
:101FE8005A6C42F080625A645A6C02F08062019224
:101FF800019A1A6B42F010021A631A6B02F010026F
:102008000292029A1A6B42F400721A631A6B02F473
:1020180000720392039A1A6B42F480621A631A6B75
:1020280002F480620492049A1A6B42F040021A6326
:102038001A6B02F040020592059A1A6B42F48072FC
:102048001A631B6B03F480730693069B1023079394
:10205800022508950E260B9607A91D4800F0F0FAF0
:102068004EF6FF7307930895002409940A940B967B
:1020780007A9184800F0E4FAF7230793089509948C
:102088000A940B9607A9144800F0DAFA4FF4805323
:102098000793089509940A9409230B9307A90F48F5
:1020A80000F0CEFA4FF446430793089509940A9432
:1020B8000B9607A90A4800F0C3FA22462146582081
:1020C80000F002F9582000F031F985E70068014076
:1020D800001002400024024000280240001802407C
:1020E800002002400268054B9A4200D07047044A1B
:1020F800136F43F400431367F8E700BF002800405C
:102108000038024008B5FFF77DFE08BD00B589B06C
:1021180000220146362000F0D7F8362000F006F9F4
:10212800154B1A6C42F010021A641B6C03F0100372
:102138000193019B02A903A801F0B0F901F09EF9EF
:1021480043000E48A0FB03239B0C013B0C480D4A9F
:10215800026040F2E732C26043600023036183609B
:1021680002F0BEF818B1012009B05DF804FB04487C
:1021780001F016FFF8E700BF0038024083DE1B437A
:1021880060FE032000100040FEE7FEE7FEE7FEE7E2
:10219800FEE77047704770477047000008B502486F
:1021A80001F04AFF08BD00BF60FE032008B50248E1
:1021B80000F039FD08BD00BF24FD032008B5024822
:1021C80000F03EF908BD00BFECFD0320034AD2F839
:1021D800883043F47003C2F88830704700ED00E09F
:1021E800DFF834D00D480E490E4A002302E0D458D7
:1021F800C4500433C4188C42F9D30B4A0B4C002347
:1022080001E013600432A242FBD3FFF7DFFF02F0C4
:102218001FF9FFF7DDFD70470000052000000020D2
:102228000C000020F04400080C000020B0FE032041
:10223800FEE7000008B5074A136843F4007313600B
:10224800032000F02FF80020FFF760FFFFF748FE9B
:10225800002008BD003C0240034A1168034B1B786C
:102268000B441360704700BFACFE0320040000203D
:10227800014B1868704700BFACFE032038B5044610
:10228800FFF7F6FF0546B4F1FF3F02D0044B1B7879
:102298001C44FFF7EDFF401BA042FAD338BD00BF36
:1022A800040000200649CB6823F4E0631B041B0CE0
:1022B800000200F4E0600343024A1A43CA60704710
:1022C80000ED00E00000FA0530B4154BDB68C3F3FD
:1022D8000223C3F10704042C28BF04241D1D062D66
:1022E80014D9033B4FF0FF3505FA04F421EA040141
:1022F800994005FA03F322EA03031943002807DB90
:102308000901C9B2074B195430BC70470023E9E7EB
:1023180000F00F000901C9B2034B1954F4E700BFDC
:1023280000ED00E000E400E014ED00E0002807DB29
:1023380000F01F02400901239340024A42F820306E
:10234800704700BF00E100E0BFF35F8F044A536AA3
:1023580023F480335362034B00225A60704700BF56
:1023680000ED00E090ED00E040F00100054B586002
:10237800054A536A43F480335362BFF34F8FBFF368
:102388006F8F704790ED00E000ED00E04278134B4E
:102398009A60037823B9114B0022DA601A617047FA
:1023A80043680E4AD360017BC37A1B0643EA017374
:1023B800817A43EAC143417B43EA8143817B43EA13
:1023C8004143C17B43EA0143417A43EA0123017A4D
:1023D80043EA410301780B431361704790ED00E035
:1023E80038B310B5044690F83930EBB1022384F8BD
:1023F80039302268136823F4403361680B43136053
:102408002268536B23F00703A1680B4353632268C8
:10241800116C094B0B40E1680B4313640020E06327
:10242800012384F8393010BD80F83830FFF770FD8B
:10243800DCE70120704700BF00C0FFFF704770470E
:1024480070B5044603685D681E6815F0010F16D064
:1024580016F4807F13D01A6822F480721A60C36B56
:1024680043F00103C363036801229A60042380F8E0
:102478003930002380F83830436903B1984715F0A4
:10248800200F18D016F4005F15D02268136823F4C3
:1024980000531360236820229A60E36B43F0020321
:1024A800E363042384F83930002384F838306369FF
:1024B8000BB12046984715F0080F18D016F4006F96
:1024C80015D02268136823F4006313602368082278
:1024D8009A60E36B43F00403E363042384F8393020
:1024E800002384F8383063690BB12046984715F00B
:1024F800040F02D016F4806F20D115F0020F16D009
:1025080016F4007F13D02268136823F40073136055
:10251800236802229A60E36BE363012384F839306D
:10252800002384F8383023690BB12046984715F00A
:10253800100F02D016F4805F0CD170BD22681368AA
:1025480023F480631360236804229A602046FFF70F
:1025580075FFD2E72268136823F480531360236859
:1025680010229A60E36BE363012384F83930002377
:1025780084F838302046FFF762FFDEE790F83830FD
:10258800012B59D030B4012380F83830022380F869
:10259800393000EB0113DA698B1C1B01C35842EA7E
:1025A8000343093A012A1ED98A1C00EB0212526819
:1025B80043EA026341BB0468656A204A2A40134320
:1025C8006362026800EB01139C699461DB69093B53
:1025D800012B10D9012380F83930002380F83830D6
:1025E800184630BC70478A1C00EB0212526802F091
:1025F8007F421343DEE7023100EB01114B680268AA
:1026080023F07F439362E5E70468E5690B4A2A40B3
:102618001343E361026800EB01139C691461DB69F1
:10262800093B012BD6D8023100EB01114B68026837
:1026380023F07F431362CDE702207047F0FFFC00D0
:1026480000230F2B00F2E180F0B583B039E00922B6
:1026580000E00022B2403A4302346C4E46F824208F
:102668006B4A1468EA4302EA04064F6817F4803F8D
:1026780001D045EA0406664C2660646802EA04064E
:102688004F6817F4003F01D045EA0406604C6660C5
:10269800A46802EA04064F6817F4801F01D045EACF
:1026A80004065B4CA660E46822404E6816F4001FDE
:1026B80001D045EA0402564CE26001330F2B00F2C8
:1026C800A28001229A400C6804EA0205AA42F4D1C9
:1026D8004C68661E112C18BF012E01D9122C12D17C
:1026E80086685F000324BC4026EA0406CC68BC4028
:1026F80034438460466826EA02064C68C4F3001234
:102708009A4032434260C2685F000326BE40F643E7
:1027180032408C68BC401443C4604A68122A18BF0F
:10272800022A13D1DC08083450F824E003F0070229
:102738004FEA820C0F2202FA0CF22EEA020E0A6904
:1027480002FA0CF242EA0E0240F82420026816400F
:102758004A6802F00302BA40324302604A6812F043
:10276800805FAAD02B4A546C44F480445464526C61
:1027780002F480420192019A9C08A61C234A52F84E
:10278800267003F0030296000F22B24027EA0207E0
:10279800214A90423FF45DAF02F58062904222D018
:1027A80002F58062904220D002F5806290421ED0ED
:1027B80002F5806290421CD002F5806290421AD0E5
:1027C80002F58062904218D002F58062904216D0DD
:1027D80002F58062904214D002F5806290423FF484
:1027E80036AF0A2236E7012234E7022232E7032213
:1027F80030E704222EE705222CE706222AE70722E3
:1028080028E7082226E703B0F0BD704700380140EA
:10281800003C0140003802400000024012B909049F
:102828008161704781617047002857D010B5044610
:1028380090F84130002B41D0242384F8413022689D
:10284800136823F0010313606368226823F0706340
:1028580013612268936823F400439360E368012BB3
:1028680031D0A368226843F404439360E368022BE1
:102878002FD0226851681A4B0B4353602268D368E3
:1028880023F40043D360236962691343A169226872
:1028980043EA0123D360E369216A22680B4313608A
:1028A8002268136843F0010313600020606420234A
:1028B80084F84130206384F8420010BD80F840302D
:1028C800FFF746FBB8E7A368226843F40043936028
:1028D800CCE723684FF400625A60CAE701207047CA
:1028E8000080000290F84130DBB2202B24D190F810
:1028F8004030012B22D0012380F84030242380F877
:1029080041300268136823F00103136002681368FA
:1029180023F4805313600268136819431160026836
:10292800136843F001031360202380F8413000232B
:1029380080F84030184670470220704702207047E0
:1029480090F84130DBB2202B22D190F84030012B97
:1029580020D0012380F84030242380F841300268D9
:10296800136823F0010313600268136823F470638B
:1029780043EA012111600268136843F00103136000
:10298800202380F84130002380F8403018467047F3
:102998000220704702207047F0B44D680468E3686D
:1029A800C3F30B431D44D2011444D4F8883003F414
:1029B8007043C4F888300B680468E668C6F30B46B1
:1029C80033440133144443EA0543C4F88830CD68DE
:1029D8000468E368C3F30A031D441444D4F88C3034
:1029E80003F47043C4F88C308B680468E668C6F357
:1029F8000A0633440133144443EA0543C4F88C30CF
:102A080003681344D3F8944024F00704C3F89440AF
:102A1800036813440C69C3F8944091F831C091F8E5
:102A280032708E6905681544D5F89C300024C5F8C5
:102A38009C4091F8303043EA0C2343EA0743056889
:102A4800154443EA0663C5F89C3003681344D3F879
:102A5800985025F0FF05C3F89850036813444D6952
:102A6800C3F8985003681344D3F8A0602D4D35403F
:102A7800C3F8A050CD690E6A036813443543C3F800
:102A8800A05003681344D3F8AC50C3F8AC400368B3
:102A980013444C6AC3F8AC400B696BB1012B3AD0B4
:102AA800022B18BF042B38D0032B38D0072B01D0AA
:102AB800012302E0022300E0042304681444D4F84C
:102AC800B05005F0E025C4F8B0508C6A03FB04F55B
:102AD8004C680E68A41B03FB04F303330468144416
:102AE80043EA0543C4F8B03003681344D3F8B4503C
:102AF8000D4C2C40C3F8B44003681344C96AC3F8AA
:102B0800B41003681A44D2F8843043F00103C2F8C1
:102B18008430F0BC70470323CFE70223CDE70223BC
:102B2800CBE700BFF8F8FFFF00F8FFFF002872D0DE
:102B380038B5044690F8A130002B67D0022384F8FA
:102B4800A1302268936923F07043936121688A69F0
:102B58006368A0680343E0680343206903431343A1
:102B68008B6121688A682D4B1A408A6065692068E4
:102B78008268A16941EA05410A4382602168CA68FE
:102B88001A40CA60E5692068C268216A41EA0541BD
:102B98000A43C26021680A691A400A61656A2068A6
:102BA8000269A16A41EA05410A43026121684A694A
:102BB80013404B61E06A21684B69226B42EA00428C
:102BC80013434B6194F8350094F836301B042168A0
:102BD800CA6A02F07F42CA622168CA6A43EA0023CD
:102BE80094F8340003431343CB622268536B43F0D9
:102BF800060353632268936943F00103936100203D
:102C0800C4F8A400012384F8A13038BD80F8A030AE
:102C1800FFF7D6F992E70120704700BF00F800F0EF
:102C280070477047704770B5044603689D6B5E6BCC
:102C380015F0040F02D016F0040F12D115F0020F90
:102C480002D016F0020F21D115F0010F02D016F0B4
:102C5800010F32D115F0080F02D016F0080F3DD140
:102C680070BD5A6B22F004025A6303680422DA63C7
:102C7800D0F8A43043F00103C0F8A43080F8A120B4
:102C8800002380F8A030FFF7CBFFD7E72268536B0B
:102C980023F00203536323680222DA63D4F8A430D2
:102CA8001343C4F8A430042384F8A130002384F823
:102CB800A0302046FFF7B4FFC6E72268536B23F025
:102CC8000103536322680123D36384F8A1300023EE
:102CD80084F8A0302046FFF7A4FFBBE72268536BB7
:102CE80023F00803536323680822DA63012384F876
:102CF800A130002384F8A0302046FFF793FFAFE708
:102D080090F8A030012B27D02DE9F04194460F46CA
:102D180006464FF0010880F8A080022380F8A13011
:102D2800342404FB020438340D460FCD0FC40FCDF4
:102D38000FC40FCD0FC42B68236062463946304656
:102D4800FFF72AFE3368C3F8248086F8A1800020A4
:102D580086F8A000BDE8F0810220704738B590F8E9
:102D6800A030012B19D00446012580F8A050022379
:102D780080F8A130342303FB02F303F13800234425
:102D8800D96521182046FFF707FE23685D6284F89D
:102D9800A150002084F8A00038BD0220FCE7000004
:102DA800024A136843F48073136070470070004050
:102DB80010B582B01B4B1A6C42F080521A641B6C1F
:102DC80003F080530193019B174A136843F480333F
:102DD8001360FFF74DFA0446134B5B6813F4803F0A
:102DE80008D1FFF745FA001BB0F57A7FF4D9032024
:102DF80002B010BD0C4A136843F400331360FFF7A8
:102E080037FA0446084B5B6813F4003F07D1FFF715
:102E18002FFA001BB0F57A7FF4D90320E8E70020E9
:102E2800E6E700BF0038024000700040002800F0CC
:102E3800098270B582B00446036813F0010F29D0E7
:102E4800A24B9B6803F00C03042B1AD09F4B9B6882
:102E580003F00C03082B0FD06368B3F5803F40D014
:102E6800002B54D1994B1A6822F480321A601A68E0
:102E780022F480221A6039E0944B5B6813F4800FC7
:102E8800EAD0924B1B6813F4003F03D06368002B11
:102E980000F0DA81236813F0020F75D08B4B9B6822
:102EA80013F00C0F5ED0894B9B6803F00C03082BC2
:102EB80053D0E368002B00F08A80844A136843F0FB
:102EC80001031360FFF7D4F90546804B1B6813F024
:102ED800020F73D1FFF7CCF9401B0228F5D9032064
:102EE800B5E17A4A136843F48033136063682BB3FF
:102EF800FFF7BEF90546754B1B6813F4003FC9D1AF
:102F0800FFF7B6F9401B6428F5D903209FE1B3F514
:102F1800A02F09D06D4B1A6822F480321A601A6803
:102F280022F480221A60E1E7684B1A6842F4802292
:102F38001A601A6842F480321A60D7E7FFF798F9E6
:102F48000546624B1B6813F4003FA3D0FFF790F9C6
:102F5800401B6428F5D9032079E15C4B5B6813F4C6
:102F6800800FA6D1594B1B6813F0020F04D0E368F9
:102F7800012B01D001206AE1544A136823F0F803B9
:102F8800216943EAC1031360236813F0080F46D090
:102F9800636983B34D4A536F43F001035367FFF7E7
:102FA80067F90546494B5B6F13F0020F37D1FFF7FE
:102FB8005FF9401B0228F5D9032048E1434A13680A
:102FC80023F0F803216943EAC1031360DCE73F4AB1
:102FD800136823F001031360FFF74AF905463B4BDA
:102FE8001B6813F0020FCFD0FFF742F9401B0228ED
:102FF800F5D903202BE1354A536F23F001035367BA
:10300800FFF736F90546314B5B6F13F0020F06D018
:10301800FFF72EF9401B0228F5D9032017E1236892
:1030280013F0040F7ED0294B1B6C13F0805F1ED168
:10303800264B1A6C42F080521A641B6C03F08053C2
:103048000193019B0125224B1B6813F4807F10D04C
:10305800A368012B21D0002B3CD11C4B1A6F22F006
:1030680001021A671A6F22F004021A671AE0002593
:10307800E9E7174A136843F480731360FFF7F8F819
:103088000646134B1B6813F4807FE1D1FFF7F0F875
:10309800801B6428F5D90320D9E00C4A136F43F04C
:1030A80001031367A3685BB3FFF7E2F80646074B13
:1030B8001B6F13F0020F34D1FFF7DAF8801B41F2CF
:1030C80088339842F3D90320C1E000BF003802409A
:1030D80000700040052B09D0604B1A6F22F00102E6
:1030E8001A671A6F22F004021A67DBE75B4B1A6F44
:1030F80042F004021A671A6F42F001021A67D1E718
:10310800FFF7B6F80646554B1B6F13F0020F08D0B1
:10311800FFF7AEF8801B41F288339842F3D90320B9
:1031280095E0FDB9A369002B00F090804B4A9268A6
:1031380002F00C02082A58D0022B19D0474A13680B
:1031480023F080731360FFF793F80446434B1B6822
:1031580013F0007F47D0FFF78BF8001B0228F5D942
:10316800032074E03D4A136C23F080531364D9E7BD
:103178003A4A136823F080731360FFF779F805461D
:10318800364B1B6813F0007F06D0FFF771F8401B21
:103198000228F5D903205AE0E369226A1343626AD8
:1031A80043EA8213A26A5208013A43EA0243E26AF6
:1031B80043EA026343F00053284A5360136843F01C
:1031C80080731360FFF754F80446244B1B6813F010
:1031D800007F06D1FFF74CF8001B0228F5D9032021
:1031E80035E0002033E0002031E01C4A5268012B12
:1031F8002FD002F48003E1698B4201D0012026E040
:1032080002F03F03216A8B4201D001201FE0616A6E
:1032180047F6C0731340B3EB811F01D0012016E0BD
:1032280002F44031A36A5B08013BB1EB034F01D0C4
:1032380001200CE002F07062E36AB2EB036F0AD07F
:10324800012004E001207047012000E0002002B0C6
:1032580070BD0120FBE70020F9E700BF00380240FD
:10326800264B9B6803F00C03042B44D0082B01D099
:10327800234870472DE9F04B204B5A6802F03F0273
:103288005B6813F4800F13D01C4B5968C1F3881185
:1032980000231C48A1FB0001FCF7B2FF174B5B6839
:1032A800C3F3014301335B00B0FBF3F0BDE8F08BDF
:1032B800124B5B68C3F388131E4600275C01002588
:1032C800E41A65EB0705A90141EA9461A001001B16
:1032D80061EB0501CB0043EA5073C400A01943EB2E
:1032E80007018B0243EA90538402204619460023C3
:1032F800FCF786FFD2E70348704700BF003802405A
:103308000024F40040787D01002800F0A38070B507
:103318000446524B1B6803F00F038B420CD24F4AF2
:10332800136823F00F030B431360136803F00F03B4
:103338008B4201D0012070BD236813F0020F17D013
:1033480013F0040F04D0464A936843F4E0539360A3
:10335800236813F0080F04D0414A936843F460438C
:1033680093603F4A936823F0F003A0680343936097
:103378000D46236813F0010F31D06368012B20D06C
:10338800022B25D0364A126812F0020F64D0344955
:103398008A6822F0030213438B60FEF769FF064632
:1033A8002F4B9B6803F00C036268B3EB820F16D0B7
:1033B800FEF75EFF801B41F288339842F0D9032064
:1033C800B9E7274A126812F4003FE0D10120B2E7BA
:1033D800234A126812F0007FD9D10120ABE71F4BB6
:1033E8001B6803F00F03AB420CD91C4A136823F087
:1033F8000F032B431360136803F00F03AB4201D094
:10340800012098E7236813F0040F06D0144A936844
:1034180023F4E053E1680B439360236813F0080F2B
:1034280007D00F4A936823F46043216943EAC10334
:103438009360FFF715FF0A4B9B68C3F30313094A10
:10344800D35CD840084B1860084B1868FEF75EFE3E
:10345800002070E70120704701206CE7003C024023
:1034680000380240C844000800000020080000207E
:10347800014B1868704700BF0000002008B5FFF72F
:10348800F7FF044B9B68C3F38223034AD35CD840FD
:1034980008BD00BF00380240D84400080F2303606D
:1034A8000B4B9A6802F0030242609A6802F0F0023D
:1034B80082609A6802F4E052C2609B68DB0803F4F9
:1034C800E0530361034B1B6803F00F030B60704765
:1034D80000380240003C0240F0B583B0044603685F
:1034E80013F0010F0CD0B64B9A6822F400029A60D0
:1034F8009A68416B0A439A60436BC3B1002600E0A7
:103508000026236813F4002F15D0AD4AD2F88C306A
:1035180023F44013E16B0B43C2F88C30E36BB3F533
:10352800801F06D0002B00F02981002504E0012629
:10353800E7E70126F6E70025236813F4801F0FD07C
:103548009F4AD2F88C3023F44003216C0B43C2F815
:103558008C30236CB3F5800F00F0128103B901257C
:10356800236813F0807F00D0012613F0200F40F06D
:103578000981236813F0100F0CD0914BD3F88C20DD
:1035880022F08072C3F88C20D3F88C20A16B0A43F8
:10359800C3F88C20236813F4804F08D0884AD2F8E7
:1035A800903023F44033616E0B43C2F890302368A7
:1035B80013F4004F08D0824AD2F8903023F4402305
:1035C800A16E0B43C2F89030236813F4803F08D0F3
:1035D8007B4AD2F8903023F44013E16E0B43C2F8D3
:1035E8009030236813F4003F08D0754AD2F8903021
:1035F80023F44003216F0B43C2F89030236813F083
:10360800400F08D06E4AD2F8903023F00303616C63
:103618000B43C2F89030236813F0800F08D0684A33
:10362800D2F8903023F00C03A16C0B43C2F8903011
:10363800236813F4807F08D0614AD2F8903023F0D1
:103648003003E16C0B43C2F89030236813F4007F19
:1036580008D05B4AD2F8903023F0C003216D0B43A9
:10366800C2F89030236813F4806F08D0544AD2F817
:10367800903023F44073616D0B43C2F89030236897
:1036880013F4006F08D04E4AD2F8903023F4406308
:10369800A16D0B43C2F89030236813F4805F08D003
:1036A800474AD2F8903023F44053E16D0B43C2F8F7
:1036B8009030236813F4005F08D0414AD2F8903064
:1036C80023F44043216E0B43C2F89030236813F46F
:1036D800800F08D03A4AD2F8903023F08063A16F67
:1036E8000B43C2F89030236813F4001F0DD0344AFE
:1036F800D2F8903023F00063E16F0B43C2F89030AA
:10370800E36FB3F1006F00F0A780236813F0080F90
:1037180000D0012513F4802F08D0294AD2F8903020
:1037280023F04073616F0B43C2F89030236813F4A1
:10373800000F09D0224AD2F8903023F08053D4F8F1
:1037480080100B43C2F8903026B9236813F0007F2D
:1037580000F002811A4A136823F080631360FEF7B1
:1037680087FD0646164B1B6813F0006F76D0FEF7F0
:103778007FFD801B6428F5D90320EFE00125DBE6F7
:103788000126EBE60E4B1A6C42F080521A641B6C51
:1037980003F080530193019B0A4A136843F4807332
:1037A8001360FEF765FD0746064B1B6813F4807F20
:1037B8000AD1FEF75DFDC01B6428F5D90320CDE0D2
:1037C8000038024000700040AA4B1B6F13F440738E
:1037D80015D0226B02F440729A4210D0A54B1A6F92
:1037E80022F44072196F41F480311967196F21F47E
:1037F800803119671A671B6F13F0010F12D1236B01
:1038080003F44072B2F5407F1DD09A4A936823F4BE
:10381800F813936097490B6F226BC2F30B021343A3
:103828000B67A6E6FEF724FD0746924B1B6F13F0C5
:10383800020FE4D1FEF71CFDC01B41F28833984209
:10384800F3D903208AE08B48826822F4F8128A4967
:1038580019400A438260DDE7012556E7236813F023
:10386800010F13D0636B8BB9824AD2F88430D2F837
:103878008410606803F4403343EA801301F07061F8
:103888000B43A16843EA0173C2F88430236813F438
:10389800002F03D0E26BB2F5801F06D013F4801F0F
:1038A8001ED0236CB3F5800F1AD1724AD2F8843037
:1038B800D2F88410606803F4403343EA8013E06868
:1038C80043EA006301F0E0410B43C2F88430D2F8C8
:1038D8008C3023F01F03616A01390B43C2F88C3026
:1038E800236813F0807F11D0624AD2F88400D2F89E
:1038F8008410666823691B0443EA861300F070602D
:10390800034301F0E0410B43C2F88430236813F00D
:10391800007F0DD0626823691B0443EA8213E268C2
:1039280043EA0263A26843EA0273524AC2F8843047
:10393800504A136843F080631360FEF799FC06460B
:103948004C4B1B6813F0006F06D1FEF791FC801BEF
:103958006428F5D9032001E015B9002003B0F0BDB3
:10396800444A136823F080531360FEF781FC054630
:10397800404B1B6813F0005F06D0FEF779FC401B34
:103988006428F5D90320E9E7236813F4002F01D050
:10399800E26B22B113F4801F1DD0236CDBB9354ACA
:1039A800D2F88830D2F88810606903F4403343EACB
:1039B8008013A06943EA006301F0E0410B43C2F8B9
:1039C8008830D2F88C3023F4F853A16A013943EADD
:1039D8000123C2F88C30236813F4001F03D0E36F6F
:1039E800B3F1006F31D0236813F0080F19D0214AC2
:1039F800D2F88810D2F88830606903F4403343EA7B
:103A0800801301F070610B43E16943EA0173C2F866
:103A18008830D2F88C3023F44033E16A0B43C2F883
:103A28008C30144A136843F080531360FEF720FC6F
:103A38000446104B1B6813F0005F19D1FEF718FC01
:103A4800001B6428F5D9032088E70A4AD2F88800C1
:103A5800D2F888106569236A1B0443EA851300F0CD
:103A68007060034301F0E0410B43C2F88830BAE7C5
:103A7800002073E700380240FFFCFF0F38B504460A
:103A88000268D36823F0A003D360FEF7F1FB054674
:103A98002368DB6813F0200F07D1FEF7E9FB401B12
:103AA800B0F57A7FF4D9032000E0002038BD38B59E
:103AB8000368DA6812F0400F01D0002038BD0446D0
:103AC8004FF0FF32DA60FEF7D3FB05462368DB6868
:103AD80013F0400F07D1FEF7CBFB401BB0F57A7F00
:103AE800F4D90320EAE70020E8E7000038B5002809
:103AF8005AD00446437F002B3ED0022363772368C5
:103B0800CA225A62236853225A622046FFF7CFFF1F
:103B18000546002834D122689168244B0B409360F5
:103B280021688A6863682069034360690343134313
:103B38008B602368E2681A6122681369A16843EA06
:103B4800014313612268D36823F08003D36023689C
:103B58009B6813F0200F1BD02268D36C23F0080356
:103B6800D3642268D36CA1690B43D3642368FF2212
:103B78005A620123637709E00377FEF7B3FABCE7DB
:103B88002368FF225A62042363770125284638BD3B
:103B98002046FFF773FF0028DED02368FF225A6211
:103BA800042363770125F1E70125EFE7BFFF8FFFC6
:103BB800002302E001330A38C0B20928FAD81B01F1
:103BC800DBB2184370470000F8B5037F012B76D0AD
:103BD8000D4604460123037702234377002A44D184
:103BE80003689B6813F0400F01D100230B732878FA
:103BF800FFF7DEFF06046878FFF7DAFF46EA0026DB
:103C0800A878FFF7D5FF0643287B46EA00462368D5
:103C1800CA225A62236853225A622046FFF747FF96
:103C28000746002833D12268264B334013602268A8
:103C3800936823F48023936021688B682A696869F4
:103C4800024313438B602268D36823F08003D36058
:103C580023689B6813F0200F23D02368FF225A6241
:103C6800012363770023237719E003689B6813F027
:103C7800400F01D100230B7328786E78360246EA8C
:103C88000046A8780643287B46EA0046BFE7236833
:103C9800FF225A62042363770023237701273846DB
:103CA800F8BD2046FFF7EAFE0028D6D02368FF2299
:103CB8005A6204236377002323770127EFE702275B
:103CC800EDE700BF7F7F7F0070B5037F012B64D0D5
:103CD80001230377022343773AB94B7813F0100F87
:103CE80003D003F0EF030A334B700E460446002A54
:103CF80030D1C878FFF75CFF05047078FFF758FFEC
:103D080045EA0025B078FFF753FF0543307845EAC8
:103D180040352368CA225A62236853225A622046D1
:103D2800FFF7C5FE064600BB22681D4B2B405360BB
:103D38002268D36823F08003D36023689B6813F05C
:103D4800200F1CD02368FF225A62012363770023C7
:103D5800237712E0C8784D782D0245EA0045887827
:103D68000543087845EA4035D3E72368FF225A62BD
:103D780004236377002323770126304670BD20464D
:103D8800FFF77CFE0028DDD02368FF225A62042357
:103D98006377002323770126EFE70226EDE700BFCC
:103DA8003FFFFF00F8B5037F012B00F0A9800D4607
:103DB80004460123037702234377002A4DD1036881
:103DC8009B6813F0400F01D100230B732E6A2878EB
:103DD800FFF7EEFE07046878FFF7EAFE47EA0027D8
:103DE800A878FFF7E5FE0743287B47EA004795F8E0
:103DF8002400FFF7DDFE47EA00600643AB691E4377
:103E08006F68EB691F432368CA225A6223685322EA
:103E18005A62AB6AB3F5807F39D02268936823F47D
:103E2800007393602268936823F400539360FEF74D
:103E38001FFA05462368DA6812F0020F50D1FEF720
:103E480017FA401BB0F57A7FF4D92368FF225A622B
:103E5800032060770023237751E003689B6813F001
:103E6800400F01D100230B732A6A29786B781B0253
:103E780043EA0143A9780B43297B43EA014395F8B8
:103E8800241043EA01631343AE691E43B8E722686E
:103E9800936823F4807393602268936823F48053B3
:103EA8009360FEF7E5F905462368DA6812F0010F1A
:103EB8000DD1FEF7DDF9401BB0F57A7FF4D9236800
:103EC800FF225A62032060770023237717E0DE6120
:103ED80023685F642268936843F48073936007E003
:103EE8001E6223689F642268936843F4007393609A
:103EF8002368FF225A620123637700202077F8BDE8
:103F08000220FCE770B4047F012C27D00124047739
:103F1800022343770568AE68A3F60B0333401943C1
:103F2800CA236B62036853255D620568EB6C23F056
:103F38000603EB640568EB6C1A43EA64036899604E
:103F48000268936843F4006393600368FF225A622F
:103F5800447700230377184670BC70470220FBE7BC
:103F6800D8B138B504460D4690F82C3083B10223F9
:103F780084F82C30211D206800F0E4F96268294695
:103F8800206800F019FA012384F82C30002038BD8D
:103F980080F82D30FEF7B6F8E9E701207047704742
:103FA80090F83D30DBB2012B01D00120704702238D
:103FB80080F83D300268D36843F00103D36003689A
:103FC800194AB3F1804F18BF93421DD0A2F57C4225
:103FD800934219D002F58062934215D002F58062AF
:103FE800934211D002F5784293420DD002F57052F7
:103FF800934209D0A2F59432934205D01A6842F050
:1040080001021A60002070479968084A0A40062A87
:1040180018BFB2F5803F05D01A6842F001021A6055
:104028000020704700207047000001400700010091
:10403800704770477047704710B5044603681A699F
:1040480012F0020F11D0DA6812F0020F0DD06FF0E3
:1040580002021A610123037703689B6913F0030FB7
:1040680079D0FFF7E6FF0023237723681A6912F057
:10407800040F12D0DA6812F0040F0ED06FF00402A9
:104088001A610223237723689B6913F4407F68D061
:104098002046FFF7CEFF0023237723681A6912F022
:1040A800080F12D0DA6812F0080F0ED06FF008026D
:1040B8001A61042323772368DB6913F0030F57D0B1
:1040C8002046FFF7B6FF0023237723681A6912F00A
:1040D800100F12D0DA6812F0100F0ED06FF0100225
:1040E8001A61082323772368DB6913F4407F46D0DD
:1040F8002046FFF79EFF0023237723681A6912F0F2
:10410800010F03D0DA6812F0010F3FD123681A6952
:1041180012F0800F03D0DA6812F0800F3DD12368C7
:104128001A6912F4807F03D0DA6812F0800F3BD14D
:1041380023681A6912F0400F03D0DA6812F0400FB2
:1041480039D123681A6912F0200F03D0DA6812F007
:10415800200F37D110BDFFF76BFF2046FFF76AFF2E
:1041680081E72046FFF764FF2046FFF763FF92E7E9
:104178002046FFF75DFF2046FFF75CFFA3E72046D8
:10418800FFF756FF2046FFF755FFB4E76FF001022F
:104198001A612046FDF748FCB8E76FF080021A6103
:1041A800204600F0CDF8BAE76FF480721A61204615
:1041B80000F0C7F8BCE76FF040021A612046FFF72D
:1041C8003AFFBEE76FF020021A61204600F0B7F808
:1041D800C0E7000070B403683A4CA04214BF002442
:1041E8000124B0F1804F14BF224644F00102AAB95D
:1041F800354DA84214BF00250125344EB0420DD0DC
:1042080065B905F1804505F58235A84214BF00253A
:10421800012506F50066B04200D01DB123F07003F9
:104228004D682B43002A33D1274A904214BF0022FD
:104238000122264DA8422BD052BB02F1804202F542
:104248008232904214BF0022012205F50065A8427F
:104258001ED0EAB91E4A904214BF0022012205F579
:104268009A35A84214D09AB91A4A904214BF00222B
:10427800012205F50065A8420AD04AB9164A9042BB
:1042880014BF00220122A5F59635A84200D01AB124
:1042980023F44073CA68134323F080034A69134325
:1042A80003608A68C2620A6882620C4B984214BF33
:1042B800234644F001030BB10B69036301234361F7
:1042C80070BC704700000140000800400004004036
:1042D8000044014000180040002000400004014054
:1042E80058B310B5044690F83D300BB3022384F858
:1042F8003D30211D2068FFF76DFF012384F8483009
:1043080084F83E3084F83F3084F8403084F84130F7
:1043180084F8423084F8433084F8443084F84530D7
:1043280084F8463084F8473084F83D30002010BDCA
:1043380080F83C30FFF733FED8E70120704770471C
:104348007047704730B40B68012B18D00368194ABE
:104358001A404B688C682343CC6823430C69234379
:104368004C6923438C692343CC6923430C6A234358
:10437800496A0B4313430360002030BC704704684C
:1043880024F4F844CB690A6A1A434B6A1A43224355
:104398004368084C1C404B688D682B43CD682B4301
:1043A8000D692B434D692B4389690B4323430260F5
:1043B8004360E1E70080FFFF30B4012A21D0826822
:1043C80002F070420B68013B4C68013C43EA04135D
:1043D8008C68013C43EA0423CC68013C43EA04337B
:1043E8000C69013C43EA04434C69013C43EA045329
:1043F8008969013943EA016313438360002030BCB3
:1044080070478368114C1C40CA68551E4B695A1E78
:10441800120542EA05322243C46804F070440B686E
:10442800013B4D68013D43EA05138D68013D43EAB0
:1044380005230D69013D43EA05438969013943EACA
:10444800016323438260C360D8E700BFFF0F0FFFFB
:1044580070B50D4E0D4CA41BA4100025A54209D122
:104468000B4E0C4C00F020F8A41BA4100025A5420C
:1044780005D170BD56F8253098470135EEE756F856
:10448800253098470135F2E7E8440008E844000879
:10449800E8440008EC44000802440346934200D173
:1044A800704703F8011BF9E7F8B500BFF8BC08BC72
:1044B8009E467047F8B500BFF8BC08BC9E467047DA
:1044C80000000000000000000102030406070809BC
:0844D8000000000001020304D2
:0844E00058BDFF7F0100000040
:0444E800ED010008DA
:0444EC00C9010008FA
:0C44F0000024F400010000001000000097
:04000005080021E9E5
:00000001FF
