:020000040800F2
:100000000000052011320008B9310008BB3100089A
:10001000BD310008BF310008C131000800000000F8
:10002000000000000000000000000000C3310008D4
:10003000C531000800000000C7310008C9310008C0
:100040006132000861320008613200086132000844
:100050006132000861320008613200086132000834
:100060006132000861320008613200086132000824
:100070006132000861320008613200086132000814
:100080006132000861320008613200086132000804
:1000900061320008613200086132000861320008F4
:1000A00061320008613200086132000861320008E4
:1000B00061320008613200086132000861320008D4
:1000C00061320008613200086132000861320008C4
:1000D00061320008613200086132000861320008B4
:1000E00061320008613200086132000861320008A4
:1000F0006132000861320008613200086132000894
:100100006132000861320008613200086132000883
:100110006132000861320008CD3100086132000808
:100120006132000861320008613200086132000863
:100130006132000861320008613200086132000853
:100140006132000861320008613200086132000843
:100150006132000861320008613200086132000833
:100160006132000861320008613200086132000823
:1001700061320008613200086132000800000000AE
:100180006132000861320008613200086132000803
:1001900061320008613200086132000861320008F3
:1001A000DD31000861320008ED31000861320008DD
:1001B00061320008613200086132000861320008D3
:0801C000613200086132000801
:1001C80010B5054C237833B9044B13B10448AFF389
:1001D80000800123237010BD0C00002000000000E7
:1001E800805B000808B5034B1BB103490348AFF314
:1001F800008008BD0000000010000020805B00089F
:1002080070B54FF0FF0C4CF4E06C1CEA11541DBFA4
:100218001CEA135594EA0C0F95EA0C0F00F0DEF86F
:100228002C4481EA030621EA4C5123EA4C5350EA54
:10023800013518BF52EA033541F4801143F48013A5
:1002480038D0A0FB02CE4FF00005E1FB02E506F036
:100258000042E0FB03E54FF00006E1FB03569CF08B
:10026800000F18BF4EF0010EA4F1FF04B6F5007F91
:1002780064F5407404D25FEA4E0E6D4146EB060603
:1002880042EAC62141EA55514FEAC52040EA5E508C
:100298004FEACE2EB4F1FD0C88BFBCF5E06F1ED836
:1002A800BEF1004F08BF5FEA500E50F1000041EB6D
:1002B800045170BD06F0004646EA010140EA02001A
:1002C80081EA0301B4EB5C04C2BFD4EB0C0541EA3C
:1002D800045170BD41F480114FF0000E013C00F351
:1002E800AB8014F1360FDEBF002001F0004170BD75
:1002F800C4F10004203C35DA0C341BDC04F114048E
:10030800C4F1200500FA05F320FA04F001FA05F219
:1003180040EA020001F0004221F0004110EBD370E6
:1003280021FA04F642EB06015EEA430E08BF20EA12
:10033800D37070BDC4F10C04C4F1200500FA04F3B5
:1003480020FA05F001FA04F240EA020001F0004147
:1003580010EBD37041F100015EEA430E08BF20EABA
:10036800D37070BDC4F1200500FA05F24EEA020E02
:1003780020FA04F301FA05F243EA020321FA04F031
:1003880001F0004121FA04F220EA020000EBD370E8
:100398005EEA430E08BF20EAD37070BD94F0000FE8
:1003A8000FD101F00046400041EB010111F4801F1C
:1003B80008BF013CF7D041EA060195F0000F18BFCD
:1003C800704703F00046520043EB030313F4801F09
:1003D80008BF013DF7D043EA0603704794EA0C0FC3
:1003E8000CEA135518BF95EA0C0F0CD050EA4106D9
:1003F80018BF52EA4306D1D181EA030101F0004156
:100408004FF0000070BD50EA410606BF104619467D
:1004180052EA430619D094EA0C0F02D150EA013689
:1004280013D195EA0C0F05D152EA03361CBF1046CA
:1004380019460AD181EA030101F0004141F0FE4169
:1004480041F470014FF0000070BD41F0FE4141F4ED
:10045800780170BD81F0004102E000BF83F00043E5
:1004680030B54FEA41044FEA430594EA050F08BF47
:1004780090EA020F1FBF54EA000C55EA020C7FEA0B
:10048800645C7FEA655C00F0E2804FEA5454D4EB88
:100498005555B8BF6D420CDD2C4480EA020281EA52
:1004A800030382EA000083EA010180EA020281EA8A
:1004B8000303362D88BF30BD11F0004F4FEA0131DC
:1004C8004FF4801C4CEA113102D0404261EB4101EB
:1004D80013F0004F4FEA03334CEA133302D0524271
:1004E80063EB430394EA050F00F0A780A4F101042D
:1004F800D5F1200E0DDB02FA0EFC22FA05F2801867
:1005080041F1000103FA0EF2801843FA05F359414C
:100518000EE0A5F120050EF1200E012A03FA0EFCCB
:1005280028BF4CF0020C43FA05F3C01851EBE371F5
:1005380001F0004507D54FF0000EDCF1000C7EEB12
:1005480000006EEB0101B1F5801F1BD3B1F5001F50
:100558000CD349085FEA30004FEA3C0C04F101046F
:100568004FEA445212F5800F80F09A80BCF1004F98
:1005780008BF5FEA500C50F1000041EB045141EA1A
:10058800050130BD5FEA4C0C404141EB0101013CE3
:1005980028BFB1F5801FE9D291F0000F04BF0146D2
:1005A8000020B1FA81F308BF2033A3F10B03B3F1A4
:1005B80020020CDA0C3208DD02F1140CC2F10C0234
:1005C80001FA0CF021FA02F10CE002F11402D8BF92
:1005D800C2F1200C01FA02F120FA0CFCDCBF41EA5E
:1005E8000C019040E41AA2BF01EB0451294330BD2D
:1005F8006FEA04041F3C1CDA0C340EDC04F114040A
:10060800C4F1200220FA04F001FA02F340EA0300E0
:1006180021FA04F345EA030130BDC4F10C04C4F126
:10062800200220FA02F001FA04F340EA0300294606
:1006380030BD21FA04F0294630BD94F0000F83F450
:10064800801306BF81F480110134013D4EE77FEA33
:10065800645C18BF7FEA655C29D094EA050F08BF7F
:1006680090EA020F05D054EA000C04BF1946104660
:1006780030BD91EA030F1EBF0021002030BD5FEAA4
:10068800545C05D14000494128BF41F0004130BDCC
:1006980014F580043CBF01F5801130BD01F0004520
:1006A80045F0FE4141F470014FF0000030BD7FEA93
:1006B800645C1ABF194610467FEA655C1CBF0B468E
:1006C800024650EA013406BF52EA033591EA030FA5
:1006D80041F4002130BD00BF90F0000F04BF00219D
:1006E800704730B54FF4806404F132044FF00005D0
:1006F8004FF0000150E700BF90F0000F04BF002149
:10070800704730B54FF4806404F1320410F00045AE
:1007180048BF40424FF000013EE700BF42004FEAA9
:10072800E2014FEA31014FEA02701FBF12F07F4326
:1007380093F07F4F81F06051704732F07F4208BFDD
:10074800704793F07F4F04BF41F40021704730B5E4
:100758004FF4607401F0004521F000411CE700BF30
:1007680050EA010208BF704730B54FF000050AE0B3
:1007780050EA010208BF704730B511F0004502D5B4
:10078800404261EB41014FF4806404F132045FEAB6
:10079800915C3FF4D8AE4FF003025FEADC0C18BF5F
:1007A80003325FEADC0C18BF033202EBDC02C2F151
:1007B800200300FA03FC20FA02F001FA03FE40EAE3
:1007C8000E0021FA02F11444BDE600BF4FEA4102CF
:1007D800B2F1E04324BFB3F5001CDCF1FE5C0DD997
:1007E80001F0004C4FEAC0024CEA5070B2F1004FE1
:1007F80040EB830008BF20F00100704711F0804FE4
:1008080021D113F13872BCBF01F00040704741F4A8
:1008180080114FEA5252C2F11802C2F1200C10FAAC
:100828000CF320FA02F018BF40F001004FEAC12390
:100838004FEAD32303FA0CFC40EA0C0023FA02F334
:100848004FEA4303CCE77FEA625307D150EA01330A
:100858001EBF4FF0FE4040F44000704701F00040DA
:1008680040F0FE4040F40000704700BF53B94AB959
:10087800002908BF00281CBF4FF0FF314FF0FF30A0
:1008880000F074B9ADF1080C6DE904CE00F006F87B
:10089800DDF804E0DDE9022304B070472DE9F047F4
:1008A800089D04468E46002B4DD18A42944669D94C
:1008B800B2FA82F252B101FA02F3C2F1200120FA2F
:1008C80001F10CFA02FC41EA030E94404FEA1C487D
:1008D800210CBEFBF8F61FFA8CF708FB16E341EA79
:1008E800034306FB07F199420AD91CEB030306F1FF
:1008F800FF3080F01F81994240F21C81023E634420
:100908005B1AA4B2B3FBF8F008FB103344EA0344C3
:1009180000FB07F7A7420AD91CEB040400F1FF33D8
:1009280080F00A81A74240F207816444023840EA15
:100938000640E41B00261DB1D4400023C5E900434E
:100948003146BDE8F0878B4209D9002D00F0EF80D1
:100958000026C5E9000130463146BDE8F087B3FA04
:1009680083F6002E4AD18B4202D3824200F2F980EC
:10097800841A61EB030301209E46002DE0D0C5E9EF
:10098800004EDDE702B9FFDEB2FA82F2002A40F03B
:100998009280A1EB0C014FEA1C471FFA8CFE01263E
:1009A800200CB1FBF7F307FB131140EA01410EFBE2
:1009B80003F0884208D91CEB010103F1FF3802D289
:1009C800884200F2CB804346091AA4B2B1FBF7F083
:1009D80007FB101144EA01440EFB00FEA64508D9A6
:1009E8001CEB040400F1FF3102D2A64500F2BB80E3
:1009F8000846A4EB0E0440EA03409CE7C6F1200732
:100A0800B34022FA07FC4CEA030C20FA07F401FA77
:100A180006F31C43F9404FEA1C4900FA06F3B1FB00
:100A2800F9F8200C1FFA8CFE09FB181140EA014165
:100A380008FB0EF0884202FA06F20BD91CEB010102
:100A480008F1FF3A80F08880884240F28580A8F15A
:100A580002086144091AA4B2B1FBF9F009FB1011AC
:100A680044EA014100FB0EFE8E4508D91CEB01014A
:100A780000F1FF346CD28E456AD90238614440EAED
:100A88000840A0FB0294A1EB0E01A142C846A6466D
:100A980056D353D05DB1B3EB080261EB0E0101FAF6
:100AA80007F722FA06F3F1401F43C5E90071002653
:100AB8003146BDE8F087C2F12003D8400CFA02FCA9
:100AC80021FA03F3914001434FEA1C471FFA8CFEB9
:100AD800B3FBF7F007FB10360B0C43EA064300FBA9
:100AE8000EF69E4204FA02F408D91CEB030300F147
:100AF800FF382FD29E422DD9023863449B1B89B2FE
:100B0800B3FBF7F607FB163341EA034106FB0EF386
:100B18008B4208D91CEB010106F1FF3816D28B4233
:100B280014D9023E6144C91A46EA004638E72E46FF
:100B3800284605E70646E3E61846F8E64B45A9D2F7
:100B4800B9EB020864EB0C0E0138A3E74646EAE766
:100B5800204694E74046D1E7D0467BE7023B614414
:100B680032E7304609E76444023842E7704700BF7D
:100B7800014B1860704700BF28000020002305E0E3
:100B8800044A126881B222F813100133B3F5FF3F0B
:100B9800F6DB70472800002070B504461046049E16
:100BA8004D1E03F1FF3E0EE00949096801FB0E31B5
:100BB800084A12681FFA84FC22F811C001339842CF
:100BC800F2D80EF1010E764501D92B46F7E770BD34
:100BD8003800002028000020044B1B6803FB01009C
:100BE800034B1B6892B223F810207047380000208E
:100BF80028000020014B5878704700BFC05B0008F0
:100C080000B5C0F30743C3EB4313124981FB03C28A
:100C18001A44DB17C3EBE212C0F30723C3EB8313B9
:100C280081FB03EC9C44DB17C3EBEC13C0B2C0EBB5
:100C3800401081FB00C10144C017C0EBE110C0B2F5
:100C4800DBB240EA4310D2B240EAC22080B25DF87B
:100C580004FB00BF81808080F8B505460C46174626
:100C68001E46FFF7C7FFC0B20A4B9A789DF820C00E
:100C7800ACEB020C5FFA8CFC0CF1040C13F80C3092
:100C88001D443D8004443480069A1370079B1870F5
:100C9800F8BD00BFC05B000808B54268074B1A6082
:100CA8008268074B1A60027B064B1A70417B00680A
:100CB800FFF75EFF01F0A4F908BD00BF3400002073
:100CC800380000202C0000202DE9F8431746013891
:100CD8001FFA80F801398DB205EB03091FFA89F96B
:100CE80043449EB22FE01B4B1B78012B1CD0194BA1
:100CF8001B78022B1FD00134A4B2B44221D2164B68
:100D08001B689D42F7D2154B1B689C42F3D2114BCE
:100D18001B78002BE7D13846FFF772FF02462946B9
:100D28002046FFF759FFDEE747F07F422946204675
:100D3800FFF752FFDBE73A4629462046FFF74CFF0C
:100D4800D9E70135ADB24D4501D24446D5E7BDE8F6
:100D5800F88300BF2C000020340000203800002059
:100D680010B504460C4B1B7843B10B4B1B78012B79
:100D780009D0094B1B78022B0AD010BDFFF740FFA2
:100D8800FFF7FCFEF1E744F07F40FFF7F7FEF0E7DE
:100D98002046FFF7F3FEF0E72C000020F0B583B003
:100DA800074615461E460C1E03DD284B1B689C4251
:100DB80005D9002D2BDD254B1B689D4227D8002E19
:100DC80003DD234B1B689E4207D9089B002B1EDDC1
:100DD8001F4B1B68089A9A4219D8002C19DD1B4B27
:100DE8001B689D4200D91C46002E14DD184B1B6859
:100DF800089A9A4200D91E46164B1B786BB1154BC0
:100E08001B78012B14D0134B1B78022B1AD003B07C
:100E1800F0BD0124E3E70126E8E73846FFF7F0FED6
:100E2800089B009333462A462146FFF7B5FEE6E7BE
:100E3800089B009333462A46214647F07F40FFF738
:100E4800ABFEE0E73846FFF799FEE0E73800002000
:100E5800340000202C00002010B582B09DF810400E
:100E68000CB902B010BD013C53FA84F40094FFF7AA
:100E780095FFF6E710B582B09DF810400CB902B0A6
:100E880010BD013C0093134651FA84F2FFF786FF28
:100E9800F5E72DE9F04F83B00546084616461C468F
:100EA800BDF93090BDF934A09DF8388008F1FF37BE
:100EB800FFB2CDF800A04B4622463146FFF76EFF41
:100EC800CDF800804B46224631462846FFF7C4FF3E
:100ED8001FFA87FBAAEB0703CDF800801BB2224656
:100EE80031462846FFF7B8FFCDF8008053464A46FA
:100EF80031462846FFF7BEFFA4EB0B01CDF8008072
:100F080053464A4609B22846FFF7B4FF03B0BDE886
:100F1800F08F00002DE9F04F83B00746009190460E
:100F280001930C9EBDF83450904200F39E80994284
:100F38004CDC404516D05B1AA8EB000193FBF1F29C
:100F48001FFA82FB01FB12330BB1012D05D0BBF157
:100F5800000F0DD14FF0010B0AE00BF1010B1FFA46
:100F68008BFBF4E708F101080FFA88F84FF0010B42
:100F78001FFA87FA03E00AF1010A1FFA8AFAC24542
:100F880000F3FF80AAEB0704019B009A9B1A03FB5E
:100F980004F4A8EB070394FBF3F493B213FA84F474
:100FA800A4B24FF00009CB45E5D92B46324621467D
:100FB8005046FFF789FE0134A4B2734B1B689C426C
:100FC800D9D809F101091FFA89F9ECE7404518D089
:100FD800009B019A9B1AA8EB000193FBF1F21FFA00
:100FE80082FB01FB12330BB1012D05D0BBF1000FC1
:100FF8000DD14FF0010B0AE00BF1010B1FFA8BFB2F
:10100800F4E708F101080FFA88F84FF0010B1FFA0E
:1010180087FA03E00AF1010A1FFA8AFAC24500F3C7
:10102800B080AAEB0704019B009A9B1A03FB04F407
:10103800A8EB070394FBF3F493B213FA84F4A4B275
:101048004FF00009CB45E5D92B463246214650469C
:10105800FFF73AFE013CA4B24B4B1B689C42D9D81F
:1010680009F101091FFA89F9ECE7009B019A9342FB
:1010780042DCD31AA0EB080193FBF1F21FFA82FBC2
:1010880001FB12330BB1012D07D0BBF1000F01D1C9
:101098004FF0010B1FFA88FA08E00BF1010B1FFA59
:1010A8008BFBF2E70AF1010A1FFA8AFABA4568DCF3
:1010B800AAEB0704019B009A9B1A03FB04F4A8EB14
:1010C800070394FBF3F493B213FA84F4A4B24FF039
:1010D8000009CB45E6D92B46324621465046FFF754
:1010E800F3FD0134A4B2284B1B689C42DAD809F1FD
:1010F80001091FFA89F9ECE7009B019A9B1AA8EBF2
:10110800000193FBF1F21FFA82FB01FB12330BB1D2
:10111800012D07D0BBF1000F01D14FF0010B1FFAD1
:1011280088FA08E00BF1010B1FFA8BFBF2E70AF1D2
:10113800010A1FFA8AFABA4523DCAAEB0704019BC5
:10114800009A9B1A03FB04F4A8EB070394FBF3F43F
:1011580093B213FA84F4A4B24FF00009CB45E6D950
:101168002B46324621465046FFF7AEFD0134A4B265
:10117800054B1B689C42DAD809F101091FFA89F965
:10118800ECE703B0BDE8F08F340000202DE9F04F04
:1011980087B004900591BDF840B05742C2F10102F2
:1011A800560000220192994608E03346B74243DAD6
:1011B80001377E0001361E44002F3FDCBDF8103099
:1011C8001FFA87FA0293A3EB0A05ADB2BDF8043003
:1011D800BDF81440039303EB04081FFA88F85B4634
:1011E8004A4641462846FFF76FFD029B9A441FFA7C
:1011F8008AFA5B464A4641465046FFF765FD039921
:10120800641AA4B25B464A4621465046FFF75CFD85
:101218005B464A4621462846FFF756FD019AB242E8
:10122800C3DB01320192530001333344FA42BDD18A
:10123800B742BBDB0026B9E71E46BDE707B0BDE8ED
:10124800F08FF0B583B007460E4614461D4609E0F8
:10125800022200922B4622B231B238B2FFF796FF33
:10126800013CA4B2002CF3D103B0F0BD2DE9F84F36
:101278002DED068B8A461E46109D119C013A0FFAE9
:1012880082FB01380FFA80F9744B1F783FB9284662
:10129800FFF7B6FC05462046FFF7B2FC0446012FCF
:1012A80036D0B9F1000F38DD6D4B1B689A4501D96E
:1012B8000FFA83FABBF1000F32DD6A4B1B689E42BE
:1012C80000D91EB27FB3EBB209EE903AF8EEE99A74
:1012D800C5F3072309EE103AB8EEC99AC5F30745D6
:1012E80007EE905AB8EEE78AE3B20AEE903AF8EEC3
:1012F800EAAAC4F307230AEE103AB8EECAAAC4F35E
:10130800074407EE904AF8EEE78A1FFA89F863E087
:1013180045F07F4544F07F44C3E74FF00109C3E738
:101328004FF0010BC9E705F01F0309EE903AF8EEFC
:10133800E99AC5F3451309EE103AB8EEC99AC5F310
:10134800C42507EE905AB8EEE78A04F01F030AEEA8
:10135800903AF8EEEAAAC4F345130AEE103AB8EE4A
:10136800CAAAC4F3C42407EE904AF8EEE78ACCE789
:10137800B7EE007A37EE677A67EE086A28EEA76A52
:1013880076EE866AFCEEE66A16EE903A67EE096A31
:101398002AEE276A76EE866AFCEEE66A16EE905A20
:1013A80045EA831527EE297A6AEEA77A77EE277A37
:1013B800FCEEE77A17EE903A43EA451547E02A46ED
:1013C80021463846FFF708FC013424B2A642F6DC71
:1013D80008F101081FFA88F8D0453ADA4746A8EB21
:1013E800090306EE903AF8EEE66AAAEB090307EE5F
:1013F800103AB8EEC77AC6EE877A184B1B78002BDE
:10140800B6D0B7EE007A37EE677A67EE086A28EE4C
:10141800A76A76EE866AFCEEE66A16EE903A67EE02
:10142800096A2AEE276A76EE866AFCEEE66A16EE06
:10143800905A45EA032527EE297A6AEEA77A77EECD
:10144800277AFCEEE77A17EE903A43EA05255C46E0
:10145800BCE7BDEC068BBDE8F88F00BF2C00002070
:10146800380000203400002002460023184606E019
:101478005208062B01D84000C0B20133DBB2072B5B
:1014880005D812F0010FF3D040F00100F0E77047E3
:101498002DE9F04F85B0814601910392774A92F881
:1014A80001A09078181AC0B2D6780436031DD75C0C
:1014B800042201E0013292B2C31C93421EDB6F4B3F
:1014C8009B5C082B01D85644B6B2A3F10901C9B2F6
:1014D800072902D806EB4A06B6B2A3F11101C9B230
:1014E800072903D80AEB4A010E44B6B2193BDBB20E
:1014F800072BDFD806EB8A06B6B2DBE7DDF804B0C7
:101508000025A846CDF808A038E05D4B1B78012BD4
:1015180022D05B4B1B78022B26D06D000134A4B27D
:10152800A24609EB07039C4224DA002DF5DA554B55
:101538001B689B45F1D2544B1B689C42EDD2504B23
:101548001B78002BE1D10398FFF75AFB024600995C
:101558005046FFF741FBD8E7039B43F07F420099D1
:101568005046FFF739FBD4E7039A00995046FFF736
:1015780033FBD2E70BF1010B1FFA8BFBCDF800B060
:10158800019B029A13449B4575DA082F0AD806EB8B
:1015980008033A4AD05CFFF767FF050608F101081F
:1015A8001FFA88F8A7F10903DBB2072B13D808EB59
:1015B8000603324DE85CFFF757FF08F10103040208
:1015C80016FA83F3E85CFFF74FFF2043050408F1A0
:1015D80002081FFA88F8A7F11103DBB2072B1DD800
:1015E80008EB0603254DE85CFFF73EFF08F1010311
:1015F800040216FA83F3E85CFFF736FF044308F1A8
:101608000203240216FA83F3E85CFFF72DFF40EA91
:1016180004052D0208F103081FFA88F8A7F1190339
:10162800DBB2072B25D808EB0603144DE85CFFF75F
:101638001BFF08F10103040216FA83F3E85CFFF7C5
:1016480013FF044308F10203240216FA83F3E85C4B
:10165800FFF70AFF044308F10303240216FA83F391
:10166800E85CFFF701FF40EA040508F104081FFAE7
:1016780088F84C4654E705B0BDE8F08FC05B000819
:101688002C00002034000020380000202DE9F04311
:1016980087B00746884691461E460025ADF8165085
:1016A800ADF814508DF813508DF8125001E0013543
:1016B800ADB2735D002BFAD1002401E00134A4B26D
:1016C800A54220D9335D1F2BF8D94A4641463846F2
:1016D800FFF7DEFE335D02930DF1120301930DF166
:1016E8001303009305AB0DF1160241463846FFF788
:1016F800B3FA9DF813000744044B1B689F4202D2BB
:10170800BDF81670DAE707B0BDE8F08338000020AE
:101718002DE9F04F87B081460F461646BDF8408048
:10172800BDF844506C1EA4B202EB680189B20839B6
:101738008AB205920393009333463A4601461498B9
:10174800FFF72CFB08EB0603009333463A4649465D
:101758001398FFF723FBCDF80890BDF908A00FFAFE
:1017680086FBBDF90C00EDB20095049003465A467D
:1017780051461298FFF77EFBA7EB04090FFA89F987
:101788000095049B5A4649461298FFF773FB3FB2EF
:1017980000955B463A4651461298FFF75DFB039B5E
:1017A8001B1B00951BB23A4651461298FFF754FB93
:1017B800029921448FB208EB060300951BB24A46F2
:1017C80009B21298FFF748FB059AA118B81C169B96
:1017D800159A89B280B2FFF759FF07B0BDE8F08FBC
:1017E8002DE9F04385B007460C4616461D460223F0
:1017F8000293019500920B4602460D990C98FFF74B
:1018080048FB9DF83C30012B09D0E01C119B109A35
:10181800B1B280B2FFF73AFF05B0BDE8F083BBB2C2
:1018280003F1030C1FFA8CFC1FFA86F808F1060175
:1018380089B2E01B1FD403EB600007B2033D2DB251
:101848004FF00209CDF804900E9B00932B463A46C0
:1018580009B20FFA8CF0FFF75DFBE21E08F10303F3
:10186800CDF804900E9900911BB212B22946384661
:10187800FFF750FBC9E70130DDE770B582B00546D8
:101888000E461446BDF82420012A08D002220092F0
:1018980022B209B200B2FFF779FC02B070BD022291
:1018A800009222B209B200B2FFF770FC221F069B19
:1018B80092B231462846FFF7C4FCEEE72DE9F04F17
:1018C8002DED088B87B0804605900D4616461C46C0
:1018D8009DF868A01B9FDDED1E7AF8EEE77A9DED76
:1018E8001F7AB8EEC77A77EEC77A9DED1C7AB8EE04
:1018F800477AC7EE879ADDED207AF8EEE77A9DED14
:10190800217AB8EEC77A77EEC77A9DED1D7AB8EEE0
:10191800477A87EE87AACDF808A01BB2019313B2C5
:1019280000930BB202B218991998FFF7B2FA07EEB2
:10193800905AB8EE677A07EE90AAF8EE677A37EE13
:10194800677A06EE908AB8EE669A37EE899A37EE8D
:10195800497A87EE29BA07EE104AB8EE478A78EE38
:10196800678A07EE106AB8EE477A77EE877A78EEDC
:10197800E77AC7EE8AAAFCEEC97A1FFA8AFB0AEB55
:1019880006090FFA89F9A4EB0A0424B2012300938B
:1019980023464A4617EE901A09B23846FFF76AFA04
:1019A80039EE0B9A4FF000080FE0A5EB0B0101236D
:1019B800009323464A4609B23846FFF75BFA39EEE8
:1019C8000B9A08F101081FFA88F807EE908AB8EE1A
:1019D800E77AB4EEE97AF1EE10FA17D5F7EE007A65
:1019E80079EEE77AF4EEC77AF1EE10FADDDDFCEE77
:1019F800C97A0123009323464A4617EE901A09B282
:101A08003846FFF737FA39EE0B9ADAE7059B5B445D
:101A18000FFA83F8A5EB0B052DB2FCEEE87A01234B
:101A2800009317EE903A1BB22A4641463846FFF714
:101A380013FA78EEEA8A00240BE0012200921BB226
:101A48002A4641463846FFF707FA78EEEA8A013413
:101A5800A4B207EE904AF8EEE77AF4EECA7AF1EE0D
:101A680010FA13D5FCEEE87A17EE903A9BB2B3421F
:101A7800E3D306EB0A029342DFDC012300934B46D3
:101A88002A4641463846FFF7E7F9DEE707B0BDECDE
:101A9800088BBDE8F08F00002DE9F04F2DED0A8B83
:101AA80089B007460591154699469DF87430049308
:101AB800219CDDF88880DDF88CA0249E9DF8983064
:101AC8000393A9EB020308EE903AF8EEE88AA8EB34
:101AD8000A0308EE103AB8EEC88A0A1A209B1B1BA4
:101AE8009A4265D3DDED207AB8EE67AA07EE902A10
:101AF800B8EEE77A07EE903AF8EE677AC7EE277AFB
:101B080017EE900AFEF70AFE78A3D3E90023FEF742
:101B180077FBFEF75BFE0AEE900A07EE907AB8EEC6
:101B2800679ADDED047AF8EE676A39EE267A039B48
:101B38005A1E09EE102AB8EEC99A37EE099A07EE2E
:101B4800909AF8EE677A77EEE67A07EE103AB8EEF2
:101B580047BA37EECBBAC8EE88BA56F8243007EE43
:101B6800903AF8EEE77A6BEEA77A17EE900AFEF74E
:101B7800D5FD5BA3D3E90023FEF742FBCDE90601BF
:101B88001BEE100AFEF7CAFDDDE90623FEF766FC28
:101B9800FEF71CFE09EE900A049BEB180CEE103AB7
:101BA800A4B2B0EE498A4FF0010B4FF0000932E0C1
:101BB800DFED4DAAB0EE6AAAAFE7BBF1000F05D082
:101BC800F359434521DDF8EECC9A20E0F8EECC7AC3
:101BD800BCEEC99AFCEEE99AFCEEE77A039B019306
:101BE8001C9B009317EE903A1BB2FCEEC87A17EED6
:101BF800902A12B219EE901A09B219EE100A00B220
:101C0800FFF788F94FF0010BDAE7F0EE4B9A013451
:101C1800A4B2B0EE489A07EE904AF8EEE77AF4EEEE
:101C2800CA7AF1EE10FA55D5A70056F8245007EEF7
:101C3800905AF8EEE77A6BEEA77A17EE900AFEF75D
:101C48006DFD27A3D3E90023FEF7DAFAFEF7BEFD00
:101C580007EE900A38EE2A8A7BEE678A5545ACDB98
:101C68004545AADC259B99452DD2059B049A9A1ACD
:101C780007EE902AF8EEE77AF4EEC87AF1EE10FA59
:101C880005D8039A9B1A08EE103AB8EEC88ABCEE3B
:101C9800C99AFCEEE99A039B01931C9B0093FCEE06
:101CA800E87A17EE903A1BB2FCEEC87A17EE902A43
:101CB80012B219EE901A09B219EE100A00B2FFF723
:101CC80029F94FF0000B09F101091FFA89F9F0EE23
:101CD800689A9CE709B0BDEC0A8BBDE8F08F00BF9D
:101CE8005EBA490C022BEF3F0000000072F90FE9C1
:101CF800B7AFEF3F00B583B003690093C36882684C
:101D080041680068FFF74AF803B05DF804FB00B5C6
:101D180083B0037C0093B0F90C30B0F90820B0F917
:101D280004100068FFF798F803B05DF804FB0000A2
:101D380030B585B0044600F07BF90546237E029352
:101D4800B4F914300193B4F910300093B4F90C309D
:101D5800B4F9082061682068FFF79BF8174B1B88C7
:101D6800A26893420CD3E1688B4209D814490988C8
:101D78002069814204D36069814201D8012D14D0C1
:101D8800B5B9934216D3E268934213D80C4B1B881B
:101D9800226993420ED3626993420BD8637E012B6A
:101DA80008D100236376022504E00123637601E06D
:101DB80000256576284605B030BD00BF2E000020FE
:101DC8003000002000B583B0038A0093C368B0F9DF
:101DD8000820B0F90410B0F90000FFF7D7F903B0F4
:101DE8005DF804FB08B5C368028981880088FFF79D
:101DF80028FA08BD00B583B00369426901920093CF
:101E0800B0F90C30B0F90820B0F90410B0F90000AE
:101E1800FFF72CFA002003B05DF804FB00B589B089
:101E28000691436A0593036A0493C369039383691C
:101E38000293037D0193038A009383890289818831
:101E48000088FFF765FC002009B05DF804FB00B5C9
:101E580087B0037F0591026A049203938369029312
:101E68004369019303690093B0F90C30B0F9082075
:101E7800B0F90410B0F90000FFF7B2FC002007B079
:101E88005DF804FB30B585B004460D46037F427FFC
:101E9800039202934369019303690093C36802891B
:101EA80081880088FFF7E9FC2068B4F808C060441E
:101EB80080B26268A2EB4C0C06302B46A2691FFA6E
:101EC8008CF180B2FFF7E2FB002005B030BD90F83E
:101ED800383003B1704710B58AB0836AC26A016BA3
:101EE800446B0994089107920693436A0593036A21
:101EF8000493C3690393037E0293436901930369BF
:101F080000938389028981880088FFF7D7FC0AB08B
:101F180010BD4B7A03B1704710B58CB0036B0C7AC7
:101F28000A940C6809940892426B07920693C36A54
:101F38000593836A0493436A0393036A0293037EB7
:101F480001934B6800938389028981880088FFF791
:101F5800A3FD0CB010BD000000B587B00A460023F1
:101F68008DF817304FF480530293012301930DF13C
:101F7800170100910146044801F018FF9DF8170069
:101F880007B05DF804FB00BF90FC032000B587B0E4
:101F98008DF817204FF480530293012301930DF11C
:101FA800170200920A460146024801F029FE07B0CE
:101FB8005DF804FB90FC032070B582B0064600244F
:101FC8008DF80740254601E00134E4B285F00103AD
:101FD800022C8CBF002303F0010363B1A821F0B2E7
:101FE800FFF7BAFF8DF807009DF80730DBB2512BD9
:101FF800EAD10125E8E79DF8070002B070BD0000AE
:1020080008B5C82001F04EF97020FFF7D5FF064B40
:1020180008221A700022A4217020FFF7B7FF034B93
:1020280001221A7008BD00BF3F0000203C000020BC
:10203800002070472DE98048ADF5657DC24E00242B
:1020480034734FF4887373604FF4F073B3600125F1
:102058007573BE4931602246BD4802F0D3F9304657
:10206800FEF71AFEC823E0934FF4C873E1931E20CD
:10207800E290E623E3934FF47F41DF91FF23D89367
:10208800DFF8D0E2CDF864E302268DF87863DA95BC
:102098004FF4F072DB92DC954FF48872DD923222B5
:1020A800D4924FF4F072D5923222D6924FF48772BE
:1020B800D7924FF47F02D3926427CF974FF4E177FA
:1020C800D097C827D197CE934FF005078DF848735E
:1020D800C827C9977D27CA97CC912827CB97C827A7
:1020E800BE974FF4C877BF97C0902827C197C2946E
:1020F8000A27C3970627C4974FF0030A8DF820A331
:10210800C694C593C7928DF821A3B3903227B4978C
:10211800B5904FF4837CCDF8D8C2B7940A20B89014
:102128000620B9908DF8F4A2BB94BA93BC924FF0F4
:1021380004088DF8F5826420AD907820AE90CDF833
:10214800C0E2CDF8C4A22820AF901420A3904FF08D
:102158002309CDF890920A20A5904FF0190BCDF8DD
:1021680098B2A7936FF07F40A890A9948DF8A852D1
:10217800AB90C82796974FF4C87797972D279897CD
:10218800322799979A940A279B979D939E928DF848
:1021980080A20627A197CDF87CE214278997CDF86D
:1021A80028B2CDF82C92CDF830C28D940A278E979C
:1021B800909391928DF84C8206279497CDF848E237
:1021C8004FF0F00ECDF808E24FF4AA7ECDF80CE2FD
:1021D8004FF0BE0ECDF810E2CDF814C28692DFF8AB
:1021E8007881CDF81C828DF821428DF820424FF07D
:1021F8008709CDF8EC914FF0EB09CDF8F091CDF8C7
:10220800F4E1CDF8F8C17F92CDF800828DF805424F
:102218008DF8044240F25919CDF8CC9140F2BD181E
:10222800CDF8D081CDF8D4E1CDF8D8C177927891A6
:102238007993CDF8AC91CDF8B0814FF0710CCDF811
:10224800B4C14FF0B90CCDF8B8C16F9270917193C9
:102258004FF0500CCDF898C14FF05A09CDF89C9129
:102268006890DFF8F8C0CDF8A4C15B9640F2DF1E95
:10227800CDF870E15D9640F20F1CCDF878C1CDF82D
:102288007CB16293619264918DF880516390DFF81C
:10229800D080CDF85C815694589059948DF854515B
:1022A800E62751974FF49B78CDF8488164275397D8
:1022B800782754974596CDF818E14796CDF820C170
:1022C800CDF824B14C93DFF89C80CDF834814B9243
:1022D8004F918DF828514E903996CDF8E8E03B960D
:1022E800CDF8F0C0CDF8F4B04193DFF87CC0CDF85C
:1022F80000C13F9243918DF8F8504290C8272D971E
:102308004FF4C8772E974FF0460CCDF8BCC0CDF8E7
:10231800C09031940A273297062733978DF8E050FA
:1023280035943491379236938DF8E1A02A938DF83D
:10233800B150052727972B90CDF894B032272697D0
:102348008DF8B040289111E040FC032040000020A7
:10235800DCFC032000FFFF00FF3333008080800097
:10236800C0C0C000FF999900FFCCCC0029938DF81C
:10237800B3501A901B911D921E950A231F93169510
:102388004FF4F07317930A232093219418954FF470
:10239800887319936423229323948DF890401C9694
:1023A80014940A2313938DF854600C9528230D93E5
:1023B8000E960F901094119116A8FFF788FD6C46A1
:1023C800344D0FCD0FC40FCD0FC495E8030084E83A
:1023D80003006A4613A916A8FFF79BFD40F6B8301C
:1023E80000F060FF0020FEF7BBFCDFA8FFF782FCCF
:1023F80040F6B83000F056FFD8A8FFF799FC40F631
:10240800B83000F04FFF0020FEF7AAFCD3A8FFF772
:1024180071FC40F6B83000F045FF0020FEF7A0FC44
:10242800CEA8FFF774FC40F6B83000F03BFF002060
:10243800FEF796FCC9A8FFF7D5FC40F6B83000F0C7
:1024480031FF4FF47F40FEF78BFC13495BA8FFF781
:10245800E5FC7BA8FFF7CEFC41F2883000F022FFB4
:102468000020FEF77DFCADA8FFF7ACFC40F6B830C5
:1024780000F018FF0020FEF773FC084925A8FFF7B5
:1024880001FD0749A3A8FFF7E2FC40F6B83000F0C9
:1024980009FF91E7985B00086878000870780008E1
:1024A8008078000810B584B0002400940194029448
:1024B800039400F061FF01238DF800308DF801408E
:1024C8000D4A019211228DF808208DF809408DF8E7
:1024D8000A4003228DF80B208DF80C408DF80D4032
:1024E8008DF80E308DF80F40684600F063FF042029
:1024F80000F050FF04B010BD040000202DE9F04F9B
:1025080091B000240B940C940D940E940F94AA4B44
:102518001A6B42F010021A631A6B02F01002009252
:10252800009A1A6B42F040021A631A6B02F04002DA
:102538000192019A1A6B42F002021A631A6B02F0B6
:1025480002020292029A1A6B42F008021A631A6B8C
:1025580002F008020392039A1A6B42F004021A630B
:102568001A6B02F004020492049A1A6B42F00102F8
:102578001A631A6B02F001020592059A1A6B42F46B
:1025880000721A631A6B02F400720692069A1A6BAA
:1025980042F480721A631A6B02F480720792079AE7
:1025A8001A6B42F480621A631A6B02F48062089212
:1025B800089A1A6B42F020021A631A6B02F0200282
:1025C8000992099A1A6B42F080021A631B6B03F096
:1025D80080030A930A9B01222021784801F03CF9E4
:1025E80022460C21764801F037F901220821754866
:1025F80001F032F901224FF48051714801F02CF9B1
:1026080022464FF40051704801F026F92246C821AD
:102618006E4801F021F908230B930C940D94DFF810
:10262800B8910BA9484601F025F804230B9302251D
:102638000C950D9403260E9609230F930BA9484673
:1026480001F018F84FF4D0430B930C950D940E96A7
:102658000B230F930BA95D4801F00CF84FF440735E
:102668000B9312230C930D940E9404230F93DFF80D
:102678006CB10BA9584600F0FDFF43F623430B93BA
:102688000C950D940E964FF00A08CDF83C800BA9D6
:10269800584600F0EFFF10230B930C950D940E9401
:1026A8000F950BA9584600F0E5FF80230B930C9576
:1026B8000D940E9408230F930BA9404800F0DAFFFD
:1026C8004FF400430B930C950D940E9401270F972C
:1026D800DFF80CA10BA9504600F0CCFF60230B9348
:1026E8000C950D940E940D230F930BA9484600F0FA
:1026F800C1FF80230B930C950D940E9407230F9321
:102708000BA9584600F0B6FF40230B930C950D9487
:102718000E96CDF83C800BA9584600F0ABFF4FF45D
:1027280080530B930C940D940BA9294800F0A2FF39
:1027380040230B93274B0C930D940BA91F4800F0D3
:1027480099FF4FF4E0530B930C950D940E96CDF82A
:102758003C800BA9504600F08DFFF0230B930C959D
:102768000D940E94CDF83C800BA9154800F082FF1B
:102778004FF480630B930C950D940E94CDF83C8028
:102788000BA9124800F076FF20230B930C970D94A9
:102798000E940BA9094800F06DFF08220B920C95C6
:1027A8000D940E940D220F920BA9044800F062FFBD
:1027B80041F20C030B9315E000380240000C024074
:1027C8000020024000280240001C0240001802407D
:1027D80000240240000012100010024000040240D1
:1027E800000002400C970D940E940BA98E4800F03F
:1027F80041FF4FF400520B920C940D94A9F5006917
:102808000BA9484600F036FF08220B920C970D944E
:102818000E940BA9854800F02DFF4FF400720B921F
:102828000C950D940E940D220F920BA9804800F080
:1028380021FF10220B920C940D940BA97D4800F0F7
:1028480019FF48F204030B930C940D940BA97A48D2
:1028580000F010FF0B950C950D940E9405220F9225
:102868000BA9714800F006FF4FF400520B920C9729
:102878000D940E940BA9704800F0FCFE4FF4BC4375
:102888000B930C950D940E940D220F920BA96A4888
:1028980000F0F0FE0B970C950D940E940F950BA974
:1028A800614800F0E7FE4FF400720B920C950D940E
:1028B8000E9407220F920BA9504600F0DBFE4FF44E
:1028C80080730B930C950D940E940F970BA950469B
:1028D80000F0D0FE4FF400520B92584B0C930D941D
:1028E8000BA9514800F0C6FEC0230B930C950D941C
:1028F8000E9608230F930BA9484600F0BBFE102341
:102908000B930C950D940E96CDF83C800BA94A4874
:1029180000F0B0FEC8230B930C970D940E940BA9EE
:10292800434800F0A7FE4FF4F8630B930C960D9400
:102938000BA9434800F09EFE05230B930C950D94BC
:102948000E96CDF83C800BA9484600F093FE322342
:102958000B930C950D940E960B230F930BA94846D9
:1029680000F088FE04230B930C950D940E96092312
:102978000F930BA9584600F07DFE4FF460530B935C
:102988000C950D940E9609230F930BA9294800F076
:1029980071FE04230B930C940D940BA9244800F0AA
:1029A80069FE86230B930C950D940E960B230F93BB
:1029B8000BA9504600F05EFE0B970C960D940BA9E0
:1029C800504600F057FE50230B930C950D940E942F
:1029D8000D230F930BA9504600F04CFE28230B93B0
:1029E8000C950D940E96CDF83C800BA9504600F03E
:1029F80041FE40230B930C950D940E9409230F93DD
:102A08000BA90D4800F036FE4FF440430B930C958C
:102A18000D940E9405230F930BA9584600F02AFE37
:102A280011B0BDE8F08F00BF00200240002802402E
:102A380000180240000C0240001C02400000121066
:102A48000014024008B50268034B9A4200D008BD42
:102A580000F016FCFBE700BF0010004072B6FEE76E
:102A680008B50C480C4B03600023436002228260C7
:102A7800C3608362C2620363436300F0CBFC28B97E
:102A88000121044800F094FD10B908BDFFF7E6FFE6
:102A9800FFF7E4FF50FC032000B0024000B589B006
:102AA80000230193029303930493059306930793DA
:102AB8001348144A0260436083600421C1601022F5
:102AC8000261402242614FF4C0728261C3614FF4D7
:102AD800006202624FF480524262836202230193D1
:102AE8000622029203910492059306930793694480
:102AF80002F091FD10B909B05DF804FBFFF7AEFFD5
:102B0800A4FD0320400100A008B51148114B036043
:102B1800114B4360E02383600123C36000230361FA
:102B280043618361C361036201F00CF850B900216D
:102B3800074801F013FA38B90021054801F03CFABA
:102B480020B908BDFFF78AFFFFF788FFFFF786FF68
:102B580090FC0320005C0040FFEAC00000B58FB085
:102B68003422002101A802F0FFFF2648264B03600B
:102B7800002343608360C360036128224261092205
:102B880082613522C2610B22026240F21522426242
:102B980040F21B12826240F23522C26240F21D12DC
:102BA800026380F8343080F8353080F8363001F030
:102BB8000BFB18BB002201924FF4F07102910392B3
:102BC8004FF48873049302200590FF200690079223
:102BD8004FF480600890052009900A920B910C939D
:102BE8008DF834208DF835208DF8362001A9054858
:102BF80001F0D4FB20B90FB05DF804FBFFF72EFFFE
:102C0800FFF72CFFDCFC03200068014010B592B0F0
:102C180000240C940D940E940F94109411940B941A
:102C28002C222146684602F09FFF3148314B036051
:102C380044607F238360FF23C3600461446184612F
:102C480002F0ACFA002847D100238DF830308DF817
:102C580031308DF832301093119301220CA9244899
:102C680002F00AFB002839D101228DF82C208DF8BA
:102C78002D208DF82E2000238DF82F300BA91C480D
:102C880002F07AFB60BB00238DF800308DF801302C
:102C98008DF80230019304930593069307930893E4
:102CA80001228DF824204FF480730A936946104856
:102CB80002F0D0FBB0B94FF400730A9301226946C1
:102CC8000B4802F0C7FB78B902220021084802F03D
:102CD80071FC58B912B010BDFFF7C0FEFFF7BEFE79
:102CE800FFF7BCFEFFF7BAFEFFF7B8FEFFF7B6FE28
:102CF80084FD03200028004000B5B5B03022002133
:102D080028A802F031FF00212391249125912691D2
:102D18002791842202A802F027FF01F095FB334B8C
:102D28001A6C42F080521A641B6C03F080530093B3
:102D3800009B2F4B1A6842F440421A601B6803F448
:102D480040430193019B092328934FF4803329932F
:102D580001232D9302232E934FF480022F921922E0
:102D680030924FF4C872319232930823339328A8D3
:102D780001F0B0FB002831D101F06EFB00282FD103
:102D88000F23239302232493002325934FF4A05366
:102D980026934FF480532793062123A801F006FEBB
:102DA80000BB144B029364230793022309930893EF
:102DB80000230A9301220C924FF480320D924FF4B3
:102DC80000720E921D934FF000622192229302A886
:102DD80001F0D6FE40B935B05DF804FBFFF73EFEC2
:102DE800FFF73CFEFFF73AFEFFF738FE00380240D7
:102DF800007000402800A10008B5FFF753FB00F061
:102E08002DFAFFF779FF4FF4FA7000F04BFAFFF74D
:102E180075FBFFF725FEFFF741FEFFF775FEFFF78D
:102E28009DFEFFF7F3FEFFF705F9FCE7F0B587B065
:102E38000023019302930393049305932A4B1B6881
:102E48000BB107B0F0BD284B01221A60274B9A6BD3
:102E580042F001029A639B6B03F001030093009B0D
:102E68004FF68373019302260296032504950C24DA
:102E7800059401A91E4800F0FDFB48F233130193A5
:102E88000296002703970495059401A9194800F0B4
:102E9800F1FB4CF203730193029603970495059492
:102EA80001A9154800F0E6FB4FF63F03019302968F
:102EB80003970495059401A9104800F0DBFB28232B
:102EC8000193029603970495059401A90C4800F014
:102ED800D1FB08230193029603970495059401A951
:102EE800084800F0C7FBACE7D8FD032000380240D3
:102EF8000010024000180240000C0240001402407A
:102F0800001C02400008024082B00A4B1A6C42F0D2
:102F180080521A641A6C02F080520092009A5A6C1D
:102F280042F480425A645B6C03F480430193019B32
:102F380002B070470038024002680E4B9A4200D037
:102F4800704700B583B0A3F5F0431A6B42F4000252
:102F58001A631B6B03F400030193019B00221146C3
:102F68005A2000F0C5F95A2000F0F8F903B05DF8CE
:102F780004FB00BF00B0024010B588B000230393E3
:102F880004930593069307930268144B9A4201D061
:102F980008B010BD124C236B43F080032363236BEE
:102FA80003F080030193019B4FF4C0730393122332
:102FB800049301230593032306930423079303A98A
:102FC800084800F057FB236C43F400032364236C88
:102FD80003F400030293029BDAE700BF005C0040A1
:102FE80000380240001C024070B58CB000230793E3
:102FF800089309930A930B9302683E4B9A4201D0B7
:103008000CB070BD03F550435A6C42F080625A64AC
:103018005A6C02F080620192019A1A6B42F0100217
:103028001A631A6B02F010020292029A1A6B42F4A7
:1030380000721A631A6B02F400720392039A1A6BF5
:1030480042F480621A631A6B02F480620492049A52
:103058001A6B42F040021A631A6B02F040020592A2
:10306800059A1A6B42F480721A631B6B03F480731F
:103078000693069B10230793022508950E260B96A8
:1030880007A91D4800F0F6FA4EF6FF730793089556
:10309800002409940A940B9607A9184800F0EAFA44
:1030A800F7230793089509940A940B9607A91448DF
:1030B80000F0E0FA4FF480530793089509940A94B6
:1030C80009230B9307A90F4800F0D4FA4FF446439D
:1030D8000793089509940A940B9607A90A4800F0E3
:1030E800C9FA22462146582000F002F9582000F07B
:1030F80035F985E7006801400010024000240240CD
:103108000028024000180240002002400268054BD7
:103118009A4200D07047044A136F43F40043136780
:10312800F8E700BF002800400038024008B5FFF764
:103138007DFE08BD00B589B001460022362000F0AA
:10314800D7F8362000F00AF9154B1A6C42F0100235
:103158001A641B6C03F010030193019B02A903A8D6
:1031680001F0F0FC01F0DEFC43000E48A0FB032355
:103178009B0C013B0C480D4A026040F2E732C260EA
:10318800436000230361836002F008FC18B101204A
:1031980009B05DF804FB044802F05EFAF8E700BFE6
:1031A8000038024083DE1B43DCFD03200010004092
:1031B800FEE7FEE7FEE7FEE7FEE770477047704769
:1031C8007047000008B5024802F092FA08BD00BF37
:1031D800DCFD032008B5024801F073F808BD00BF04
:1031E800DCFC032008B5024800F044F908BD00BF24
:1031F80050FC0320034AD2F8883043F47003C2F825
:103208008830704700ED00E0DFF834D00D480E49F3
:103218000E4A002302E0D458C4500433C4188C4228
:10322800F9D30B4A0B4C002301E013600432A2428D
:10323800FBD3FFF7DFFF02F073FCFFF7DDFD7047FC
:1032480000000520000000200C000020B8780008CD
:103258000C0000202CFE0320FEE7000008B5074AFA
:10326800136843F400731360032000F02FF8002064
:10327800FFF760FFFFF748FE002008BD003C024052
:10328800034A1168034B1B780B441360704700BF57
:1032980028FE032004000020014B1868704700BF77
:1032A80028FE032038B50446FFF7F6FF0546B4F1BB
:1032B800FF3F02D0044B1B781C44FFF7EDFF401B77
:1032C800A042FAD338BD00BF040000200649CB68ED
:1032D80023F4E0631B041B0C000200F4E0600343CA
:1032E800024A1A43CA60704700ED00E00000FA0580
:1032F80000B5174BDB68C3F30223C3F1070CBCF11D
:10330800040F28BF4FF0040C03F1040EBEF1060FA2
:1033180014D9033B4FF0FF3E0EFA0CFC21EA0C01D6
:1033280099400EFA03F322EA03031943002807DB46
:103338000901C9B2074B19545DF804FB0023E9E7FA
:1033480000F00F000901C9B2034B1954F4E700BF9C
:1033580000ED00E000E400E014ED00E0002807DBE9
:1033680000F01F02400901239340024A42F820302E
:10337800704700BF00E100E0BFF35F8F044B5A6A5B
:1033880022F480325A620022C3F89420704700BFAA
:1033980000ED00E040F00100054BC3F894005A6AC4
:1033A80042F480325A62BFF34F8FBFF36F8F70477A
:1033B80000ED00E04278164BC3F898200378FBB183
:1033C8004368134AC2F89C30017BC37A1B0643EA60
:1033D8000173817A43EAC143417B43EA8143817B9C
:1033E80043EA4143C17B43EA0143417A43EA01236B
:1033F800017A43EA410301780B43C2F8A0307047D1
:10340800034B0022C3F89C20C3F8A020704700BFDC
:1034180000ED00E038B310B5044690F83930EBB150
:10342800022384F839302268136823F44033616832
:103438000B4313602268536B23F00703A1680B4307
:1034480053632268116C094B0B40E1680B4313640A
:103458000020E063012384F8393010BD80F838304B
:10346800FFF76AFDDCE70120704700BF00C0FFFFDF
:103478007047704770B5044603685D681E6815F0AC
:10348800010F16D016F4807F13D01A6822F48072C8
:103498001A60C36B43F00103C363036801229A6097
:1034A800042380F83930002380F83830436903B1A9
:1034B800984715F0200F18D016F4005F15D0226831
:1034C800136823F400531360236820229A60E36B87
:1034D80043F00203E363042384F83930002384F8BB
:1034E800383063690BB12046984715F0080F18D09B
:1034F80016F4006F15D02268136823F40063136074
:10350800236808229A60E36B43F00403E36304230F
:1035180084F83930002384F8383063690BB12046C9
:10352800984715F0040F02D016F4806F20D115F0DB
:10353800020F16D016F4007F13D02268136823F404
:1035480000731360236802229A60E36BE36301232C
:1035580084F83930002384F8383023690BB12046C9
:10356800984715F0100F02D016F4805F0CD170BD8B
:103578002268136823F480631360236804229A6026
:103588002046FFF775FFD2E72268136823F48053BB
:103598001360236810229A60E36BE363012384F8C5
:1035A8003930002384F838302046FFF762FFDEE721
:1035B80090F83830012B59D030B4012380F83830D6
:1035C800022380F8393000EB0113DA698B1C1B01E8
:1035D800C35842EA0343093A012A1ED98A1C00EB60
:1035E8000212526843EA026341BB0468656A204AD2
:1035F8002A4013436362026800EB01139C699461DB
:10360800DB69093B012B10D9012380F839300023ED
:1036180080F83830184630BC70478A1C00EB02121C
:10362800526802F07F421343DEE7023100EB0111DA
:103638004B68026823F07F439362E5E70468E56915
:103648000B4A2A401343E361026800EB01139C69AB
:103658001461DB69093B012BD6D8023100EB01115B
:103668004B68026823F07F431362CDE7022070475E
:10367800F0FFFC0000230F2B00F2E480F0B583B0CC
:103688003AE0092200E00022AA40324302346E4D9B
:1036980045F824206D4A14686FEA0C0224EA0C05E8
:1036A8004E6816F4803F01D04CEA0405674C25604B
:1036B800646802EA04054E6816F4003F01D04CEA3B
:1036C8000405624C6560A46802EA04054E6816F4B5
:1036D800801F01D04CEA04055C4CA560E4682240D8
:1036E8004D6815F4001F01D04CEA0402574CE26003
:1036F80001330F2B00F2A48001229A400C6804EADF
:10370800020C32EA0404F3D14C68651E112C18BF70
:10371800012D01D9122C12D185685E000324B44012
:1037280025EA0405CC68B4402C438460456825EA42
:1037380002054C68C4F300129A402A434260C568E7
:103748004FEA430E032404FA0EF4E24325EA040583
:103758008C6804FA0EF42C43C4604C68122C18BF11
:10376800022C0FD1DD08083550F8257003F0070446
:10377800A6000F24B44027EA04070C69B4403C4370
:1037880040F82540046814404A6802F0030202FA2F
:103798000EF2224302604A6812F0805FA8D02C4AD9
:1037A800546C44F480445464526C02F48042019294
:1037B800019A9C08A51C244A52F8256003F00302CC
:1037C80095000F22AA4026EA0206224A90423FF4B8
:1037D8005AAF02F58062904222D002F58062904290
:1037E80020D002F5806290421ED002F5806290429D
:1037F8001CD002F5806290421AD002F58062904295
:1038080018D002F58062904216D002F5806290428C
:1038180014D002F5806290423FF433AF0A2233E7B6
:10382800012231E702222FE703222DE704222BE7AA
:10383800052229E7062227E7072225E7082223E7AA
:1038480003B0F0BD704700BF00380140003C0140A4
:1038580000380240000002400AB181617047090443
:103868008161704703689A6912F0020F01D0002243
:103878009A6203689A6912F0010F03D19A6942F0BB
:1038880001029A61704730B4029D046860684FEA8B
:10389800555C0CF4806C4CF07F7C4CF4583C4CF438
:1038A8007F7C4CF0030C20EA0C00C1F3090141EACB
:1038B8000241194329430143616030BC7047F8B5A0
:1038C80005460E46174603689B6913F0100F01D191
:1038D8000020F8BD2B689C6914F0200F17D1B6F1B1
:1038E800FF3FF7D0FFF7D8FCC01BB04201D8002E2D
:1038F800F0D16B6C43F020036B64202385F84130D2
:10390800002385F8423085F840300120E1E7102295
:10391800DA612B682024DC612846FFF7A3FF2A68B8
:10392800536823F0FF7323F48B3323F4FF7323F0DE
:10393800010353606B6C43F004036B6485F84140EA
:10394800002385F8423085F840300120C1E770B582
:1039580004460D46164623689B6913F0020F1DD1D5
:10396800324629462046FFF7AAFFC8B9B5F1FF3FFE
:10397800F1D0FFF791FC801BA84201D8002DEAD1B5
:10398800636C43F020036364202384F841300023F0
:1039980084F8423084F84030012000E0002070BDF7
:1039A8000120FCE72DE9F0410646884617461D46EA
:1039B8003468A46938EA04030CBF4FF0010C4FF0D7
:1039C800000CBC4518D1B5F1FF3FF1D0FFF764FCFE
:1039D800069BC01AA84201D8002DE9D1736C43F0A8
:1039E80020037364202386F84130002386F8423090
:1039F80086F84030012000E00020BDE8F08100009A
:103A08002DE9F04182B0044690461D46089E099F64
:103A1800194B00934FF08073EAB2FFF734FF3A4630
:103A280031462046FFF793FFF8B9012D0ED12368E0
:103A38005FFA88F29A620097334600228021204676
:103A4800FFF7B0FFA8B902B0BDE8F08123684FEADC
:103A580018229A623A4631462046FFF778FF30B975
:103A680023685FFA88F29A62E5E70120EBE7012014
:103A7800E9E70120E7E700BF002000802DE9F041D9
:103A880082B0044690461D46089E099F184B009335
:103A98000023EAB2FFF7F7FE3A4631462046FFF721
:103AA80056FFF8B9012D0ED123685FFA88F29A62A1
:103AB80000973346002240212046FFF773FFA8B93C
:103AC80002B0BDE8F08123684FEA18229A623A46AC
:103AD80031462046FFF73BFF30B923685FFA88F28A
:103AE8009A62E5E70120EBE70120E9E70120E7E733
:103AF8000020008070B505460C4616462B689B6969
:103B080013F0200F1AD1324621462846FFF7D7FE78
:103B1800B0B9FFF7C1FB801BA04201D8002CEDD142
:103B28006B6C43F020036B64202385F8413000233D
:103B380085F8423085F84030012070BD0020FCE750
:103B48000120FAE7002857D010B5044690F8413014
:103B5800002B41D0242384F841302268136823F0D5
:103B6800010313606368226823F07063136122689D
:103B7800936823F400439360E368012B31D0A36872
:103B8800226843F404439360E368022B2FD0226831
:103B980051681A4B0B4353602268D36823F40043DF
:103BA800D360236962691343A169226843EA012348
:103BB800D360E369216A22680B43136022681368A3
:103BC80043F00103136000206064202384F841302F
:103BD800206384F8420010BD80F84030FFF7CCF92C
:103BE800B8E7A368226843F400439360CCE72368EE
:103BF8004FF400625A60CAE7012070470080000253
:103C08002DE9F04F83B00D46BDF834A00E9F90F813
:103C18004110C9B2202940F0BC800446904699461C
:103C28000C9BBAF1000F18BF002B16D090F840304B
:103C3800012B00F0B2804FF0010B80F840B0FFF785
:103C48002BFB0646009019235A464FF400412046A4
:103C5800FFF7A8FE30B101209CE04FF400734364E5
:103C6800012097E0212384F84130402384F8423032
:103C7800002363640C9A6262A4F82AA06363019625
:103C880000974B46424629462046FFF7B9FE70B9D1
:103C9800638D9BB2FF2B0FD9FF222285002300934F
:103CA8004FF0807329462046FFF7EDFD21E0002301
:103CB80084F8403058466DE0628D92B22285002328
:103CC80000934FF00073D2B229462046FFF7DBFD80
:103CD8000FE0628D92B22285002300934FF00073AB
:103CE800D2B229462046FFF7CEFD638D9BB2002B4A
:103CF80033D0324639462046FFF729FE00284ED1F8
:103D0800626A236812789A62636A01336362638D18
:103D18009BB2013B9BB26385238D013B9BB22385FC
:103D2800628D92B2002AE0D0002BDED100963B468D
:103D3800002280212046FFF735FE90BB638D9BB2A1
:103D4800FF2BC6D9FF222285002300934FF08073F2
:103D580029462046FFF797FDC7E7324639462046F1
:103D6800FFF7C8FEF8B923682022DA6121684B689A
:103D780023F0FF7323F48B3323F4FF7323F0010341
:103D88004B6084F84120002384F8423084F84030A6
:103D980000E0022003B0BDE8F08F0220FAE701201E
:103DA800F8E70120F6E70120F4E700002DE9F04FDD
:103DB80083B00D46BDF834A00E9F90F84110C9B2EB
:103DC800202940F0BD800446904699460C9BBAF1E4
:103DD800000F18BF002B16D090F84030012B00F0D0
:103DE800B3804FF0010B80F840B0FFF755FA064654
:103DF800009019235A464FF400412046FFF7D2FDA0
:103E080030B101209DE04FF400734364012098E035
:103E1800222384F84130402384F84230002363642D
:103E28000C9A6262A4F82AA06363019600974B4635
:103E3800424629462046FFF721FE70B9638D9BB2A2
:103E4800FF2B0FD9FF222285434B00934FF080733D
:103E580029462046FFF717FD21E0002384F840306B
:103E680058466EE0628D92B222853B4B00934FF02C
:103E78000073D2B229462046FFF705FD0FE0628D98
:103E880092B22285002300934FF00073D2B22946E4
:103E98002046FFF7F8FC638D9BB2002B34D00096C8
:103EA8003B46002204212046FFF77CFD00284DD127
:103EB80023685A6A636A1A70636A01336362228DDF
:103EC800013A92B22285638D9BB2013B9BB2638516
:103ED800638D9BB2002BDED0002ADCD100963B46D6
:103EE80080212046FFF75EFD90BB638D9BB2FF2BC0
:103EF800C5D9FF222285002300934FF080732946FD
:103F08002046FFF7C0FCC6E7324639462046FFF791
:103F1800F1FDF8B923682022DA6121684B6823F0A3
:103F2800FF7323F48B3323F4FF7323F001034B60F7
:103F380084F84120002384F8423084F8403000E0BF
:103F4800022003B0BDE8F08F0220FAE70120F8E76D
:103F58000120F6E70120F4E70024008090F84130C2
:103F6800DBB2202B24D190F84030012B22D0012342
:103F780080F84030242380F841300268136823F029
:103F8800010313600268136823F480531360026806
:103F98001368194311600268136843F00103136042
:103FA800202380F84130002380F8403018467047BD
:103FB800022070470220704790F84130DBB2202B76
:103FC80022D190F84030012B20D0012380F84030D6
:103FD800242380F841300268136823F0010313603A
:103FE8000268136823F4706343EA012111600268D0
:103FF800136843F001031360202380F84130002345
:1040080080F84030184670470220704702207047F9
:10401800F0B54D680468E368C3F30B431D444FEAE9
:10402800C21C04EBC214D4F8883003F47043C4F8FB
:1040380088300B680468E668C6F30B4633440133DE
:1040480004EBC21443EA0543C4F88830CD68046819
:10405800E368C3F30A031D4404EBC21EDEF88C3088
:1040680003F47043CEF88C308B680468E668C6F3B6
:104078000A0E7344013304EBC21443EA0543C4F83F
:104088008C30036803EBC213D3F8944024F0070480
:10409800C3F89440036803EBC2130C69C3F8944057
:1040A80091F8317091F832608D69046804EBC2149C
:1040B80004F1840ED4F89C300024CEF8184091F80E
:1040C800303043EA072343EA0643066806EBC21E7C
:1040D80043EA0563CEF89C300EF1840E036803EBC7
:1040E800C213D3F8985025F0FF05C3F89850036819
:1040F80003EBC2134D69C3F89850036803EBC2136E
:10410800D3F8A0602E4D3540C3F8A0500D6A03685F
:1041180003EBC213CE693543C3F8A050036803EB21
:10412800C213D3F8AC50C3F8AC40036803EBC21217
:104138004B6AC2F8AC300B696BB1012B39D0022B3A
:1041480018BF042B37D0032B37D0072B01D00125FC
:1041580002E0022500E0042502686244D2F8B0407B
:1041680004F0E024C2F8B0408A6A05FB02F44B6808
:104178000A689B1A05FB03F303330268624443EAA7
:104188000443C2F8B03003686344D3F8B4400D4A1E
:104198002240C3F8B42003686344CA6AC3F8B42051
:1041A80003689C44DCF8843043F00103CCF8843085
:1041B800F0BD0325D0E70225CEE70225CCE700BFF6
:1041C800F8F8FFFF00F8FFFF002872D038B5044662
:1041D80090F8A130002B67D0022384F8A130226820
:1041E800936923F07043936121688A696368A068C2
:1041F8000343E06803432069034313438B61216849
:104208008A682D4B1A408A6020688268A1696569AE
:1042180041EA05410A4382602168CA681A40CA60B7
:104228002068C268216AE56941EA05410A43C2601B
:1042380021680A691A400A6120680269A16A656AE8
:1042480041EA05410A43026121684A6913404B610A
:10425800E06A21684B69226B42EA004213434B61D2
:1042680094F8350094F836301B042168CA6A02F0C5
:104278007F42CA622168CA6A43EA002394F834007C
:1042880003431343CB622268536B43F00603536323
:104298002268936943F0010393610020C4F8A400E5
:1042A800012384F8A13038BD80F8A030FEF79CFEC9
:1042B80092E70120704700BF00F800F07047704790
:1042C800704770B5044603689D6B5E6B15F0040F6C
:1042D80002D016F0040F12D115F0020F02D016F01A
:1042E800020F21D115F0010F02D016F0010F32D1C3
:1042F80015F0080F02D016F0080F3DD170BD5A6BAB
:1043080022F004025A6303680422DA63D0F8A43066
:1043180043F00103C0F8A43080F8A120002380F8FE
:10432800A030FFF7CBFFD7E72268536B23F00203D7
:10433800536323680222DA63D4F8A4301343C4F821
:10434800A430042384F8A130002384F8A030204648
:10435800FFF7B4FFC6E72268536B23F001035363EA
:1043680022680123D36384F8A130002384F8A030A5
:104378002046FFF7A4FFBBE72268536B23F008032E
:10438800536323680822DA63012384F8A1300023E9
:1043980084F8A0302046FFF793FFAFE7F8B590F810
:1043A800A030012B2CD004460D461646012780F874
:1043B800A070022380F8A1304FF0340C0CFB020CE3
:1043C8000CF1380C8E46BEE80F00ACE80F00BEE8D2
:1043D8000F00ACE80F00BEE80F00ACE80F00DEF8F5
:1043E8000030CCF80030324629462046FFF710FE50
:1043F80023685F6284F8A170002084F8A000F8BDEB
:104408000220FCE738B590F8A030012B19D00446FB
:10441800012580F8A050022380F8A130342302FB44
:1044280003F303F138002344D96521182046FFF728
:10443800EFFD23685D6284F8A150002084F8A00095
:1044480038BD0220FCE70000024A136843F4807379
:10445800136070470070004010B582B01B4B1A6C97
:1044680042F080521A641B6C03F080530193019B45
:10447800174A136843F480331360FEF70DFF0446B0
:10448800134B5B6813F4803F08D1FEF705FF001B50
:10449800B0F57A7FF4D9032002B010BD0C4A136836
:1044A80043F400331360FEF7F7FE0446084B5B68DD
:1044B80013F4003F07D1FEF7EFFE001BB0F57A7F3B
:1044C800F4D90320E8E70020E6E700BF00380240FF
:1044D80000700040002800F0FF8170B582B00446EB
:1044E800036813F0010F29D0954B9B6803F00C0368
:1044F800042B1AD0924B9B6803F00C03082B0FD0A7
:104508006368B3F5803F40D0002B54D18C4B1A68B8
:1045180022F480321A601A6822F480221A6039E084
:10452800874B5B6813F4800FEAD0854B1B6813F444
:10453800003F03D06368002B00F0D081236813F09C
:10454800020F74D07E4B9B6813F00C0F5ED07C4B2F
:104558009B6803F00C03082B53D0E368002B00F092
:104568008980774A136843F001031360FEF794FECD
:104578000546734B1B6813F0020F72D1FEF78CFED1
:10458800401B0228F5D90320ADE16D4A136843F4B6
:104598008033136063682BB3FEF77EFE0546684BD5
:1045A8001B6813F4003FC9D1FEF776FE401B642850
:1045B800F5D9032097E1B3F5A02F09D0604B1A680D
:1045C80022F480321A601A6822F480221A60E1E725
:1045D8005B4B1A6842F480221A601A6842F48032EF
:1045E8001A60D7E7FEF758FE0546554B1B6813F4CB
:1045F800003FA3D0FEF750FE401B6428F5D90320E6
:1046080071E14F4B5B6813F4800FA6D14C4B1B68CC
:1046180013F0020F03D0E368012B40F06181484A90
:10462800136823F0F803216943EAC1031360236880
:1046380013F0080F46D0636983B3414A536F43F0C0
:1046480001035367FEF728FE05463D4B5B6F13F0E9
:10465800020F37D1FEF720FE401B0228F5D90320B0
:1046680041E1374A136823F0F803216943EAC1039B
:104678001360DCE7324A136823F001031360FEF786
:104688000BFE05462E4B1B6813F0020FCFD0FEF72A
:1046980003FE401B0228F5D9032024E1284A536F62
:1046A80023F001035367FEF7F7FD0546244B5B6FC4
:1046B80013F0020F06D0FEF7EFFD401B0228F5D9D4
:1046C800032010E1236813F0040F7DD01C4B1B6CF2
:1046D80013F0805F1ED11A4B1A6C42F080521A6494
:1046E8001B6C03F080530193019B0125154B1B683C
:1046F80013F4807F10D0A368012B25D0002B3BD169
:104708000F4B1A6F22F001021A671A6F22F0040287
:104718001A671EE00025E9E70A4A136843F4807324
:104728001360FEF7B9FD0646064B1B6813F4807F3D
:10473800E1D1FEF7B1FD801B6428F5D90320D2E052
:1047480000380240007000406E4A136F43F00103C6
:104758001367A36833B3FEF79FFD0646694B1B6FCB
:1047680013F0020F2FD1FEF797FD801B41F288331B
:104778009842F3D90320B6E0052B09D0614B1A6F94
:1047880022F001021A671A6F22F004021A67E0E7A2
:104798005C4B1A6F42F004021A671A6F42F001026A
:1047A8001A67D6E7FEF778FD0646564B1B6F13F0DF
:1047B800020F08D0FEF770FD801B41F28833984243
:1047C800F3D903208FE0FDB9A369002B00F08A809C
:1047D8004C4A926802F00C02082A58D0022B19D0D1
:1047E800484A136823F080731360FEF755FD0446AA
:1047F800444B1B6813F0007F47D0FEF74DFD001BAC
:104808000228F5D903206EE03E4A136C23F080534A
:104818001364D9E73B4A136823F080731360FEF7EB
:104828003BFD0546374B1B6813F0007F06D0FEF7AB
:1048380033FD401B0228F5D9032054E0E369226ABE
:104848001343626A43EA8213A26A5208013A43EAAE
:104858000243E26A43EA026343F00053294A536081
:10486800136843F080731360FEF716FD0446254B6A
:104878001B6813F0007F06D1FEF70EFD001B02280F
:10488800F5D903202FE000202DE000202BE01D4A61
:104898005268012B29D002F48003E1698B4226D1AA
:1048A80002F03F03216A8B4223D1616A47F6C07345
:1048B8001340B3EB811F1ED102F44031A36A5B0899
:1048C800013BB1EB034F18D102F07062E36AB2EB1F
:1048D800036F14D1002006E001207047012002E098
:1048E800012000E0002002B070BD0120FBE701209C
:1048F800F9E70120F7E70120F5E70120F3E70120B8
:10490800F1E700BF0038024008B5254B9B6803F06B
:104918000C03042B3FD0082B3FD1214B5A6802F0DF
:104928003F025B6813F4800F12D01D4B5968C1F326
:1049380088111C480023A1FB0001FBF797FF184BC7
:104948005B68C3F3014301335B00B0FBF3F025E080
:10495800134B5968C1F3881C4FEA4C11B1EB0C009A
:104968006EEB0E0E4FEA8E1343EA90638101091A2B
:1049780063EB0E03DB0043EA5173C90011EB0C0C27
:1049880043F10003990200234FEA8C2041EA9C512D
:10499800FBF76CFFD3E7034800E0034808BD00BFFE
:1049A8000038024040787D010024F400002800F01F
:1049B800A08070B50D460446524B1B6803F00F03E8
:1049C8008B420BD24F4A136823F00F030B4313603B
:1049D800136803F00F038B4240F08D80236813F0B7
:1049E800020F17D013F0040F04D0474A936843F41A
:1049F800E0539360236813F0080F04D0424A936889
:104A080043F460439360404A936823F0F003A1683D
:104A18000B439360236813F0010F31D06368012BB7
:104A280020D0022B25D0384A126812F0020F64D029
:104A380035498A6822F0030213438B60FEF72CFC89
:104A48000646314B9B6803F00C036268B3EB820F98
:104A580016D0FEF721FC801B41F288339842F0D92A
:104A6800032045E0284A126812F4003FE0D10120F3
:104A78003EE0254A126812F0007FD9D1012037E0C4
:104A8800204B1B6803F00F03AB420AD91D4A136879
:104A980023F00F032B431360136803F00F03AB429B
:104AA8002DD1236813F0040F06D0174A936823F416
:104AB800E053E1680B439360236813F0080F07D0B5
:104AC800114A936823F46043216943EAC103936060
:104AD800FFF71AFF0C4B9B68C3F303130B4AD35C15
:104AE800D8400B4B18600B4B1868FEF723FB0020CF
:104AF80070BD012070470120FAE70120F8E7012086
:104B0800F6E700BF003C02400038024090780008F9
:104B18000000002008000020014B1868704700BF03
:104B28000000002008B5FFF7F7FF044B9B68C3F3AC
:104B38008223034AD35CD84008BD00BF0038024036
:104B4800A07800080F2303600B4B9A6802F0030259
:104B580042609A6802F0F00282609A6802F4E052B9
:104B6800C2609B68DB0803F4E0530361034B1B68D6
:104B780003F00F030B60704700380240003C02400E
:104B8800F0B583B00446066816F001060DD0A74BB1
:104B98009A6822F400029A609A68416B0A439A6004
:104BA800436B002B00F039810026256815F4002599
:104BB80011D09E4AD2F88C3023F44013E16B0B439A
:104BC800C2F88C30E36BB3F5801F00F02881002B0E
:104BD80000F027810025236813F4801F0FD0934A23
:104BE800D2F88C3023F44003216C0B43C2F88C308C
:104BF800236CB3F5800F00F0168103B901252368F3
:104C080013F0807F00D0012613F0200F40F01081B0
:104C1800236813F0100F0CD0844BD3F88C2022F0AB
:104C28008072C3F88C20D3F88C20A16B0A43C3F898
:104C38008C20236813F4804F08D07C4AD2F8903037
:104C480023F44033616E0B43C2F89030236813F4A9
:104C5800004F08D0754AD2F8903023F44023A16E53
:104C68000B43C2F89030236813F4803F08D06F4A92
:104C7800D2F8903023F44013E16E0B43C2F8903021
:104C8800236813F4003F08D0684AD2F8903023F420
:104C98004003216F0B43C2F89030236813F0400F94
:104CA80008D0624AD2F8903023F00303616C0B43BA
:104CB800C2F89030236813F0800F08D05B4AD2F80E
:104CC800903023F00C03A16C0B43C2F8903023689A
:104CD80013F4807F08D0554AD2F8903023F030037F
:104CE800E16C0B43C2F89030236813F4007F08D0BE
:104CF8004E4AD2F8903023F0C003216D0B43C2F81E
:104D08009030236813F4806F08D0484AD2F8903066
:104D180023F44073616D0B43C2F89030236813F499
:104D2800006F08D0414AD2F8903023F44063A16D57
:104D38000B43C2F89030236813F4805F08D03B4AD5
:104D4800D2F8903023F44053E16D0B43C2F8903011
:104D5800236813F4005F08D0344AD2F8903023F463
:104D68004043216E0B43C2F89030236813F4800F40
:104D780008D02E4AD2F8903023F08063A16F0B43FD
:104D8800C2F89030236813F4001F0DD0274AD2F8D8
:104D9800903023F00063E16F0B43C2F89030E36F6B
:104DA800B3F1006F00F0AA80236813F0080F00D059
:104DB800012513F4802F08D01C4AD2F8903023F034
:104DC8004073616F0B43C2F89030236813F4000FEF
:104DD80009D0164AD2F8903023F08053D4F88010C6
:104DE8000B43C2F8903026B9236813F0007F00F017
:104DF80005810E4A136823F080631360FEF74CFAAE
:104E080006460A4B1B6813F0006F79D0FEF744FA88
:104E1800801B6428F5D90320F3E00126C5E60126A6
:104E2800D5E60125D7E60126E7E600BF00380240AF
:104E38007F4B1A6C42F080521A641B6C03F080534B
:104E48000193019B7B4A136843F480731360FEF758
:104E580023FA0746774B1B6813F4807F06D1FEF7C9
:104E68001BFAC01B6428F5D90320CAE0704B1B6FDE
:104E780013F4407315D0226B02F440729A4210D09A
:104E88006B4B1A6F22F44072196F41F48031196725
:104E9800196F21F4803119671A671B6F13F0010F1E
:104EA80012D1236B03F44072B2F5407F1DD0604AE3
:104EB800936823F4F81393605D490B6F226BC2F378
:104EC8000B0213430B67A3E6FEF7E6F90746584BB8
:104ED8001B6F13F0020FE4D1FEF7DEF9C01B41F29D
:104EE80088339842F3D903208BE05148826822F432
:104EF800F812514919400A438260DDE7012553E75A
:104F0800236813F0010F13D0636B8BB9484AD2F8AA
:104F18008430D2F88410606803F4403343EA801385
:104F280001F070610B43A16843EA0173C2F8843051
:104F3800236813F4002F03D0E26BB2F5801F06D06C
:104F480013F4801F1ED0236CB3F5800F1AD1384A92
:104F5800D2F88430D2F88410606803F4403343EA0E
:104F68008013E06843EA006301F0E0410B43C2F8B4
:104F78008430D2F88C3023F01F03616A01390B4367
:104F8800C2F88C30236813F0807F11D0284AD2F8F9
:104F98008400D2F88410666823691B0443EA8613E8
:104FA80000F07060034301F0E0410B43C2F8843025
:104FB800236813F0007F0DD0626823691B0443EA5D
:104FC8008213E26843EA0263A26843EA0273184A5A
:104FD800C2F88430164A136843F080631360FEF702
:104FE8005BF90646124B1B6813F0006F06D1FEF7FB
:104FF80053F9801B6428F5D9032002E0012D02D063
:10500800002003B0F0BD0A4A136823F080531360F0
:10501800FEF742F90546064B1B6813F0005F0DD0FA
:10502800FEF73AF9401B6428F5D90320E9E700BFE9
:105038000038024000700040FFFCFF0F236813F4A3
:10504800002F01D0E26B22B113F4801F1DD0236C16
:10505800DBB9354AD2F88830D2F88810606903F491
:10506800403343EA8013A06943EA006301F0E0415A
:105078000B43C2F88830D2F88C3023F4F853A16A75
:10508800013943EA0123C2F88C30236813F4001F66
:1050980003D0E36FB3F1006F31D0236813F0080F2A
:1050A80019D0214AD2F88810D2F88830606903F400
:1050B800403343EA801301F070610B43E16943EA2E
:1050C8000173C2F88830D2F88C3023F44033E16A97
:1050D8000B43C2F88C30144A136843F080531360B2
:1050E800FEF7DAF80446104B1B6813F0005F19D17D
:1050F800FEF7D2F8001B6428F5D9032081E70A4A95
:10510800D2F88800D2F888106569236A1B0443EA3C
:10511800851300F07060034301F0E0410B43C2F8CF
:105128008830BAE700206CE70038024038B50446FA
:105138000268D36823F0A003D360FEF7ADF80546F4
:105148002368DB6813F0200F07D1FEF7A5F8401B92
:10515800B0F57A7FF4D9032000E0002038BD38B5D7
:105168000368DA6812F0400F01D0002038BD044609
:105178004FF0FF32DA60FEF78FF805462368DB68E8
:1051880013F0400F07D1FEF787F8431BB3F57A7F7A
:10519800F4D90320EAE70020E8E7000038B5002842
:1051A8005AD00446437F002B3FD0022363772368FD
:1051B800CA225A62236853225A622046FFF7CFFF59
:1051C8000546002835D122689168244B0B4093602E
:1051D80021688A686368206903436069034313434D
:1051E8008B602368E2681A6122681369A16843EA40
:1051F800014313612268D36823F08003D3602368D6
:105208009B6813F0200F1BD02268D36C23F008038F
:10521800D3642268D36CA1690B43D3642368FF224B
:105228005A6201236377284638BD0377FDF76EFF7E
:10523800BBE72368FF225A62042363770125F2E75C
:105248002046FFF773FF0028DED02368FF225A624A
:10525800042363770125E6E70125E4E7BFFF8FFF15
:10526800002302E001330A38C0B20928FAD81B012A
:10527800DBB2184370470000F8B5037F012B76D0E6
:1052880004460E460123037702234377002A45D1BB
:1052980003689B6813F0400F01D100230B7330782B
:1052A800FFF7DEFF05047078FFF7DAFF45EA00250F
:1052B800B078FFF7D5FF0543307B45EA0045236802
:1052C800CA225A62236853225A622046FFF747FFD0
:1052D8000746002834D12268264B2B4013602268E9
:1052E800936823F48023936021688B68326970691E
:1052F800024313438B602268D36823F08003D36092
:1053080023689B6813F0200F23D02368FF225A627A
:1053180001236377002323773846F8BD03689B6829
:1053280013F0400F01D100230B73337875782D02E9
:1053380045EA0345B0780543307B45EA0045BEE7BA
:105348002368FF225A620423637700232377012707
:10535800E2E72046FFF7EAFE0028D6D02368FF22BE
:105368005A6204236377002323770127D4E70227AF
:10537800D2E700BF7F7F7F0070B5037F012B64D029
:1053880004460E4601230377022343773AB94B7844
:1053980013F0100F03D003F0EF030A334B70002A09
:1053A80031D1F078FFF75CFF05047078FFF758FFFC
:1053B80045EA0025B078FFF753FF0543307845EA02
:1053C80040352368CA225A62236853225A6220460B
:1053D800FFF7C5FE064608BB22681D4B2B405360ED
:1053E8002268D36823F08003D36023689B6813F096
:1053F800200F1CD02368FF225A6201236377002301
:105408002377304670BDF37875782D0245EA034559
:10541800B0780543307845EA4035D2E72368FF2263
:105428005A6204236377002323770126E9E720469D
:10543800FFF77CFE0028DDD02368FF225A62042390
:105448006377002323770126DBE70226D9E700BF2D
:105458003FFFFF00F8B5037F012B00F0A980044649
:105468000D460123037702234377002A4DD10368B1
:105478009B6813F0400F01D100230B732E6A287824
:10548800FFF7EEFE07046878FFF7EAFE47EA002711
:10549800A878FFF7E5FE0743287B47EA004795F819
:1054A8002400FFF7DDFE47EA00673E43AB691E4371
:1054B8006F68EB691F432368CA225A622368532224
:1054C8005A62AB6AB3F5807F39D02268936823F4B7
:1054D800007393602268936823F400539360FDF788
:1054E800DBFE05462368DA6812F0020F50D1FDF79B
:1054F800D3FE401BB0F57A7FF4D92368FF225A62A5
:10550800032060770023237751E003689B6813F03A
:10551800400F01D100230B732E6A2A786B781B0287
:1055280043EA0243AA7813432A7B43EA024395F8E5
:10553800242043EA02631E43AB691E43B8E722688E
:10554800936823F4807393602268936823F48053EC
:105558009360FDF7A1FE05462368DA6812F0010F93
:105568000DD1FDF799FE401BB0F57A7FF4D9236879
:10557800FF225A62032060770023237717E0DE6159
:1055880023685F642268936843F48073936007E03C
:105598001E6223689F642268936843F400739360D3
:1055A8002368FF225A620123637700202077F8BD21
:1055B8000220FCE7037F012B2BD030B44FF0010C05
:1055C80080F81CC0022343770468A568A3F60B0380
:1055D8002B401943CA236362036853245C6204683E
:1055E800E36C23F00603E3640468E36C1A43E264A3
:1055F800036899600268936843F4006393600368E2
:10560800FF225A6280F81DC000230377184630BC79
:10561800704702207047E0B138B50D46044690F84F
:105628002C308BB1022384F82C30214651F8040B1E
:1056380000F0E8F962682946206800F01DFA0123A5
:1056480084F82C30002038BD80F82D30FDF76EFD31
:10565800E8E701207047704790F83D30DBB2012B36
:105668003AD1022380F83D300268D36843F0010341
:10567800D36003681A4AB3F1804F18BF93421DD014
:10568800A2F57C42934219D002F58062934215D06C
:1056980002F58062934211D002F5784293420DD010
:1056A80002F57052934209D0A2F59432934205D084
:1056B8001A6842F001021A60002070479968094A86
:1056C8000A40062A18BFB2F5803F07D01A6842F090
:1056D80001021A60002070470120704700207047BF
:1056E800000001400700010070477047704770478D
:1056F80010B5044603681A6912F0020F11D0DA686F
:1057080012F0020F0DD06FF002021A610123037725
:1057180003689B6913F0030F79D0FFF7E6FF0023B6
:10572800237723681A6912F0040F12D0DA6812F08E
:10573800040F0ED06FF004021A6102232377236846
:105748009B6913F4407F68D02046FFF7CEFF002303
:10575800237723681A6912F0080F12D0DA6812F05A
:10576800080F0ED06FF008021A610423237723680C
:10577800DB6913F0030F57D02046FFF7B6FF00236D
:10578800237723681A6912F0100F12D0DA6812F022
:10579800100F0ED06FF010021A61082323772368C8
:1057A800DB6913F4407F46D02046FFF79EFF0023B5
:1057B800237723681A6912F0010F03D0DA6812F010
:1057C800010F3FD123681A6912F0800F03D0DA68FD
:1057D80012F0800F3DD123681A6912F4807F03D03C
:1057E800DA6812F0800F3BD123681A6912F0400F73
:1057F80003D0DA6812F0400F39D123681A6912F021
:10580800200F03D0DA6812F0200F37D110BDFFF750
:105818006BFF2046FFF76AFF81E72046FFF764FF2A
:105828002046FFF763FF92E72046FFF75DFF20461B
:10583800FFF75CFFA3E72046FFF756FF2046FFF778
:1058480055FFB4E76FF001021A612046FDF7FAF838
:10585800B8E76FF080021A61204600F0D0F8BAE786
:105868006FF480721A61204600F0CAF8BCE76FF046
:1058780040021A612046FFF73AFFBEE76FF02002A8
:105888001A61204600F0BAF8C0E7000030B5036896
:105898003B4A904214BF4FF0000E4FF0010EB0F19A
:1058A800804F14BF72464EF00102AAB9354CA0428F
:1058B80014BF00240124344DA8420DD064B904F16A
:1058C800804404F58234A04214BF0024012405F565
:1058D8000065A84200D01CB123F070034C68234334
:1058E800002A33D1274A904214BF00220122264CB5
:1058F800A0422BD052BB02F1804202F58232904284
:1059080014BF0022012204F50064A0421ED0EAB9A7
:105918001E4A904214BF0022012204F59A34A04284
:1059280014D09AB91A4A904214BF0022012204F5F1
:105938000064A0420AD04AB9164A904214BF002215
:105948000122A4F59634A04200D022B123F4407C71
:10595800CB6843EA0C0323F080034A6913430360CE
:105968008A68C2620A6882620B4A904214BF734610
:105978004EF001030BB10B6903630123436130BD92
:1059880000000140000800400004004000440140BD
:1059980000180040002000400004014060B310B52A
:1059A800044690F83D3013B3022384F83D30214675
:1059B80051F8040BFFF76AFF012384F8483084F894
:1059C8003E3084F83F3084F8403084F8413084F821
:1059D800423084F8433084F8443084F8453084F801
:1059E800463084F8473084F83D30002010BD80F8F8
:1059F8003C30FFF730FED7E701207047704770470B
:105A08007047000030B40B68012B18D00368194A9E
:105A18001A404B688C682343CC6823430C692343A2
:105A28004C6923438C692343CC6923430C6A234381
:105A3800496A0B4313430360002030BC7047046875
:105A480024F4F844CB690A6A1A434B6A1A4322437E
:105A58004368084C1C404B688D682B43CD682B432A
:105A68000D692B434D692B4389690B43234302601E
:105A78004360E1E70080FFFF10B5012A25D0826866
:105A880002F070420B68013B4C6804F1FF3C43EAAA
:105A98000C138C6804F1FF3C43EA0C23CC6804F136
:105AA800FF3C43EA0C330C6904F1FF3C43EA0C4326
:105AB8004C6904F1FF3C43EA0C538969013943EA14
:105AC800016313438360002010BD8368134C1C409E
