:020000040800F2
:100000000000052001180008A9170008AB17000818
:10001000AD170008AF170008B11700080000000076
:10002000000000000000000000000000B3170008FE
:10003000B517000800000000B7170008B91700083E
:1000400051180008511800085118000851180008EC
:1000500051180008511800085118000851180008DC
:1000600051180008511800085118000851180008CC
:1000700051180008511800085118000851180008BC
:1000800051180008511800085118000851180008AC
:10009000511800085118000851180008511800089C
:1000A000511800085118000851180008511800088C
:1000B000511800085118000851180008511800087C
:1000C000511800085118000851180008511800086C
:1000D000511800085118000851180008511800085C
:1000E000511800085118000851180008511800084C
:1000F000511800085118000851180008511800083C
:10010000511800085118000851180008511800082B
:100110005118000851180008BD17000851180008B0
:10012000511800085118000851180008511800080B
:1001300051180008511800085118000851180008FB
:1001400051180008511800085118000851180008EB
:1001500051180008511800085118000851180008DB
:1001600051180008511800085118000851180008CB
:10017000511800085118000851180008000000002C
:1001800051180008511800085118000851180008AB
:10019000511800085118000851180008511800089B
:1001A000CD17000851180008DD1700085118000885
:1001B000511800085118000851180008511800087B
:0801C000511800085118000855
:1001C80010B5054C237833B9044B13B10448AFF389
:1001D80000800123237010BD0C00002000000000E7
:1001E800E849000808B5034B1BB103490348AFF3BE
:1001F800008008BD0000000010000020E849000849
:1002080053B94AB9002908BF00281CBF4FF0FF3175
:100218004FF0FF3000F072B9ADF1080C6DE904CE73
:1002280000F006F8DDF804E0DDE9022304B07047C9
:100238002DE9F047089E04468846002B4BD18A4298
:10024800154667D9B2FA82F24AB1C2F1200701FA1B
:1002580002F320FA07F7954047EA030894404FEA6B
:10026800154E230CB8FBFEF71FFA85FC0EFB17880A
:1002780043EA084307FB0CF1994209D9EB1807F147
:10028800FF3080F01B81994240F21881023F2B44D5
:100298005B1AA4B2B3FBFEF00EFB103344EA03442E
:1002A80000FB0CFCA44509D92C1900F1FF3380F0A0
:1002B8000781A44540F2048102382C4440EA0740F3
:1002C800A4EB0C0400271EB1D4400023C6E9004368
:1002D8003946BDE8F0878B4209D9002E00F0EB8043
:1002E8000027C6E9000138463946BDE8F087B3FA69
:1002F80083F7002F47D18B4202D3824200F2FA8063
:10030800841A61EB030301209846002EE0D0C6E969
:100318000048DDE702B9FFDEB2FA82F2002A40F0B7
:100328008F80491B4FEA154E1FFA85F80127B1FB4C
:10033800FEFC230C0EFB1C1143EA014308FB0CF1E5
:10034800994207D9EB180CF1FF3002D2994200F21A
:10035800CD808446591AA3B2B1FBFEF00EFB1014EF
:1003680043EA044408FB00F8A04507D92C1900F11A
:10037800FF3302D2A04500F2B6801846A4EB080469
:1003880040EA0C409FE7C7F1200CBB4022FA0CFE64
:100398004EEA030E01FA07F420FA0CF521FA0CF3E1
:1003A8004FEA1E482543B3FBF8F92C0C08FB193318
:1003B8001FFA8EFA44EA034309FB0AF49C4202FA44
:1003C80007F200FA07F10BD91EEB030309F1FF301E
:1003D80080F087809C4240F28480A9F1020973442E
:1003E8001B1BADB2B3FBF8F008FB103345EA03441E
:1003F80000FB0AFAA24508D91EEB040400F1FF33FA
:100408006BD2A24569D90238744440EA0940A0FB7E
:100418000289A4EB0A044C45C2464B4654D351D03A
:10042800002E69D0B1EB0A0564EB030404FA0CFC56
:10043800FD40FC404CEA0505C6E90054002747E7A3
:10044800C2F1200320FA03F7954001FA02F021FADD
:1004580003F34FEA154E3843010CB3FBFEF71FFABE
:1004680085F80EFB173341EA034107FB08F38B427B
:1004780004FA02F407D9691807F1FF3C2FD28B421E
:100488002DD9023F2944CB1A81B2B3FBFEF00EFBF3
:10049800103341EA034100FB08F38B4207D969187E
:1004A80000F1FF3C17D28B4215D902382944C91AEA
:1004B80040EA07473BE73746304609E70746E7E69D
:1004C8001846FBE64145ABD2B8EB020A69EB0E02CF
:1004D80001381346A4E76046E9E7184695E76746FA
:1004E800D1E781467CE702382C4447E7ACF1020C9F
:1004F8002B442FE7384608E73746E9E6704700BF40
:1005080003680B60036070472DE9F04F9DB080468B
:100518000C46154601933426324600210FA804F0F4
:1005280057FA3246002102A804F052FA514EC6F892
:100538000080514F3C60DFF850B1CBF8005004FB0D
:1005480008F4A40025444D4B1D602C44DFF8448179
:10055800C8F800404A4D4B4B2B6000246C60AC60DF
:10056800EC602C6128236B610923AB613523EB61B7
:100578000B232B6240F215236B6240F21B13AB6214
:1005880040F23523EB6240F21D132B6385F83440AB
:1005980085F8354085F83640284601F0ABFE0F94C3
:1005A8003A68109211943368129313944FF0FF0A2B
:1005B800CDF850A015944FF4C069CDF85890072194
:1005C8001791DBF80010189119921A938DF86C4066
:1005D8008DF86D408DF86E4022460FA9284601F02F
:1005E80073FF02943A68039204943368059306945F
:1005F800CDF81CA00894CDF8249007210A91D8F8CA
:1006080000100B910C920D938DF838408DF83940FD
:100618008DF83A40019B022B25D000221A4B19680D
:10062800174801F07FFF194C194B23604FF4003332
:1006380063600025A560E560A562E5620126266382
:100648006563A561E56126626562204601F0F0F9FF
:100658002946204601F076FB3146204601F072FB20
:100668001DB0BDE8F08F012202A9284601F02CFF39
:10067800D3E700BF28000020380000203000002009
:1006880024010020006801402C000020EC0100201B
:1006980000B002403400002010B582B004460E4875
:1006A8004FF4403343600023C36001F0C1F908B13F
:1006B80002B010BD094B1B68094A1268094909684C
:1006C80000912146044801F0E1F90028F0D16421A5
:1006D800014801F0F7F9EBE7EC01002038000020B1
:1006E800300000202800002030B587B0044604926E
:1006F80001390591013B039391421AD8039A0A9B49
:100708009A421BD8224B1B68059A039901FB0321C7
:100718002048056805EB81051F484FF440314160CA
:100728000499521A1344C36001F082F958B1B420F5
:1007380028E004A905A8FFF7E3FEDFE70AA903A854
:10074800FFF7DEFEDEE70A9B039A9B1A0093049AE2
:10075800059BD31A2A4621460F4801F097F900282D
:10076800E5D164210C4801F0ADF9E0E7084A1268C8
:1007780002FB00320749096841F822400133DB2BAC
:10078800F4DD0130DB2801DCB423F8E707B030BD25
:100798003800002030000020EC01002010B582B0A5
:1007A80090B9174B1C6817484FF4803343600023F7
:1007B8008360C3600363FF224263C362836201F004
:1007C80037F920B102B010BD0F4B1C68EBE70121CF
:1007D8000C4801F0B7FA0028F4D10C4B1B680C4AFE
:1007E80011680C4A126800922246064801F04EF938
:1007F8000028E7D16421034801F064F9E2E700BF6B
:100808002C000020EC0100203400002038000020DB
:10081800300000202800002008B529B10122082155
:10082800044801F0DFFB08BD00220821014801F05F
:10083800D9FBF8E70028024008B5037B0268816805
:100848004068FFF761FE08BD08B50B46014618462B
:10085800FFF7E2FF08BD40F07F40704708B5FFF79B
:100868001BFF08BD10B582B0049C0094FFF73CFF45
:1008780002B010BD08B5FFF791FF08BD00B587B0FD
:100888004FF4887303934FF4F073049301258DF8A4
:10089800145006AC4FF0404344F8103D00F022F8E5
:1008A80029462846FFF7D0FF4FF47A7000F0F2FF90
:1008B8002046FFF7C1FF4FF4FA7000F0EBFFFF206E
:1008C800FFF7C9FFFFF7CAFF4FF47F00FFF7C3FF29
:1008D8009622009264231946FFF7C4FF0020FFF711
:1008E800C9FFFEE72DE9F843254C012727604FF0A3
:1008F8001008C4F80480A7604FF00009C4F80C90F1
:10090800204D4FF6FF722146284603F09AFA1E4EF4
:100918003070322000F0BEFF02232360C4F8048048
:10092800A760C4F80C904FF6FF722146284603F0E2
:1009380088FA307003232360C4F804800823A36076
:10094800C4F80C904FF6FF722146284603F079FA56
:10095800307004232360C4F80480A7604FF4087340
:10096800E3604FF6FF722146284603F06AFA3070BA
:1009780040F20361284603F081FABDE8F88300BF1E
:10098800400000202C0200205000002008B500F094
:10099800E7FF042000F0F4FF08BD00002DE9F04F48
:1009A80091B000240B940C940D940E940F94A94BC1
:1009B8001A6B42F010021A631A6B02F010020092CE
:1009C800009A1A6B42F040021A631A6B02F0400256
:1009D8000192019A1A6B42F002021A631A6B02F032
:1009E80002020292029A1A6B42F008021A631A6B08
:1009F80002F008020392039A1A6B42F004021A6387
:100A08001A6B02F004020492049A1A6B42F0010273
:100A18001A631A6B02F001020592059A1A6B42F4E6
:100A280000721A631A6B02F400720692069A1A6B25
:100A380042F480721A631A6B02F480720792079A62
:100A48001A6B42F480621A631A6B02F4806208928D
:100A5800089A1A6B42F020021A631A6B02F02002FD
:100A68000992099A1A6B42F080021A631B6B03F011
:100A780080030A930A9B01222021774801F0B2FAE9
:100A880022460C21754801F0ADFA0122082174486C
:100A980001F0A8FA01224FF48051704801F0A2FA3F
:100AA80022464FF400516F4801F09CFA2246C821B3
:100AB8006D4801F097FA4FF0080BCDF82CB00C9464
:100AC8000D940BA9694801F09FF904230B930225A3
:100AD8000C950D9403260E9609230F930BA96348D2
:100AE80001F092F94FF4D0430B930C950D940E96A8
:100AF8000B230F930BA95C4801F086F94FF4407360
:100B08000B9312230C9301270D970E9404230F9334
:100B18000BA9574801F078F943F623430B930C953A
:100B28000D940E964FF00A08CDF83C800BA950485A
:100B380001F06AF910230B930C950D940E940F9500
:100B48000BA94B4801F060F94FF0800ACDF82CA0B2
:100B58000C950D940E94CDF83CB00BA93E4801F0CD
:100B680053F94FF400430B930C950D940E940F9783
:100B78000BA9404801F048F960230B930C950D949C
:100B88000E944FF00D09CDF83C900BA9374801F0B1
:100B98003BF9CDF82CA00C950D940E9407230F93D8
:100BA8000BA9334801F030F940230B930C950D94B1
:100BB8000E96CDF83C800BA92D4801F025F94FF48D
:100BC80080530B930C940D940BA92B4801F01CF93E
:100BD80040230B93294B0C930D940BA91E4801F04D
:100BE80013F94FF4E0530B930C950D940E96CDF832
:100BF8003C800BA91F4801F007F9F0230B930C95D3
:100C08000D940E94CDF83C800BA9144801F0FCF823
:100C18004FF480630B930C950D940E94CDF83C80A3
:100C28000BA9114801F0F0F820230B930C970D94B1
:100C38000E940BA9084801F0E7F8CDF82CB00C95F4
:100C48000D940E94CDF83C900BA9034801F0DCF804
:100C580016E000BF00380240000C024000200240AD
:100C680000280240001C0240001802400010024008
:100C7800000402400000024000240240000012105C
:100C880041F20C030B930C970D940E940BA98D480D
:100C980001F0BAF84FF4005ACDF82CA00C940D943A
:100CA8000BA9894801F0B0F8CDF82CB00C970D9439
:100CB8000E940BA9854801F0A7F84FF400720B9227
:100CC8000C950D940E94CDF83C900BA9804801F03A
:100CD8009BF810220B920C940D940BA97D4801F0FF
:100CE80093F848F204030B930C940D940BA97A48DB
:100CF80001F08AF80B950C950D940E9405220F922D
:100D08000BA9704801F080F8CDF82CA00C970D9431
:100D18000E940BA9704801F077F84FF4BC430B937D
:100D28000C950D940E94CDF83C900BA96A4801F0EF
:100D38006BF80B970C950D940E940F950BA96148C1
:100D480001F062F84FF400720B920C950D940E941A
:100D580007220F920BA9614801F056F84FF48073EF
:100D68000B930C950D940E940F970BA95B4801F00B
:100D78004BF8CDF82CA05A4B0C930D940BA9514865
:100D880001F042F8C0230B930C950D940E96CDF804
:100D98003CB00BA94C4801F037F810230B930C9585
:100DA8000D940E96CDF83C800BA94B4801F02CF819
:100DB800C8230B930C970D940E940BA9444801F08B
:100DC80023F84FF4F8630B930C960D940BA9454840
:100DD80001F01AF805230B930C950D940E96CDF897
:100DE8003C800BA9384801F00FF832230B930C957F
:100DF8000D940E960B230F930BA9334801F004F8BA
:100E080004230B930C950D940E9609230F930BA9AD
:100E1800354800F0F9FF4FF460530B930C950D948F
:100E28000E9609230F930BA92A4800F0EDFF04231F
:100E38000B930C940D940BA9254800F0E5FF86232D
:100E48000B930C950D940E960B230F930BA9234827
:100E580000F0DAFF0B970C960D940BA91F4800F0D1
:100E6800D3FF50230B930C950D940E94CDF83C9022
:100E78000BA91A4800F0C8FF28230B930C950D9472
:100E88000E96CDF83C800BA9144800F0BDFF402316
:100E98000B930C950D940E9409230F930BA90E48F0
:100EA80000F0B2FF4FF440430B930C950D940E9451
:100EB80005230F930BA90C4800F0A6FF11B0BDE85D
:100EC800F08F00BF002002400008024000280240C6
:100ED80000180240000C0240001C024000000240C2
:100EE80000001210001402400004024008B5026815
:100EF800034B9A4200D008BD00F0BAFCFBE700BFE4
:100F08000010004072B6FEE708B50C480C4B0360B1
:100F1800002343608360C3608362C36203634363E7
:100F280000F086FD28B90121044800F00BFF10B934
:100F380008BDFFF7E7FFFFF7E5FF00BFEC01002062
:100F480000B0024000B589B01448154B0360002377
:100F5800436083600421C160102202614022426123
:100F68004FF4C0728261C3614FF4006202624FF4B1
:100F78008052426283620223019306220292039105
:100F88000492059306930793694402F03BFF10B956
:100F980009B05DF804FBFFF7B5FF00BF2C02002085
:100FA800400100A008B51148114B0360114B436084
:100FB800E02383600123C3600023036143618361ED
:100FC800C361036201F014F850B90021074801F029
:100FD8006DF838B90021054801F096F820B908BD28
:100FE800FFF790FFFFF78EFFFFF78CFF54000020FC
:100FF800005C00406847402000B58FB034220021D3
:1010080001A803F0E5FC2748274B03600023436051
:101018008360C3600361282242610922826135220C
:10102800C2610B22026240F21522426240F21B1298
:10103800826240F23522C26240F21D12026380F8D9
:10104800343080F8353080F8363001F053F928BB59
:10105800002201924FF4F071029103924FF48873C9
:10106800049302200590FF20069007924FF4C06079
:101078000890072009904FF040400A900B910C937C
:101088008DF834208DF835208DF8362001A90548D3
:1010980001F01AFA20B90FB05DF804FBFFF732FF30
:1010A800FFF730FF240100200068014010B592B01E
:1010B80000240C940D940E940F94109411940B9496
:1010C8002C222146684603F083FC3148314B0360EB
:1010D80044607F238360FF23C360046144618461AB
:1010E80002F0E8F8002847D100238DF830308DF859
:1010F80031308DF832301093119301220CA9244815
:1011080002F046F9002839D101228DF82C208DF8FB
:101118002D208DF82E2000238DF82F300BA91C4888
:1011280002F0B6F960BB00238DF800308DF801306D
:101138008DF802300193049305930693079308935F
:1011480001228DF824204FF480730A9369461048D1
:1011580002F00CFAB0B94FF400730A930122694601
:101168000B4802F003FA78B902220021084802F07D
:10117800ADFA58B912B010BDFFF7C4FEFFF7C2FEB2
:10118800FFF7C0FEFFF7BEFEFFF7BCFEFFF7BAFE93
:10119800CC0100200028004008B50C480C4B036027
:1011A800002343608360C360036143610523836157
:1011B80002F0A8FD30B94FF40061044802F0C2FD06
:1011C80010B908BDFFF79EFEFFF79CFEA0000020A7
:1011D800002C014000B5B5B03022002128A803F04A
:1011E800F7FB0021239124912591269127918422B0
:1011F80002A803F0EDFB01F0B7F9334B1A6C42F08B
:1012080080521A641B6C03F080530093009B2F4B91
:101218001A6842F440421A601B6803F44043019381
:10122800019B092328934FF48032299201222D92A1
:1012380002222E924FF480012F91192130914FF400
:10124800D87131913292339328A801F0D3F900284C
:1012580031D101F091F900282FD10F2323930223D4
:101268002493002325934FF4A05326934FF48053DF
:101278002793072123A801F02BFC00BB144B0293F2
:101288006423079302230993089300230A930122F6
:101298000C924FF480320D924FF400720E921D930F
:1012A8004FF000622192229302A801F0F9FC40B9A4
:1012B80035B05DF804FBFFF725FEFFF723FEFFF7C7
:1012C80021FEFFF71FFE00BF0038024000700040FB
:1012D8002800A10008B5FFF759FBBFF34F8FBFF3F4
:1012E8006F8F274B0021C3F85012BFF34F8FBFF306
:1012F8006F8F5A6942F400325A61BFF34F8FBFF3C0
:101308006F8FC3F88410BFF34F8FD3F88040C4F3B6
:101318004E310FE01A4643F6E07303EA411343EAFD
:1013280082731748C0F86032531E002AF2D14B1E50
:1013380019B11946C4F3C902EDE7BFF34F8F4369EA
:1013480043F480334361BFF34F8FBFF36F8F00F0D7
:101358007DFAFFF73FFF4FF4FA7000F09BFAFFF7B2
:101368001DFBFFF7D1FDFFF7EDFDFFF71BFEFFF7B4
:1013780043FEFFF79BFEFFF70FFFFFF77FFAFCE73F
:1013880000ED00E0F0B587B00023019302930393CA
:10139800049305932A4B1B680BB107B0F0BD284B8B
:1013A80001221A60274B9A6B42F001029A639B6BE9
:1013B80003F001030093009B4FF683730193022609
:1013C8000296032504950C24059401A91E4800F0F3
:1013D8001BFD48F2331301930296002703970495E7
:1013E800059401A9194800F00FFD4CF2037301930D
:1013F800029603970495059401A9154800F004FD89
:101408004FF63F030193029603970495059401A9AB
:10141800104800F0F9FC28230193029603970495DD
:10142800059401A90C4800F0EFFC082301930296EB
:1014380003970495059401A9084800F0E5FCACE77A
:101448003C00002000380240001002400018024012
:10145800000C024000140240001C02400008024038
:1014680082B00A4B1A6C42F080521A641A6C02F06D
:1014780080520092009A5A6C42F480425A645B6C23
:1014880003F480430193019B02B070470038024087
:1014980002680E4B9A4200D0704700B583B0A3F59E
:1014A800F0431A6B42F400021A631B6B03F4000347
:1014B8000193019B002211465A2000F011FA5A208C
:1014C80000F040FA03B05DF804FB00BF00B0024032
:1014D80010B588B0002303930493059306930793EC
:1014E8000268144B9A4201D008B010BD124C236B0D
:1014F80043F080032363236B03F080030193019B74
:101508004FF4C07303931223049301230593032319
:1015180006930423079303A9084800F075FC236C7D
:1015280043F400032364236C03F400030293029B37
:10153800DAE700BF005C004000380240001C0240AF
:1015480070B58CB000230793089309930A930B9303
:1015580002683E4B9A4201D00CB070BD03F550436F
:101568005A6C42F080625A645A6C02F080620192AE
:10157800019A1A6B42F010021A631A6B02F01002F9
:101588000292029A1A6B42F400721A631A6B02F4FE
:1015980000720392039A1A6B42F480621A631A6B00
:1015A80002F480620492049A1A6B42F040021A63B1
:1015B8001A6B02F040020592059A1A6B42F4807287
:1015C8001A631B6B03F480730693069B102307931F
:1015D800022508950E260B9607A91D4800F014FC55
:1015E8004EF6FF7307930895002409940A940B9606
:1015F80007A9184800F008FCF723079308950994F1
:101608000A940B9607A9144800F0FEFB4FF4805388
:101618000793089509940A9409230B9307A90F487F
:1016280000F0F2FB4FF446430793089509940A9497
:101638000B9607A90A4800F0E7FB224621465820E6
:1016480000F04EF9582000F07DF985E70068014068
:101658000010024000240240002802400018024006
:10166800002002400268054B9A4200D07047044AA5
:10167800136F43F400431367F8E700BF00280040E6
:101688000038024070B588B0002303930493059393
:101698000693079302681E4B9A4201D008B070BDAA
:1016A80003F586335A6C42F400625A645A6C02F4A9
:1016B80000620092009A1A6B42F004021A631A6BD5
:1016C80002F004020192019A1A6B42F008021A63AE
:1016D8001B6B03F008030293029B4FF4F853039328
:1016E80002260496032506950C2407940DEB0401A5
:1016F800084800F089FB042303930496002305930C
:10170800069507940DEB0401034800F07DFBC5E73F
:10171800002C014000080240000C024008B5FFF709
:1017280031FE08BD00B589B000220146362000F020
:10173800D7F8362000F006F9154B1A6C42F0100263
:101748001A641B6C03F010030193019B02A903A800
:1017580001F088FA01F076FA43000E48A0FB032353
:101768009B0C013B0C480D4A026040F2E732C26014
:10177800436000230361836002F036FD18B1012045
:1017880009B05DF804FB044802F08EFBF8E700BFDF
:101798000038024083DE1B43600200200010004036
:1017A800FEE7FEE7FEE7FEE7FEE770477047704793
:1017B8007047000008B5024802F0C2FB08BD00BF30
:1017C8006002002008B5024800F011FE08BD00BF05
:1017D8002401002008B5024800F015FA08BD00BF32
:1017E800EC010020034AD2F8883043F47003C2F8B1
:1017F8008830704700ED00E0DFF834D00D480E491E
:101808000E4A002302E0D458C4500433C4188C4252
:10181800F9D30B4A0B4C002301E013600432A242B7
:10182800FBD3FFF7DFFF03F0AFF8FFF753FD704777
:1018380000000520000000200C000020284A0008B5
:101848000C000020B0020020FEE7000008B5074A9F
:10185800136843F400731360032000F02FF800208E
:10186800FFF760FFFFF7FCFD002008BD003C0240C9
:10187800034A1168034B1B780B441360704700BF81
:10188800AC02002004000020014B1868704700BF1C
:10189800AC02002038B50446FFF7F6FF0546B4F160
:1018A800FF3F02D0044B1B781C44FFF7EDFF401BA1
:1018B800A042FAD338BD00BF040000200649CB6817
:1018C80023F4E0631B041B0C000200F4E0600343F4
:1018D800024A1A43CA60704700ED00E00000FA05AA
:1018E80030B4154BDB68C3F30223C3F10704042C9F
:1018F80028BF04241D1D062D14D9033B4FF0FF35C6
:1019080005FA04F421EA0401994005FA03F322EAEE
:1019180003031943002807DB0901C9B2074B19540F
:1019280030BC70470023E9E700F00F000901C9B295
:10193800034B1954F4E700BF00ED00E000E400E0B9
:1019480014ED00E0002807DB00F01F024009012326
:101958009340024A42F82030704700BF00E100E09F
:10196800BFF35F8F044A536A23F480335362034BF7
:1019780000225A60704700BF00ED00E090ED00E0E3
:1019880040F00100054B5860054A536A43F4803320
:101998005362BFF34F8FBFF36F8F704790ED00E036
:1019A80000ED00E070B40668746C04F04044039DD8
:1019B80045EA03431C4374640368DA634368B3F578
:1019C800403F03D00368D96070BC704701F07F4680
:1019D80001F47F0301F47F45CAB2846894B1012CF5
:1019E8000ED0022C11D0032C17D0360F1B0D2D0B47
:1019F800190241EA051141EA063141EA121101E0F2
:101A080021F07F4103689963DEE7DB0CAD0AD90258
:101A180041EA451141EAD201F4E7F60FDB0CED0A81
:101A2800990241EA451141EAC63141EAD201E9E7A2
:101A380038B310B5044690F83930EBB1022384F876
:101A480039302268136823F4403361680B4313600C
:101A58002268536B23F00703A1680B435363226882
:101A6800116C094B0B40E1680B4313640020E063E1
:101A7800012384F8393010BD80F83830FFF708FDAD
:101A8800DCE70120704700BF00C0FFFF10B582B03F
:101A980090F83840012C13D00446012084F838000F
:101AA800022084F83900049800902046FFF77AFF56
:101AB8002268136843F001031360002002B010BDD0
:101AC8000220FBE770B582B004460D46002301935F
:101AD80003681B6813F0010F11D12268D369526A99
:101AE800134313F0200F47D1236812229A60012371
:101AF80084F83930002084F8380002B070BDFFF750
:101B0800C3FE064623685A6812F0020FE5D15A68E8
:101B18000192019A12F0210F14D1B5F1FF3FF1D0D3
:101B2800FFF7B2FE801BA84201D8002DEAD1E36B73
:101B380043F02003E363032084F83900002384F88A
:101B48003830DAE7019A12F0200F03D0E26B42F046
:101B58000202E263019A12F0010F03D0E26B42F035
:101B68000102E26321229A60042384F839300023B9
:101B780084F838300120C0E7FFF786FE0646236860
:101B88005A6812F0100FAFD15A680192019A12F0F8
:101B9800290F14D1B5F1FF3FF1D0FFF775FE801B77
:101BA800A84201D8002DEAD1E36B43F02003E36398
:101BB800032084F83900002384F838309DE7019A1F
:101BC80012F0080F03D0E26B42F00402E263019ABC
:101BD80012F0200F03D0E26B42F00202E263019A96
:101BE80012F0010F03D0E26B42F00102E2632922F6
:101BF8009A60042384F83930002384F838300120AF
:101C08007BE77047704770B5044603685D681E68D7
:101C180015F0010F16D016F4807F13D01A6822F43D
:101C280080721A60C36B43F00103C3630368012227
:101C38009A60042380F83930002380F838304369EB
:101C480003B1984715F0200F18D016F4005F15D08F
:101C58002268136823F400531360236820229A60D3
:101C6800E36B43F00203E363042384F83930002371
:101C780084F8383063690BB12046984715F0080F8F
:101C880018D016F4006F15D02268136823F4006387
:101C98001360236808229A60E36B43F00403E3634C
:101CA800042384F83930002384F8383063690BB191
:101CB8002046984715F0040F02D016F4806F20D103
:101CC80015F0020F16D016F4007F13D0226813689F
:101CD80023F400731360236802229A60E36BE363C2
:101CE800012384F83930002384F8383023690BB194
:101CF8002046984715F0100F02D016F4805F0CD1DB
:101D080070BD2268136823F480631360236804227B
:101D18009A602046FFF775FFD2E72268136823F41C
:101D280080531360236810229A60E36BE3630123F6
:101D380084F83930002384F838302046FFF762FFF2
:101D4800DEE7000090F83830012B59D030B4012379
:101D580080F83830022380F8393000EB0113DA6953
:101D68008B1C1B01C35842EA0343093A012A1ED9B6
:101D78008A1C00EB0212526843EA026341BB046802
:101D8800656A204A2A4013436362026800EB011324
:101D98009C699461DB69093B012B10D9012380F808
:101DA8003930002380F83830184630BC70478A1C18
:101DB80000EB0212526802F07F421343DEE7023161
:101DC80000EB01114B68026823F07F439362E5E75B
:101DD8000468E5690B4A2A401343E361026800EB93
:101DE80001139C691461DB69093B012BD6D80231C8
:101DF80000EB01114B68026823F07F431362CDE7C3
:101E080002207047F0FFFC0000230F2B00F2E18056
:101E1800F0B583B039E0092200E00022B2403A432D
:101E280002346C4E46F824206B4A1468EA4302EAEE
:101E380004064F6817F4803F01D045EA0406664C53
:101E48002660646802EA04064F6817F4003F01D070
:101E580045EA0406604C6660A46802EA04064F6816
:101E680017F4801F01D045EA04065B4CA660E468BD
:101E780022404E6816F4001F01D045EA0402564C71
:101E8800E26001330F2B00F2A28001229A400C6815
:101E980004EA0205AA42F4D14C68661E112C18BF48
:101EA800012E01D9122C12D186685F000324BC4090
:101EB80026EA0406CC68BC4034438460466826EAB7
:101EC80002064C68C4F300129A4032434260C2686A
:101ED8005F000326BE40F64332408C68BC40144382
:101EE800C4604A68122A18BF022A13D1DC080834D1
:101EF80050F824E003F007024FEA820C0F2202FA9E
:101F08000CF22EEA020E0A6902FA0CF242EA0E02FA
:101F180040F82420026816404A6802F00302BA40DA
:101F2800324302604A6812F0805FAAD02B4A546C90
:101F380044F480445464526C02F480420192019A41
:101F48009C08A61C234A52F8267003F00302960048
:101F58000F22B24027EA0207214A90423FF45DAFC0
:101F680002F58062904222D002F58062904220D031
:101F780002F5806290421ED002F5806290421CD029
:101F880002F5806290421AD002F58062904218D021
:101F980002F58062904216D002F58062904214D019
:101FA80002F5806290423FF436AF0A2236E70122FA
:101FB80034E7022232E7032230E704222EE7052223
:101FC8002CE706222AE7072228E7082226E703B09B
:101FD800F0BD704700380140003C01400038024025
:101FE8000000024012B9090481617047816170479D
:101FF800002857D010B5044690F84130002B41D046
:10200800242384F841302268136823F00103136005
:102018006368226823F0706313612268936823F46D
:1020280000439360E368012B31D0A368226843F42E
:1020380004439360E368022B2FD0226851681A4B3F
:102048000B4353602268D36823F40043D3602369A9
:1020580062691343A169226843EA0123D360E369F3
:10206800216A22680B4313602268136843F0010356
:10207800136000206064202384F84130206384F8D2
:10208800420010BD80F84030FFF722FAB8E7A36895
:10209800226843F400439360CCE723684FF400625E
:1020A8005A60CAE7012070470080000290F841306A
:1020B800DBB2202B24D190F84030012B22D0012311
:1020C80080F84030242380F841300268136823F0F8
:1020D800010313600268136823F4805313600268D5
:1020E8001368194311600268136843F00103136011
:1020F800202380F84130002380F84030184670478C
:10210800022070470220704790F84130DBB2202B44
:1021180022D190F84030012B20D0012380F84030A4
:10212800242380F841300268136823F00103136008
:102138000268136823F4706343EA0121116002689E
:10214800136843F001031360202380F84130002313
:1021580080F84030184670470220704702207047C8
:10216800F0B44D680468E368C3F30B431D44D2011F
:102178001444D4F8883003F47043C4F888300B68EA
:102188000468E668C6F30B4633440133144443EA53
:102198000543C4F88830CD680468E368C3F30A03CC
:1021A8001D441444D4F88C3003F47043C4F88C30C4
:1021B8008B680468E668C6F30A063344013314449E
:1021C80043EA0543C4F88C3003681344D3F89440B9
:1021D80024F00704C3F89440036813440C69C3F857
:1021E800944091F831C091F832708E6905681544B1
:1021F800D5F89C300024C5F89C4091F8303043EA6B
:102208000C2343EA07430568154443EA0663C5F807
:102218009C3003681344D3F8985025F0FF05C3F8A1
:102228009850036813444D69C3F8985003681344E1
:10223800D3F8A0602D4D3540C3F8A050CD690E6A83
:10224800036813443543C3F8A05003681344D3F814
:10225800AC50C3F8AC40036813444C6AC3F8AC40B4
:102268000B696BB1012B3AD0022B18BF042B38D065
:10227800032B38D0072B01D0012302E0022300E012
:10228800042304681444D4F8B05005F0E025C4F8D9
:10229800B0508C6A03FB04F54C680E68A41B03FB62
:1022A80004F303330468144443EA0543C4F8B03024
:1022B80003681344D3F8B4500D4C2C40C3F8B44011
:1022C80003681344C96AC3F8B41003681A44D2F8FF
:1022D800843043F00103C2F88430F0BC7047032314
:1022E800CFE70223CDE70223CBE700BFF8F8FFFFD3
:1022F80000F8FFFF002872D038B5044690F8A130E6
:10230800002B67D0022384F8A1302268936923F058
:102318007043936121688A696368A0680343E06831
:1023280003432069034313438B6121688A682D4B5B
:102338001A408A60656920688268A16941EA054196
:102348000A4382602168CA681A40CA60E569206841
:10235800C268216A41EA05410A43C26021680A69E4
:102368001A400A61656A20680269A16A41EA054162
:102378000A43026121684A6913404B61E06A216897
:102388004B69226B42EA004213434B6194F83500D3
:1023980094F836301B042168CA6A02F07F42CA6288
:1023A8002168CA6A43EA002394F8340003431343BC
:1023B800CB622268536B43F0060353632268936928
:1023C80043F0010393610020C4F8A400012384F8BA
:1023D800A13038BD80F8A030FFF7B2F892E70120AD
:1023E800704700BF00F800F070477047704770B53D
:1023F800044603689D6B5E6B15F0040F02D016F05F
:10240800040F12D115F0020F02D016F0020F21D1DD
:1024180015F0010F02D016F0010F32D115F0080F98
:1024280002D016F0080F3DD170BD5A6B22F004029D
:102438005A6303680422DA63D0F8A43043F0010336
:10244800C0F8A43080F8A120002380F8A030FFF75E
:10245800CBFFD7E72268536B23F00203536323684B
:102468000222DA63D4F8A4301343C4F8A430042356
:1024780084F8A130002384F8A0302046FFF7B4FF89
:10248800C6E72268536B23F00103536322680123D4
:10249800D36384F8A130002384F8A0302046FFF7E6
:1024A800A4FFBBE72268536B23F008035363236838
:1024B8000822DA63012384F8A130002384F8A030CD
:1024C8002046FFF793FFAFE790F8A030012B27D005
:1024D8002DE9F04194460F4606464FF0010880F872
:1024E800A080022380F8A130342404FB020438348D
:1024F8000D460FCD0FC40FCD0FC40FCD0FC42B68E1
:102508002360624639463046FFF72AFE3368C3F82F
:10251800248086F8A180002086F8A000BDE8F0811C
:102528000220704738B590F8A030012B19D0044626
:10253800012580F8A050022380F8A130342303FB42
:1025480002F303F138002344D96521182046FFF728
:1025580007FE23685D6284F8A150002084F8A0007B
:1025680038BD0220FCE70000024A136843F4807378
:10257800136070470070004010B582B01B4B1A6C96
:1025880042F080521A641B6C03F080530193019B44
:10259800174A136843F480331360FFF775F904464C
:1025A800134B5B6813F4803F08D1FFF76DF9001BEC
:1025B800B0F57A7FF4D9032002B010BD0C4A136835
:1025C80043F400331360FFF75FF90446084B5B6878
:1025D80013F4003F07D1FFF757F9001BB0F57A7FD6
:1025E800F4D90320E8E70020E6E700BF00380240FE
:1025F80000700040002800F0098270B582B00446DF
:10260800036813F0010F29D0A24B9B6803F00C0359
:10261800042B1AD09F4B9B6803F00C03082B0FD098
:102628006368B3F5803F40D0002B54D1994B1A68AA
:1026380022F480321A601A6822F480221A6039E083
:10264800944B5B6813F4800FEAD0924B1B6813F429
:10265800003F03D06368002B00F0DA81236813F091
:10266800020F75D08B4B9B6813F00C0F5ED0894B13
:102678009B6803F00C03082B53D0E368002B00F091
:102688008A80844A136843F001031360FFF7FCF85B
:102698000546804B1B6813F0020F73D1FFF7F4F85F
:1026A800401B0228F5D90320B5E17A4A136843F4A0
:1026B8008033136063682BB3FFF7E6F80546754B64
:1026C8001B6813F4003FC9D1FFF7DEF8401B6428EC
:1026D800F5D903209FE1B3F5A02F09D06D4B1A68F7
:1026E80022F480321A601A6822F480221A60E1E724
:1026F800684B1A6842F480221A601A6842F48032E1
:102708001A60D7E7FFF7C0F80546624B1B6813F459
:10271800003FA3D0FFF7B8F8401B6428F5D9032081
:1027280079E15C4B5B6813F4800FA6D1594B1B68A9
:1027380013F0020F04D0E368012B01D001206AE1F5
:10274800544A136823F0F803216943EAC10313606C
:10275800236813F0080F46D0636983B34D4A536F5B
:1027680043F001035367FFF78FF80546494B5B6F4A
:1027780013F0020F37D1FFF787F8401B0228F5D96D
:10278800032048E1434A136823F0F803216943EA28
:10279800C1031360DCE73F4A136823F001031360A9
:1027A800FFF772F805463B4B1B6813F0020FCFD0BA
:1027B800FFF76AF8401B0228F5D903202BE1354AB8
:1027C800536F23F001035367FFF75EF80546314B5B
:1027D8005B6F13F0020F06D0FFF756F8401B022874
:1027E800F5D9032017E1236813F0040F7ED0294B95
:1027F8001B6C13F0805F1ED1264B1A6C42F080527E
:102808001A641B6C03F080530193019B0125224B32
:102818001B6813F4807F10D0A368012B21D0002BF4
:102828003CD11C4B1A6F22F001021A671A6F22F072
:1028380004021A671AE00025E9E7174A136843F407
:1028480080731360FFF720F80646134B1B6813F4D8
:10285800807FE1D1FFF718F8801B6428F5D90320A1
:10286800D9E00C4A136F43F001031367A3685BB305
:10287800FFF70AF80646074B1B6F13F0020F34D117
:10288800FFF702F8801B41F288339842F3D90320FE
:10289800C1E000BF0038024000700040052B09D09D
:1028A800604B1A6F22F001021A671A6F22F00402B5
:1028B8001A67DBE75B4B1A6F42F004021A671A6F5C
:1028C80042F001021A67D1E7FEF7DEFF0646554BD4
:1028D8001B6F13F0020F08D0FEF7D6FF801B41F2E2
:1028E80088339842F3D9032095E0FDB9A369002BFA
:1028F80000F090804B4A926802F00C02082A58D0E7
:10290800022B19D0474A136823F080731360FEF72F
:10291800BBFF0446434B1B6813F0007F47D0FEF70C
:10292800B3FF001B0228F5D9032074E03D4A136C5D
:1029380023F080531364D9E73A4A136823F080736D
:102948001360FEF7A1FF0546364B1B6813F0007FA6
:1029580006D0FEF799FF401B0228F5D903205AE05C
:10296800E369226A1343626A43EA8213A26A52083D
:10297800013A43EA0243E26A43EA026343F000533E
:10298800284A5360136843F080731360FEF77CFF96
:102998000446244B1B6813F0007F06D1FEF774FF32
:1029A800001B0228F5D9032035E0002033E0002081
:1029B80031E01C4A5268012B2FD002F48003E169F0
:1029C8008B4201D0012026E002F03F03216A8B42AE
:1029D80001D001201FE0616A47F6C0731340B3EBD2
:1029E800811F01D0012016E002F44031A36A5B0880
:1029F800013BB1EB034F01D001200CE002F0706203
:102A0800E36AB2EB036F0AD0012004E001207047AB
:102A1800012000E0002002B070BD0120FBE700208B
:102A2800F9E700BF00380240264B9B6803F00C030F
:102A3800042B44D0082B01D0234870472DE9F04BD4
:102A4800204B5A6802F03F025B6813F4800F13D0E2
:102A58001C4B5968C1F3881100231C48A1FB0001D5
:102A6800FDF7CEFB174B5B68C3F3014301335B00F3
:102A7800B0FBF3F0BDE8F08B124B5B68C3F388132F
:102A88001E4600275C010025E41A65EB0705A9012D
:102A980041EA9461A001001B61EB0501CB0043EA08
:102AA8005073C400A01943EB07018B0243EA90530B
:102AB8008402204619460023FDF7A2FBD2E703480B
:102AC800704700BF003802400024F40040787D01C0
:102AD800002800F0A38070B50446524B1B6803F031
:102AE8000F038B420CD24F4A136823F00F030B439A
:102AF8001360136803F00F038B4201D0012070BDEF
:102B0800236813F0020F17D013F0040F04D0464ABD
:102B1800936843F4E0539360236813F0080F04D0DC
:102B2800414A936843F4604393603F4A936823F0B3
:102B3800F003A068034393600D46236813F0010F68
:102B480031D06368012B20D0022B25D0364A126879
:102B580012F0020F64D034498A6822F0030213434A
:102B68008B60FEF791FE06462F4B9B6803F00C0323
:102B78006268B3EB820F16D0FEF786FE801B41F227
:102B880088339842F0D90320B9E7274A126812F42B
:102B9800003FE0D10120B2E7234A126812F0007F1B
:102BA800D9D10120ABE71F4B1B6803F00F03AB42E1
:102BB8000CD91C4A136823F00F032B4313601368C6
:102BC80003F00F03AB4201D0012098E7236813F00C
:102BD800040F06D0144A936823F4E053E1680B43CA
:102BE8009360236813F0080F07D00F4A936823F403
:102BF8006043216943EAC1039360FFF715FF0A4B5D
:102C08009B68C3F30313094AD35CD840084B186088
:102C1800084B1868FEF786FD002070E70120704712
:102C280001206CE7003C024000380240004A0008DE
:102C38000000002008000020014B1868704700BF02
:102C48000000002008B5FFF7F7FF044B9B68C3F3AB
:102C58008223034AD35CD84008BD00BF0038024035
:102C6800104A00080F2303600B4B9A6802F0030216
:102C780042609A6802F0F00282609A6802F4E052B8
:102C8800C2609B68DB0803F4E0530361034B1B68D5
:102C980003F00F030B60704700380240003C02400D
:102CA800F0B583B00446036813F0010F0CD0B64B9F
:102CB8009A6822F400029A609A68416B0A439A6003
:102CC800436BC3B1002600E00026236813F4002FED
:102CD80015D0AD4AD2F88C3023F44013E16B0B4386
:102CE800C2F88C30E36BB3F5801F06D0002B00F0E0
:102CF8002981002504E00126E7E70126F6E70025FB
:102D0800236813F4801F0FD09F4AD2F88C3023F425
:102D18004003216C0B43C2F88C30236CB3F5800F51
:102D280000F0128103B90125236813F0807F00D0D9
:102D3800012613F0200F40F00981236813F0100FCB
:102D48000CD0914BD3F88C2022F08072C3F88C20E1
:102D5800D3F88C20A16B0A43C3F88C20236813F4A2
:102D6800804F08D0884AD2F8903023F44033616EFF
:102D78000B43C2F89030236813F4004F08D0824AFE
:102D8800D2F8903023F44023A16E0B43C2F8903060
:102D9800236813F4803F08D07B4AD2F8903023F49C
:102DA8004013E16E0B43C2F89030236813F4003FE0
:102DB80008D0754AD2F8903023F44003216F0B43B2
:102DC800C2F89030236813F0400F08D06E4AD2F84A
:102DD800903023F00303616C0B43C2F890302368F2
:102DE80013F0800F08D0684AD2F8903023F00C0313
:102DF800A16C0B43C2F89030236813F4807F08D08D
:102E0800614AD2F8903023F03003E16C0B43C2F8EA
:102E18009030236813F4007F08D05B4AD2F89030D2
:102E280023F0C003216D0B43C2F89030236813F4DC
:102E3800806F08D0544AD2F8903023F44073616D03
:102E48000B43C2F89030236813F4006F08D04E4A41
:102E5800D2F8903023F44063A16D0B43C2F8903050
:102E6800236813F4805F08D0474AD2F8903023F4DF
:102E78004053E16D0B43C2F89030236813F4005FB0
:102E880008D0414AD2F8903023F44043216E0B43D6
:102E9800C2F89030236813F4800F08D03A4AD2F869
:102EA800903023F08063A16F0B43C2F89030236801
:102EB80013F4001F0DD0344AD2F8903023F0006389
:102EC800E16F0B43C2F89030E36FB3F1006F00F08D
:102ED800A780236813F0080F00D0012513F4802F72
:102EE80008D0294AD2F8903023F04073616F0B4321
:102EF800C2F89030236813F4000F09D0224AD2F8A0
:102F0800903023F08053D4F880100B43C2F89030EF
:102F180026B9236813F0007F00F002811A4A13686B
:102F280023F080631360FEF7AFFC0646164B1B6860
:102F380013F0006F76D0FEF7A7FC801B6428F5D944
:102F48000320EFE00125DBE60126EBE60E4B1A6CC9
:102F580042F080521A641B6C03F080530193019B6A
:102F68000A4A136843F480731360FEF78DFC074622
:102F7800064B1B6813F4807F0AD1FEF785FCC01B43
:102F88006428F5D90320CDE00038024000700040E5
:102F9800AA4B1B6F13F4407315D0226B02F44072D6
:102FA8009A4210D0A54B1A6F22F44072196F41F45F
:102FB80080311967196F21F4803119671A671B6FFF
:102FC80013F0010F12D1236B03F44072B2F5407F66
:102FD8001DD09A4A936823F4F813936097490B6FAE
:102FE800226BC2F30B0213430B67A6E6FEF74CFCF9
:102FF8000746924B1B6F13F0020FE4D1FEF744FC17
:10300800C01B41F288339842F3D903208AE08B48E9
:10301800826822F4F8128A4919400A438260DDE77F
:10302800012556E7236813F0010F13D0636B8BB9A2
:10303800824AD2F88430D2F88410606803F44033AE
:1030480043EA801301F070610B43A16843EA0173FE
:10305800C2F88430236813F4002F03D0E26BB2F572
:10306800801F06D013F4801F1ED0236CB3F5800F89
:103078001AD1724AD2F88430D2F88410606803F406
:10308800403343EA8013E06843EA006301F0E0411B
:103098000B43C2F88430D2F88C3023F01F03616AE6
:1030A80001390B43C2F88C30236813F0807F11D0AC
:1030B800624AD2F88400D2F88410666823691B0437
:1030C80043EA861300F07060034301F0E0410B43CC
:1030D800C2F88430236813F0007F0DD0626823693A
:1030E8001B0443EA8213E26843EA0263A26843EAE4
:1030F8000273524AC2F88430504A136843F080631E
:103108001360FEF7C1FB06464C4B1B6813F0006FBB
:1031180006D1FEF7B9FB801B6428F5D9032001E02E
:1031280015B9002003B0F0BD444A136823F080535A
:103138001360FEF7A9FB0546404B1B6813F0005FC0
:1031480006D0FEF7A1FB401B6428F5D90320E9E768
:10315800236813F4002F01D0E26B22B113F4801F0F
:103168001DD0236CDBB9354AD2F88830D2F88810E4
:10317800606903F4403343EA8013A06943EA0063BB
:1031880001F0E0410B43C2F88830D2F88C3023F4C8
:10319800F853A16A013943EA0123C2F88C30236845
:1031A80013F4001F03D0E36FB3F1006F31D023682D
:1031B80013F0080F19D0214AD2F88810D2F88830B5
:1031C800606903F4403343EA801301F070610B43F4
:1031D800E16943EA0173C2F88830D2F88C3023F4ED
:1031E8004033E16A0B43C2F88C30144A136843F049
:1031F80080531360FEF748FB0446104B1B6813F01E
:10320800005F19D1FEF740FB001B6428F5D90320A5
:1032180088E70A4AD2F88800D2F888106569236AD4
:103228001B0443EA851300F07060034301F0E0419A
:103238000B43C2F88830BAE7002073E70038024031
:10324800FFFCFF0F38B504460268D36823F0A003DB
:10325800D360FEF719FB05462368DB6813F0200FDF
:1032680007D1FEF711FB401BB0F57A7FF4D9032094
:1032780000E0002038BD38B50368DA6812F0400F66
:1032880001D0002038BD04464FF0FF32DA60FEF767
:10329800FBFA05462368DB6813F0400F07D1FEF7F9
:1032A800F3FA401BB0F57A7FF4D90320EAE700204F
:1032B800E8E7000038B500285AD00446437F002BC1
:1032C8003ED0022363772368CA225A6223685322B6
:1032D8005A622046FFF7CFFF0546002834D12268FE
:1032E8009168244B0B40936021688A686368206961
:1032F80003436069034313438B602368E2681A61E0
:1033080022681369A16843EA014313612268D368FC
:1033180023F08003D36023689B6813F0200F1BD031
:103328002268D36C23F00803D3642268D36CA169A4
:103338000B43D3642368FF225A620123637709E0B1
:103348000377FEF78FF9BCE72368FF225A6204234C
:1033580063770125284638BD2046FFF773FF00280C
:10336800DED02368FF225A62042363770125F1E740
:103378000125EFE7BFFF8FFF002302E001330A3882
:10338800C0B20928FAD81B01DBB218437047000005
:10339800F8B5037F012B76D00D4604460123037749
:1033A80002234377002A44D103689B6813F0400F37
:1033B80001D100230B732878FFF7DEFF0604687835
:1033C800FFF7DAFF46EA0026A878FFF7D5FF06439D
:1033D800287B46EA00462368CA225A622368532299
:1033E8005A622046FFF747FF0746002833D1226874
:1033F800264B334013602268936823F4802393603C
:1034080021688B682A696869024313438B602268C4
:10341800D36823F08003D36023689B6813F0200FE0
:1034280023D02368FF225A6201236377002323777E
:1034380019E003689B6813F0400F01D100230B7358
:1034480028786E78360246EA0046A8780643287B34
:1034580046EA0046BFE72368FF225A6204236377DF
:103468000023237701273846F8BD2046FFF7EAFEF8
:103478000028D6D02368FF225A62042363770023EA
:1034880023770127EFE70227EDE700BF7F7F7F0063
:1034980070B5037F012B64D00123037702234377A0
:1034A8003AB94B7813F0100F03D003F0EF030A3347
:1034B8004B700E460446002A30D1C878FFF75CFFEF
:1034C80005047078FFF758FF45EA0025B078FFF744
:1034D80053FF0543307845EA40352368CA225A62CB
:1034E800236853225A622046FFF7C5FE064600BBF2
:1034F80022681D4B2B4053602268D36823F0800359
:10350800D36023689B6813F0200F1CD02368FF2228
:103518005A62012363770023237712E0C8784D7835
:103528002D0245EA004588780543087845EA403584
:10353800D3E72368FF225A620423637700232377A3
:103548000126304670BD2046FFF77CFE0028DDD0FE
:103558002368FF225A620423637700232377012616
:10356800EFE70226EDE700BF3FFFFF00F8B5037F56
:10357800012B00F0A9800D4604460123037702239E
:103588004377002A4DD103689B6813F0400F01D19F
:1035980000230B732E6A2878FFF7EEFE070468787D
:1035A800FFF7EAFE47EA0027A878FFF7E5FE07439A
:1035B800287B47EA004795F82400FFF7DDFE47EA35
:1035C80000600643AB691E436F68EB691F432368BD
:1035D800CA225A62236853225A62AB6AB3F5807FC3
:1035E80039D02268936823F4007393602268936843
:1035F80023F400539360FEF747F905462368DA6819
:1036080012F0020F50D1FEF73FF9401BB0F57A7F58
:10361800F4D92368FF225A620320607700232377B6
:1036280051E003689B6813F0400F01D100230B732E
:103638002A6A29786B781B0243EA0143A9780B436D
:10364800297B43EA014395F8241043EA01631343B5
:10365800AE691E43B8E72268936823F480739360C9
:103668002268936823F480539360FEF70DF90546AA
:103678002368DA6812F0010F0DD1FEF705F9401B37
:10368800B0F57A7FF4D92368FF225A620320607765
:103698000023237717E0DE6123685F64226893685C
:1036A80043F48073936007E01E6223689F64226876
:1036B800936843F4007393602368FF225A620123DE
:1036C800637700202077F8BD0220FCE770B4047F00
:1036D800012C27D001240477022343770568AE68BC
:1036E800A3F60B0333401943CA236B6203685325BF
:1036F8005D620568EB6C23F00603EB640568EB6C10
:103708001A43EA64036899600268936843F40063A3
:1037180093600368FF225A624477002303771846B0
:1037280070BC70470220FBE770B582B004460023E6
:103738000193006801F05AF8064610B1304602B00D
:1037480070BD206801F065F838B90123A364A36C43
:10375800012B0BD03546304614E00023A3642068C3
:1037680001F044F80028F2D00646E7E70021206877
:1037780001F066F80028EDD04FF08056DEE7019B97
:1037880001330193019A4FF6FE739A4213D895B903
:103798000021206801F054F8D8B91249206801F0D6
:1037A80067F80546B8B90021206800F0DCFEC30FB1
:1037B800E5D01D46E3E7019A4FF6FE739A420DD80D
:1037C80010F0804F02D100236364B7E701236364DC
:1037D800B4E70646B2E74FF08056AFE74FF0807681
:1037E800ACE700BF000010C12DE9F04188B00446E5
:1037F8000F46FEF749F80646002300930193082177
:10380800206800F0C3FF054618B1284608B0BDE897
:10381800F081216D0904206801F012F8054600289E
:10382800F3D14FF0FF33029308230393302304931B
:1038380002230593002306930123079302A9206816
:1038480000F092FF206801F045F805460028DCD119
:1038580080460BE000F062FE4DF8280008F10108F0
:10386800FEF712F8801BB0F1FF3F3FD02068436B92
:1038780013F02A0F07D1436B13F4001FEAD1436BEF
:1038880013F4005FECD1436B13F0080F25D1436BA1
:1038980013F0020F24D1436B13F0200F23D140F211
:1038A8003A538363019A130203F47F0343EA0263E2
:1038B800110A01F47F410B4343EA12633B60009A0B
:1038C800130203F47F0343EA0263110A01F47F4100
:1038D8000B4343EA12637B6097E70825856394E707
:1038E8000225856391E7202585638EE74FF0004523
:1038F8008BE710B582B00446002100910191006861
:1039080000F031FE10F0007F16D169462046FFF71F
:103918006BFF034690B9019B13F4802F11D0216DE2
:103928000904206800F08CFF034638B9022120689A
:1039380000F0B8FF034601E04FF40063184602B0F8
:1039480010BD4FF08063F9E710B582B0044600213E
:1039580000910191006800F006FE10F0007F16D17A
:1039680069462046FFF740FF034690B9019B13F4D0
:10397800803F11D0216D0904206800F061FF0346E3
:1039880038B90021206800F08DFF034601E04FF4AC
:103998000063184602B010BD4FF08063F9E70000DD
:1039A80010B4436E9B0F0B70436EC3F383634B706D
:1039B80090F8673003F003038B7090F86630CB7093
:1039C80090F865300B7190F864304B71836E1B0D65
:1039D800CB80B0F86A3003F00F030B72836EC3F329
:1039E800C0334B72836EC3F380338B72836EC3F321
:1039F8004033CB72836EC3F300330B7300234B73D6
:103A0800436C002B40F08880826E40F6FC7303EA1A
:103A18008203C26E43EA92730B61C36EC3F3C2633F
:103A28000B7590F86F3003F007034B75C36EC3F343
:103A380042538B75C36EC3F38243CB75C36EC3F316
:103A4800C2330B760B69013343650A7E02F0070225
:103A5800023203FA02F242650B7A03F00F040123E3
:103A6800A34083655B0A03FB02F3C3654FF400734D
:103A78000366C36EC3F380334B76C36EC3F3C613BA
:103A88008B76C36E03F07F03CB76036FDB0F0B7768
:103A9800036FC3F341734B77036FC3F382638B7771
:103AA800036FC3F38353CB77036FC3F3405381F89A
:103AB8002030002381F82130B0F8722002F0010292
:103AC80081F82220026FC2F3C03281F82320026FEE
:103AD800C2F3803281F82420026FC2F3403281F8A9
:103AE8002520026FC2F3003281F82620026FC2F34C
:103AF800812281F82720026FC2F3012281F8282051
:103B0800026FC2F3460281F82920012281F82A2097
:103B180018465DF8044B7047012B0BD003680E4A1A
:103B28009A63836B43F080538363012380F83430B6
:103B38001846EEE7836E1B0403F47C13B0F86E207E
:103B480013430B610B6901339B024365C3654FF453
:103B58000073836503668CE7FF05400070B590B07D
:103B680004460123ADF81230006800F0E2FC00289A
:103B78006CD0636C032B45D1636C032B5DD1636CF4
:103B8800032B1DD0BDF8121021650904206800F030
:103B9800CEFE054600285BD10021206800F0E3FC3A
:103BA80060660421206800F0DEFCA0660821206819
:103BB80000F0D9FCE0660C21206800F0D4FC2067F6
:103BC8000421206800F0CFFC000DE06405A9204620
:103BD800FFF7E6FE00283ED1226D1204002320687C
:103BE80000F0ECFD054698BB234653F8106B93E8AC
:103BF80007008DE80700043494E80E00304600F012
:103C080071FC25E0206800F07DFE054600BB002120
:103C1800206800F0A8FC60670421206800F0A3FC7D
:103C2800A0670821206800F09EFCE0670C2120684E
:103C380000F099FCC4F880009EE70DF1120120689D
:103C480000F08AFE0546002899D001E04FF0806513
:103C5800284610B070BD4FF08055F9E730B58BB0ED
:103C68000446002304930593069307930893762349
:103C780009930AAB13E907008DE8070004AB0ECBE4
:103C8800206800F02FFC18B1012528460BB030BD84
:103C980005462268536823F480735360206800F057
:103CA80040FC2268536843F4807353602046FFF752
:103CB8003BFD034630B1012584F83450A06B18430E
:103CC800A063E2E72046FFF749FF034630B101252C
:103CD80084F83450A06B1843A063D6E74FF4007102
:103CE800206800F053FD0028CFD023680449996369
:103CF800A36B0343A363012584F83450C5E700BFD1
:103D0800FF054000C0B110B5044690F834307BB1CF
:103D1800032384F834302046FFF7A0FF034670B928
:103D28000022A2632263012284F83420184610BDC1
:103D38000377FDF7A7FCEBE701231846704701233B
:103D4800F4E7000030B58BB004460D46032380F835
:103D58003430436C032B1CD0B1F5805F08D0B1F52B
:103D6800006F0AD079B1836B43F00063836314E07A
:103D7800836B43F0805383630FE0FFF7BAFDA36BB7
:103D88001843A06309E0FFF7DFFDA36B1843A063A6
:103D980003E0836B43F080538363A36BCBB1236849
:103DA800174A9A63012584F834504FF4007120684B
:103DB80000F0ECFC034630B1226811499163A06B16
:103DC8001843A0630125012384F8343028460BB03A
:103DD80030BD63680493A3680593E3680693079569
:103DE80063690893A36909930AAB13E907008DE88F
:103DF800070004AB0ECB206800F074FB0025D4E765
:103E0800FF054000D8B138B504460D4690F82C306F
:103E180083B1022384F82C30211D206800F016FAA3
:103E280062682946206800F04BFA012384F82C3098
:103E3800002038BD80F82D30FDF770FCE9E701203F
:103E4800704738B590F82C30DBB2022B14D00D46F1
:103E58000446022380F82C30006800F07DFA2B68B5
:103E6800022B04D0012384F82C30002038BD052310
:103E780084F82C300020F9E70220F7E790F82C307E
:103E8800DBB2022B0CD010B50446022380F82C308C
:103E9800006800F077FA012384F82C30002010BD68
:103EA800022070477047000090F83D30DBB2012BCC
:103EB80001D001207047022380F83D300268D368A2
:103EC80043F00103D3600368194AB3F1804F18BF68
:103ED80093421DD0A2F57C42934219D002F580622C
:103EE800934215D002F58062934211D002F57842D0
:103EF80093420DD002F57052934209D0A2F5943244
:103F0800934205D01A6842F001021A6000207047F7
:103F18009968084A0A40062A18BFB2F5803F05D0BA
:103F28001A6842F001021A600020704700207047AA
:103F38000000014007000100704770477047704754
:103F480010B5044603681A6912F0020F11D0DA6836
:103F580012F0020F0DD06FF002021A6101230377ED
:103F680003689B6913F0030F79D0FFF7E6FF00237E
:103F7800237723681A6912F0040F12D0DA6812F056
:103F8800040F0ED06FF004021A610223237723680E
:103F98009B6913F4407F68D02046FFF7CEFF0023CB
:103FA800237723681A6912F0080F12D0DA6812F022
:103FB800080F0ED06FF008021A61042323772368D4
:103FC800DB6913F0030F57D02046FFF7B6FF002335
:103FD800237723681A6912F0100F12D0DA6812F0EA
:103FE800100F0ED06FF010021A6108232377236890
:103FF800DB6913F4407F46D02046FFF79EFF00237D
:10400800237723681A6912F0010F03D0DA6812F0D7
:10401800010F3FD123681A6912F0800F03D0DA68C4
:1040280012F0800F3DD123681A6912F4807F03D003
:10403800DA6812F0800F3BD123681A6912F0400F3A
:1040480003D0DA6812F0400F39D123681A6912F0E8
:10405800200F03D0DA6812F0200F37D110BDFFF718
:104068006BFF2046FFF76AFF81E72046FFF764FFF2
:104078002046FFF763FF92E72046FFF75DFF2046E3
:10408800FFF75CFFA3E72046FFF756FF2046FFF740
:1040980055FFB4E76FF001021A612046FCF726FFCE
:1040A800B8E76FF080021A61204600F0CDF8BAE751
:1040B8006FF480721A61204600F0C7F8BCE76FF011
:1040C80040021A612046FFF73AFFBEE76FF0200270
:1040D8001A61204600F0B7F8C0E7000070B4036822
:1040E8003A4CA04214BF00240124B0F1804F14BF01
:1040F800224644F00102AAB9354DA84214BF002552
:104108000125344EB0420DD065B905F1804505F55D
:104118008235A84214BF0025012506F50066B04285
:1041280000D01DB123F070034D682B43002A33D112
:10413800274A904214BF00220122264DA8422BD0C4
:1041480052BB02F1804202F58232904214BF002233
:10415800012205F50065A8421ED0EAB91E4A904220
:1041680014BF0022012205F59A35A84214D09AB945
:104178001A4A904214BF0022012205F50065A842A0
:104188000AD04AB9164A904214BF00220122A5F566
:104198009635A84200D01AB123F44073CA68134375
:1041A80023F080034A69134303608A68C2620A687D
:1041B80082620C4B984214BF234644F001030BB1B2
:1041C8000B6903630123436170BC70470000014021
:1041D800000800400004004000440140001800406E
:1041E800002000400004014058B310B5044690F880
:1041F8003D300BB3022384F83D30211D2068FFF7C2
:104208006DFF012384F8483084F83E3084F83F304D
:1042180084F8403084F8413084F8423084F84330E0
:1042280084F8443084F8453084F8463084F84730C0
:1042380084F83D30002010BD80F83C30FFF732FE96
:10424800D8E70120704770477047704730B40B6853
:10425800012B18D00368194A1A404B688C6823430D
:10426800CC6823430C6923434C6923438C6923435B
:10427800CC6923430C6A2343496A0B431343036005
:10428800002030BC7047046824F4F844CB690A6AFB
:104298001A434B6A1A4322434368084C1C404B6834
:1042A8008D682B43CD682B430D692B434D692B43F8
:1042B80089690B43234302604360E1E70080FFFF05
:1042C80030B4012A21D0826802F070420B68013BA9
:1042D8004C68013C43EA04138C68013C43EA04231C
:1042E800CC68013C43EA04330C69013C43EA0443CB
:1042F8004C69013C43EA04538969013943EA016383
:1043080013438360002030BC70478368114C1C4005
:10431800CA68551E4B695A1E120542EA05322243E5
:10432800C46804F070440B68013B4D68013D43EAE2
:1043380005138D68013D43EA05230D69013D43EAF4
:1043480005438969013943EA016323438260C360F5
:10435800D8E700BFFF0F0FFF10B40369084A1A40DF
:104368000B684C6823438C68013C43EA4413C968D2
:1043780043EA41231343036100205DF8044B70476F
:104388000000C0FF436943EA4101416100207047D2
:104398000B4B1B680B4AA2FB03235A0A41F28833D2
:1043A80003FB02F35A1E43B1416B134611F0800F11
:1043B800F8D0C5238363002070474FF00040704752
:1043C80000000020D34D6210154B1B68154AA2FB54
:1043D80003235A0A41F2883303FB02F35A1EDBB166
:1043E800416B134611F0450FF8D011F4006FF5D169
:1043F800436B13F0040F07D1436B13F0010F07D180
:10440800C5238363002070470423836318467047DD
:1044180001238363184670474FF00040704700BF80
:1044280000000020D34D6210114B1B68114AA2FBFB
:1044380003235A0A41F2883303FB02F35A1E9BB145
:10444800416B134611F0450FF8D011F4006FF5D108
:10445800436B13F0040F03D1C52383630020704717
:1044680004238363184670474FF00040704700BF2D
:1044780000000020D34D6210184B1B68184AA2FB9D
:1044880003235A0A41F2883303FB02F35A1EFBB195
:10449800416B134611F0450FF8D011F4006FF5D1B8
:1044A800436B13F0040F0BD1436B13F0010F0BD1C7
:1044B800436B13F0400F0ED04023836300207047F6
:1044C80004238363184670470123836318467047A3
:1044D8004FF0004070470020704700BF00000020E8
:1044E800D34D621084B010B402AC84E80E000B46C1
:1044F800039A1343049A1343059A1343069A1343E2
:10450800079A13434168044A0A4013434360002052
:104518005DF8044B04B070470081FFFFD0F88000BD
:10452800704708B5032303600220FDF7B3F90020A4
:1045380008BD006800F00300704700000B68836046
:104548004B688A681343CA6813430A691343C168EE
:10455800024A0A401343C3600020704700F0FFFF7F
:104568000069C0B2704714304058704738B5524B94
:104578001B68524CA4FB03435B0A02FB03F2531E65
:10458800002A60D0446B1A4614F0450FF7D014F493
:10459800006FF4D1436B13F0040F07D1436B13F092
:1045A800010F07D00123836318464EE00423836379
:1045B80018464AE00D460446C5238363FFF7D0FF3B
:1045C800A84201D0012040E000212046FFF7CBFFA0
:1045D8003B4B0340D3B300283ADB10F0804F3AD16D
:1045E80010F0005F39D110F0805F38D110F0006F03
:1045F80038D110F0806F38D110F0807F38D110F4A6
:10460800000F38D110F4800F38D110F4001F38D1C2
:1046180010F4801F38D110F4802F38D110F4003FE7
:1046280038D110F4803F38D110F4004F38D110F44D
:10463800804F38D110F4005F38D110F0080F38D00F
:104648004FF4000001E04FF0004038BD0020FCE7C7
:104658004FF00070F9E74020F7E78020F5E74FF4C6
:104668008070F2E74FF40070EFE74FF48060ECE7FA
:104678004FF40060E9E74FF48050E6E74FF400504C
:10468800E3E74FF48040E0E74FF40040DDE74FF404
:104698000030DAE74FF48020D7E74FF40020D4E762
:1046A8004FF48010D1E74FF40010CEE74FF48000AC
:1046B800CBE74FF48030C8E700000020D34D6210EC
:1046C80008E0FFFD70B5264B1B68264CA4FB03438E
:1046D8005C0A41F2883303FB04F35C1EB3B3456BF9
:1046E800234615F0450FF8D015F4006FF5D1436B4C
:1046F80013F0040F07D1436B13F0010F07D0012308
:104708008363184624E004238363184620E0164692
:104718000D460446FFF724FFA84201D0012017E008
:10472800C523A36300212046FFF71DFF10F4604F47
:1047380008D010F4804F0CD110F4004F0CD04FF477
:10474800805005E0000C3080002001E04FF0004070
:1047580070BD4FF40050FBE74FF48030F8E700BF1E
:1047680000000020D34D62100B6843624B688362DF
:104778008B68CA6813430A6913434A691343C26AB8
:1047880022F0F7021343C3620020704730B587B0A8
:1047980005460191102402944023039300230493B7
:1047A8004FF48063059301A9FFF7C8FE41F28832F0
:1047B80021462846FFF7DAFE07B030BD30B587B08E
:1047C800054601920724029440230393002304938F
:1047D8004FF48063059301A9FFF7B0FE41F28832D8
:1047E80021462846FFF7C2FE07B030BD10B586B097
:1047F8000446002301930293039304934FF48063C8
:10480800059301A9FFF79AFE2046FFF7C1FD06B000
:1048180010BD10B586B004464FF4D5730193082334
:10482800029340230393002304934FF4806305937A
:1048380001A9FFF783FE2046FFF71EFE06B010BD54
:1048480030B587B00546019137240294402303937D
:10485800002304934FF48063059301A9FFF76EFECC
:1048680041F2883221462846FFF780FE07B030BD66
:1048780010B586B004460A4B0B43019329230293D3
:1048880040230393002304934FF48063059301A905
:10489800FFF754FE2046FFF7C7FD06B010BD00BF66
:1048A8000000108030B587B00546019106240294B7
:1048B80040230393002304934FF48063059301A9D5
:1048C800FFF73CFE41F2883221462846FFF74EFEAC
:1048D80007B030BD30B587B00546002301933324B7
:1048E80002944022039204934FF48063059301A934
:1048F800FFF724FE41F2883221462846FFF736FEAC
:1049080007B030BD10B586B00446002301930222DB
:104918000292C022039204934FF48063059301A985
:10492800FFF70CFE2046FFF74FFD06B010BD10B58F
:1049380086B00446019109230293C0230393002300
:1049480004934FF48063059301A9FFF7F7FD204610
:10495800FFF73AFD06B010BD70B586B005460E46A5
:1049680000230193032402944022039204934FF4FA
:104978008063059301A9FFF7E1FD324621462846E9
:10498800FFF7A0FE06B070BD70B50D4E0D4CA41B10
:10499800A4100025A54209D10B4E0C4C00F020F8BC
:1049A800A41BA4100025A54205D170BD56F82530DA
:1049B80098470135EEE756F8253098470135F2E774
:1049C800204A0008204A0008204A0008244A000813
:1049D80002440346934200D1704703F8011BF9E7EC
:1049E800F8B500BFF8BC08BC9E467047F8B500BFD4
:0849F800F8BC08BC9E467047A4
:104A0000000000000000000001020304060708097E
:084A1000000000000102030494
:084A180020B8FF7F010000003F
:044A2000ED0100089C
:044A2400C9010008BC
:0C4A28000024F400010000001000000059
:0400000508001801D6
:00000001FF
